:020000021000EC
:106000000080002079380200C1380200F59F0100AD
:106010000000000000000000000000000000000080
:10602000000000000000000000000000C538020071
:106030000000000000000000C7380200C93802005C
:10604000CB380200CB380200CB380200CB3802003C
:10605000CB3802000000000095D3010049C20100C6
:10606000CB380200CB380200092F0200CB380200E7
:10607000CB380200CB380200CB380200CB3802000C
:10608000CB3802005DC70100CB380200CB380200DC
:1060900025C8010079290200A9C60100CB380200F9
:1060A000CB380200CB3802000000000000000000E6
:1060B00000000000000000000000000000000000E0
:1060C00010B5064C2378002B07D1054B002B02D0CE
:1060D000044800E000BF0123237010BDA424002069
:1060E00000000000DC55020008B5084B002B03D06F
:1060F0000748084900E000BF07480368002B00D1AB
:1061000008BD064B002BFBD09847F9E700000000C4
:10611000DC550200A8240020A0240020000000007C
:10612000164B002B00D1144B9D46402292029A1A26
:10613000924600218B460F461348144A121A0DF05E
:10614000FDFD0F4B002B00D098470E4B002B00D0CD
:1061500098470020002104000D000D48002802D0BF
:106160000C480DF07BFF0DF043FD2000290004F0EA
:106170001BFA0DF02DFDC046000008000080002035
:106180000000000000000000A4240020343500209E
:106190005D4002006D4002003CDF70473DDF70470C
:1061A00071DF704777DF704738B5312900D9E5E0F6
:1061B000794D8C002C59A746D0B202F057FC002430
:1061C000201C38BD754B0024DA87F9E7530602D549
:1061D00080235B421A433D2370490024CA54EFE7F1
:1061E000530602D580235B421A433C236B490024AB
:1061F000CA54E5E7FA20322150430DF067FB684BA3
:1062000000249880DCE79000801880000A210DF0BF
:106210005DFB634B00245880D2E7900082185F4BEF
:1062200092009A630024CBE7D0B20BF0B1FA0024BD
:10623000C6E75B4B00241A70C2E7D0B20BF0A2FA9B
:106240000024BDE7D0B209F0B9FE0024B8E7D0B20F
:1062500009F0AEFE0024B3E7504B00241A75AFE7F7
:106260004E4B00245A63ABE7D0B202F04DFA002443
:10627000A6E7101C0AF036FA0024A1E79000821865
:10628000464B9200DA6200249AE7D0B20BF09AFAF9
:10629000002495E7D0B20BF08DFA002490E730236C
:1062A0003E490024CA548BE73C4B00245A7087E7D0
:1062B0001A1C02F02FFA041C02F0FCFC002865D026
:1062C0000020FFF76FFF7BE7344B00241A8577E748
:1062D000101C02F009FD002472E7304B00245A62C2
:1062E0006EE72E4B9000DA61821892001A62002449
:1062F00066E7101C0BF096FA002461E7274B002498
:106300001A765DE7254B00245A7659E7234B002483
:106310005A7555E7214B0024DA7551E71F4B50425F
:10632000987500244CE71D4B0024DA7448E71B4B9A
:1063300000249A7444E7194B0024DA8140E7174B94
:1063400000241A733CE7154B00245A6038E7134BBE
:1063500000249A6034E7114B00241A7030E7101CB7
:106360000AF010FA00280BD08020C0020AF0EAF8E8
:10637000002425E7094B00241A8221E700241FE7A7
:106380008020C0020AF0D6F8002419E728204042F5
:10639000FFF708FF14E7C04690410200C024002028
:1063A0002420002010B504F02DF805F00FFE174C46
:1063B000002826D10AF0EAFB002009F0D9FFFF20CF
:1063C000FFF7ECFE002817D1CB20FFF7E5FE0028F1
:1063D0000DD1002009F0B6FF012009F09DFFBFF3A9
:1063E0004F8F0B4A0B4BDA60BFF34F8FFEE70A4922
:1063F000221C03F09FFCECE70849221C03F09AFCE6
:10640000E2E70749221C03F095FCD3E708430200AA
:106410000400FA0500ED00E0F5040000F3040000BC
:10642000DE040000002370B5264D86B0041C002059
:106430002B6409F087FEEB7D9B070CD5142C07D845
:106440000123A340204A134202D1204A134202D121
:106450000A200CF0C9FF28200AF0EAFC00200CF00A
:1064600029FA03231A4A1B4E13701422347001AC0C
:106470002270123A6270A37002F032FBE07109F0F0
:1064800063FBA08009F066FBA07109F06FFBE07070
:106490000AF034F8A0600AF047F83378E06023741B
:1064A0004423EB5A201C637409F0D4FF0A4B211CCF
:1064B0001868142205F0A4F8084804F04DF806B056
:1064C00070BDC046C02400207FFF100080000F0078
:1064D00035340020583400205C340020184302007A
:1064E000F0B54F4646460023C0B4354D8BB0071C6F
:1064F00000202B64AB6409F025FEEB7D9B070CD5D7
:10650000142F07D80123BB402E4A134202D12E4A32
:10651000134202D105200CF0F3FF142628200AF0C4
:1065200087FC00200CF0C6F96C68297E2A7D6B7D03
:10653000687E00942C7B7443A4B20194EC8974436C
:10654000A4B20294022403940BF0AEFAA0208000BF
:1065500003F0D4FD0423A0461C4A05AC13701C4A6A
:10656000A3709146177042462670627002F0B8FA26
:10657000E07109F0E9FAA08009F0ECFAA07109F0E5
:10658000F5FAE07009F0BAFFA06009F0CDFF4B46C4
:106590001B78E06023744423EB5A201C637409F0D9
:1065A00059FF0C4B211C1868142205F029F80A48E1
:1065B00003F0D2FF0BB00CBC90469946F0BDC0462C
:1065C000C02400207FFF100080000F003534002021
:1065D000583400205C34002018430200F0B54746D0
:1065E000002380B4924D8AB0061C0F1C2B6408282F
:1065F00000D9D9E08F4A8300D3589F460AF08CF81F
:10660000002800D1D0E08C4803F0A6FF0AB004BCFB
:106610009046F0BD06200CF0F3F8002009F092FD42
:1066200005AC09200CF046F90420211C02F00CF8FE
:10663000059B022B00D1F2E0804BA6701E70804BB0
:1066400098461F7014232370123B637002F048FABF
:10665000E07109F079FAA08009F07CFAA07109F0E4
:1066600085FAE07009F04AFFA06009F05DFF43463B
:106670001B78E06023744423EB5A201C637409F0F8
:10668000E9FE704B211C1868142204F0B9FF6E4813
:1066900003F062FFBAE76D4B187809F0ADFF03070E
:1066A00000D183E08020400109F054FF00287DD113
:1066B000EB7D9B0702D503200CF096FE644803F0A7
:1066C0004BFFA0E78020800309F03CFFB020800052
:1066D00009F030FF0CF0B4FF0AF016F800224C234A
:1066E0000120EA5209F02EFD0CF054F8002803D1E5
:1066F00005300921FFF772FF0CF0A2FF05AC9BE704
:10670000002009F01FFDEB7D9B070CD5142F07D847
:106710000123BB404F4A134202D14F4A134202D1D8
:106720000A200CF061FE28200AF082FB00200CF009
:10673000C1F805AC80E700230020AB6409F002FD3E
:10674000EB7D9B070CD5142F07D80123BB40414A92
:10675000134202D1404A134202D105200CF0D0FE70
:106760001424A046444628200AF062FB00200CF0C6
:10677000A1F86B7D297E9C466B682A7D687E00931C
:106780002B7B63439BB201934346EC895C4302231A
:10679000A4B20294039363460BF086F9A020800014
:1067A00003F0ACFC05AC47E705AC45E709F0D2F9CE
:1067B0002B78834200D97BE71424A04680204446EE
:1067C000800309F0BFFE012009F0BCFC6B7D297E2F
:1067D0009C466B68EA7C687E00932B7B63439BB28C
:1067E00001934346EC895C430323A4B202940393D0
:1067F00063460BF059F909F087FFA02000224C23D3
:106800008000EA5203F07AFC0BF08EFF05AC002802
:1068100000D011E705300921FFF7E0FE0CE7002169
:10682000042001F03FFE8020400109F083FE03E7D1
:10683000C0240020584202003C43020035340020AE
:10684000583400205C34002018430200242000202B
:10685000284302007FFF100080000F00F0B5071CE6
:1068600080200024254D87B080032C6409F06AFE47
:10687000B020800009F05EFE0CF0E2FE09F044FF5B
:106880004C230120EC5209F05DFC0BF083FF002843
:1068900003D105300921FFF7A1FE0CF0D1FE022340
:1068A000174A184E1370142201AC22706370A37043
:1068B000377002F015F9E07109F046F9A08009F08F
:1068C00049F9A07109F052F9E07009F017FEA060D3
:1068D00009F02AFE3378E06023744423EB5A201C2D
:1068E000637409F0B7FD084B211C1868142204F0EA
:1068F00087FE064803F030FE07B0F0BDC02400203C
:1069000035340020583400205C3400201843020045
:1069100070B586B0041C0AF057F9012009F012FC8A
:1069200014200AF085FA09F047FD2C4D002808D103
:10693000AB7C032B05D009F049FD201CFFF7D0FDEF
:1069400045E0002300202B6409F0FCFBEB7D9B0756
:1069500009D5142C3DD80123A340214A134238D134
:10696000204A134235D028200AF062FA00200BF0AA
:10697000A1FF03231C4A1D4E13701422347001AC76
:106980002270123A6270A37002F0AAF8E07109F066
:10699000DBF8A08009F0DEF8A07109F0E7F8E070FC
:1069A00009F0ACFDA06009F0BFFD3378E06023740E
:1069B0004423EB5A201C637409F04CFD0C4B211C42
:1069C0001868142204F01CFE0A4803F0C5FD06B046
:1069D00070BD0A200CF008FDC5E7C046C0240020A9
:1069E0007FFF100080000F00353400205834002055
:1069F0005C34002018430200F0B587B009F040FF76
:106A0000032814D002250238A843C4B2002C01D0B8
:106A100007B0F0BD03200CF0E7FC3E4E3378072BA7
:106A200010D0082BF4D10620FFF75AFDF0E7394EBD
:106A30003378072B46D0082BEAD101200521FFF738
:106A4000CDFDE5E7344F00203C6409F07BFBFB7D86
:106A50001D4202D00A200CF0C7FC28200AF0E8F9F9
:106A600000200BF027FF062203232C4D01AC2A70D7
:106A70000E322270123A33706270A37002F030F856
:106A8000E07109F061F8A08009F064F8A07109F0E4
:106A90006DF8E07009F032FDA06009F045FD2B783B
:106AA000E06023744423FB5A201C637409F0D2FC79
:106AB0001B4B211C1868142204F0A2FD194803F096
:106AC0004BFDA5E780200024134F80033C6409F0B0
:106AD00039FDB020800009F02DFD0CF0B1FD09F06A
:106AE00013FE4C230120FC5209F02CFB0BF052FE4C
:106AF000002803D105300921FFF770FD0CF0A0FD3F
:106B000005220223054D01AC2A700F32337022702A
:106B10006370B2E735340020C024002058340020D0
:106B20005C340020184302000120024BDB7D18403A
:106B30007047C046C0240020014B188A7047C046E9
:106B4000C0240020014B186D7047C046C0240020AF
:106B50003023014AD05C7047C0240020014B1878D4
:106B60007047C04635340020014B18787047C04646
:106B70005834002070B514260A4C84B06568217E14
:106B8000E27C637D607E0095257B7543ADB2019507
:106B9000E4897443A4B20294012403940AF084FFAC
:106BA00004B070BDC024002010B584B06C460D2325
:106BB000A170110AE2702171110C120E2370617123
:106BC000A271607002F04EF8020AE0712272020CAB
:106BD000000EA0726846627209F03CFC034B6946E5
:106BE00018680D2204F00CFD04B010BD5C340020C8
:106BF000142310B586B001AC2370123B6370134BA5
:106C00001B78A37001F06CFFE07108F09DFFA0807D
:106C100008F0A0FFA07108F0A9FFE07009F06EFC79
:106C2000A06009F081FC0A4B0A4A1B78E0602374DB
:106C30004423D35A201C637409F00CFC064B211C1E
:106C40001868142204F0DCFC06B010BD35340020B6
:106C500058340020C02400205C340020142330B5B8
:106C600087B001AC23700A3B6370164B164D1B783E
:106C7000A3705423EB5CE3702B6D029309F074FC5A
:106C8000E0810AF0FBFD437802781B021343238165
:106C9000C37882781B0213436381437902791B0214
:106CA0001343A3815523EB5C201C2374AB6D6374E9
:106CB00009F0D0FB054B211C1868142204F0A0FC3D
:106CC00007B030BD35340020C02400205C340020E3
:106CD00010B584B06A4610231370053B537001F061
:106CE000C1FF6B46020AD8701A71020C000E5A716D
:106CF000987101F0AFFF6B469870002001F0B8FF6B
:106D00006B46D871000A1872012001F0B1FF092307
:106D10006B441870000A58700AF05CFD6B46D8721C
:106D20000AF06CFD6B46187302F0FCFF041C03F0C4
:106D300039FA0F2318406B462401204358736846E4
:106D400009F088FB034B69461868102204F058FCD0
:106D500004B010BD5C34002038B5C2221F4C5C2347
:106D6000251CE2541733E35C5C35EB711C4B1B783C
:106D7000AB7008F0E9FE64210CF0A8FD68700AF021
:106D80007DFD0123C3562B720323C3566B7205236B
:106D9000C356AB7209F0C8FB231C020A5F3318709C
:106DA0005A70020C000E9A70D87009F0A7FB231CD1
:106DB000020A673318705A70020C000ED870211C3A
:106DC000201C9A70743106226B300CF079FF281C5D
:106DD000172109F055FB281C38BDC046C0240020EF
:106DE0003534002008B50349062274310CF068FFE1
:106DF000002008BDC02400205423014AD05470470D
:106E0000C024002008B5154B1A78824222D0187091
:106E100000280FD096228020114B5200C0001A602B
:106E200009F090FB0F4BDB7D9B070FD40E4803F05E
:106E300093FB08BD8020C00009F07CFB094BDB7D83
:106E40009B07F6D506200CF0CFFAF2E705200CF0F0
:106E5000CBFAEBE7054803F07FFBEAE76434002058
:106E600054340020C02400205C4302004843020048
:106E7000014B18787047C04664340020F0B54D4689
:106E80005F4656464446F0B4002483468D4891B090
:106E900003608D4806AF01608C498146181C0A705A
:106EA0003C7008F0B1FE8A4B0BAD98461C64894BD0
:106EB000894E1C7014232B70123B6B70307082460D
:106EC000AC7001F00DFEE87108F03EFEA88008F0FD
:106ED00041FEA87108F04AFEE87009F00FFBA860B7
:106EE00009F022FB337842462B744423D35AE860DE
:106EF000281C6B7409F0AEFA784E291C14223068F5
:106F000004F07EFB764803F027FB42467323D454FB
:106F1000744B09A81C705B4614653360D467047019
:106F2000FFF73EF9404625210622694474300CF0F3
:106F3000C7FE09F0D9FA08F07BFF09F0C9FB09F098
:106F40000BFE09F061FA09F0FFFC0CF0B3FA09F04E
:106F50003BFE01F051F9002800D1A6E0172601F010
:106F600091FD002409F030FE6E4412E0032800D1A8
:106F70007EE0002809D108A9201C01F065FB381C1F
:106F8000211C089A0023FFF70FF90134E4B2322CD8
:106F900012D0201C01F0E0F90228E7D1201C311C9E
:106FA00001F012FB211C01343278381C0023E4B2BA
:106FB000FFF7FAF8322CECD1444609F005FE4A48B6
:106FC0000A2109F01BFE43466468197EDA7C587E6C
:106FD0005B7D009444461426257B7543ADB2019534
:106FE000E4897443A4B20294032403940AF05CFD80
:106FF00009F0EAFD0BF026FA00285BD15046FFF7B6
:1070000087FC022009F09EFA01F024FE07231840B5
:10701000C00509F097FA354CA06809F04FFA00282E
:1070200031D0802009F070FAA268537892789901E3
:107030003F2313400B43552241468B54042007A99C
:1070400001F002FB8020079B4001022B36D009F0A3
:1070500071FA4B461B68DB0303D54346DB7D9B0778
:107060001FD411B03CBC90469946A246AB46F0BD39
:10707000291C201C01F0C8FA381C211C00222B1CE2
:10708000FFF792F881E702F041FEF0231840B028A4
:10709000D4D102F03BFE0F23424618404633D05471
:1070A000CCE701200CF0A0F9DBE70130FF3009F05C
:1070B0002BFA53E7042009F027FA9FE709F042FA78
:1070C000C7E7C0465034002060340020343400202C
:1070D000C024002035340020583400205C340020C7
:1070E00018430200643400204025002024200020A2
:1070F000142310B586B001AC6070201C237009F019
:10710000A9F9044B22781868211C04F079FA06B01A
:1071100010BDC0465C34002008B5044B1B78042B1E
:1071200001D0012008BDFFF73DF9C04635340020ED
:1071300008B5114B1B78DA1E012A08D90F4BDB7DED
:107140009B0700D408BD03200CF04EF9FAE7032B8F
:107150000CD00B4803F000FA002009F009F909F0FF
:1071600015FD03F04FF903F063F9EBE7034B212022
:10717000596B01F097F9ECE735340020C02400206A
:1071800070430200F0B58FB003236A46041C0D1C47
:10719000937009F093F900282BD0142D32DC22785B
:1071A000AA421DD1032A00DCABE1D948211C0CF016
:1071B00087FD63785AB2002A00DA8EE1D54AD25CA4
:1071C0006B469B789A4224D3201C01F0ABFC00282C
:1071D00016D06378132B13D8CF4A9B00D3589F4601
:1071E000CE4803F0B9F9012401F022FD201C0FB0B4
:1071F000F0BDCB4803F0B0F9012401F019FDF5E72B
:107200000024F3E7C74803F0A7F9012401F010FDBB
:10721000ECE7C54803F0A0F90024E7E7A07802F006
:10722000B9FF0024E2E702F0ABFF0024DEE7A0781C
:107230000CF0DAF80024D9E71420A378002458438E
:107240000CF08AF9D2E702F0B1FF0024CEE700F09B
:1072500053FF0024CAE7102309AC2370053B637079
:1072600001F000FD2723020A6B4418705A70020CCB
:10727000000E9A70D87001F0EDFCA070002001F0B3
:10728000F7FC2B236B441870000A5870012001F0A2
:10729000EFFC2D236B441870000A58700AF09AFA1C
:1072A000E0720AF0ABFA207302F03CFD051C02F01C
:1072B00079FF0F232D01184028436073201C09F02B
:1072C000C9F89A4B211C1868102204F099F900247F
:1072D0008CE7142309AC23700A3B6370944B954DE3
:1072E0001B78A3705423EB5CE3702B6D0A9309F0B9
:1072F0003BF9E0810AF0C2FA437802781B0213439B
:107300002381C37882781B02134363814379027916
:107310001B021343A3815523EB5C2374AB6D637491
:10732000201C09F097F8814B211C1868142204F0E6
:1073300067F900245AE77E4B1B78DA1E012A00D831
:1073400036E17C4B0024DB7D9B0700D44EE7032015
:107350000CF04AF84AE7764B1B78042B00D143E146
:107360000D22002109AC2270063A62700132A2702F
:107370001F326A4413701B0E51709170D37001F06C
:1073800071FC2B23020A6B4418705A70020C000E19
:107390009A70D870201C09F05DF8644B211C1868A5
:1073A0000D2204F02DF9002420E7634803F0D4F8FF
:1073B00000241BE70E20FFF7ABFA002416E76B460C
:1073C000A1789878DA1D00F0D3FF002800D0C9E03A
:1073D0006A460D231371093B5371A37801A8937179
:1073E00009F038F8514B01A918686B461A7904F076
:1073F00007F90024FAE66B4698782379E6786279F3
:107400001B02334312041D1C131CA2792B431206CA
:10741000257A1A43E779637A2D023D431B042B43F7
:107420001D1CA37AA1781B062B4300F0E9FF00285E
:1074300000D1A1E00D23A27809AC2370063B637054
:10744000043BA370243300216B441A70120E597050
:107450009970DA7093E7364B00241B78042B00D028
:10746000C4E609F0B1FB01200421FFF7B7F809F0E9
:107470008DFBBBE6142309AC2370123B63702C4BCD
:107480001B78A37001F02CFBE07108F05DFBA0807D
:1074900008F060FBA07108F069FBE07009F02EF8BD
:1074A000A06009F041F8254B224A1B78E060237464
:1074B0004423D35A33E71E4B1B78032B04D0053BE0
:1074C0000024012B00D991E609F07EFB0420FFF790
:1074D000C5F9002409F05AFB88E6201C05A96A4674
:1074E00001F030FB002873D16B469B78012B32D022
:1074F000022B29D0124803F02FF86B4605AC5B7DB8
:107500005CE601240F4803F027F864426EE6C046AB
:107510003C340020F44202007C420200944302000A
:107520007C43020088430200E44302005C340020F4
:1075300035340020C0240020D043020058340020FD
:10754000B4430200F0430200284803F005F86B46FC
:1075500005AC5B7D32E6264802F0FEFF6B4605ACCB
:107560005B7D2BE60D23A27809AC2370063B63708C
:10757000033BA370233366E72379E2781B021343AE
:107580006279181C1204131CA279034312061A43D1
:10759000A178E31C6846FEF707FE002800D049E703
:1075A0000D23A27809AC2370073B6370033B48E7C7
:1075B000032B13D00F4802F0CFFF002008F0D8FEB5
:1075C000002409F0E3FA02F01DFF02F031FF0DE69E
:1075D0000224094802F0C0FF644207E6074B21205D
:1075E000596B00F05FFFE5E7FEF7DCFEAC430200FD
:1075F000A043020070430200C0430200C0240020E8
:1076000008B5884200D008BD044909789142FAD1F2
:10761000181C0121FEF7E2FFF5E7C04635340020D3
:10762000A0233F4ADB00D058421E90413D4AD35828
:10763000002B01D002231843A0233B4ADB00D35880
:10764000002B01D004231843A023364ADB00D35873
:10765000002B01D008231843A023334ADB00D35862
:10766000002B01D010231843A0232E4ADB00D3584F
:10767000002B01D0202318432C4B1B68002B01D07A
:1076800040231843294B5B68002B01D0402318434B
:10769000264B9B68002B01D040231843234BDB680B
:1076A000002B01D040231843A023214ADB00D358EC
:1076B000002B01D080231843A0231E4ADB00D3589F
:1076C000002B02D08023DB0118438023DB05DB6F16
:1076D000002B02D080231B021843A223134ADB0095
:1076E000D3589B0702D080235B021843124B0F4AEA
:1076F000D3589B0702D080239B021843A3230B4A35
:10770000DB00D3589B0702D08023DB0218430B4BCE
:10771000064AD3589B0702D080231B0318437047A7
:107720000020004000400040003000400060004069
:107730000070004000200140140500001C050000FE
:10774000F0B546464F46C0B4061C87B0012008F08D
:107750006DFCBC4D002E00D1B8E009F035FA0AF0FE
:107760006DFD08F031FC002800D196E0042008F0FF
:10777000F1FE002800D1B4E008F02AFC002800D176
:1077800087E0082008F0E6FE002800D1B4E009F008
:1077900003FB09F045FBAC4F041C3B78092B23D8B5
:1077A000AA4A9B00D3589F4608F010FE002800D13B
:1077B00060E32B6C1E2B17D9282009F039FB08F049
:1077C00005FE002800D160E302200BF019F80B2021
:1077D000FFF744F8032000F0C7FEEB7D9B0700D5C0
:1077E000A6E3002008F022FC994B9946994B984655
:1077F00008F09AFE6B6B18436863B020800008F0B5
:10780000A9FE4346441EA0419B7BC4B2A34211D0B3
:10781000002C03D03B78032B00D1A2E18E4802F06C
:107820009BFE4B461B78002B56D00020FEF7BAFC7F
:1078300043469C734B461B78002B3DD043461B6947
:10784000002E2ED0002B00DCB6E1032B00D1E0E1AE
:10785000052B00D148E1387809F0ACF8002E05D1AD
:10786000EB6F0133EB67142B00D186E109F0C0F90F
:10787000002801D009F08AF9002008F0D7FBFFF7B3
:10788000CFFE002008F0D2FB07B00CBC9046994612
:10789000F0BD082008F04EFE79E7042008F04AFE0B
:1078A0006AE74246013B1361CCE701200AF06CFA1B
:1078B000201CFFF7A1F897E708F036FEC307CAD5EA
:1078C000012008F037FE02F0A7FBC4E72B6C013360
:1078D0002B640BF0DBFE40E7A020800002F00EFCE2
:1078E000A3E7043008F02EFEEB7D9B0700D443E7AE
:1078F00007200BF079FD3FE7083008F023FE46E74C
:10790000122800D1F1E28020800308F023FE002835
:1079100004D02B6CAA6B934200D9F2E14C4B9946F0
:107920001B78002B00D008E2002E02D1AB6C013393
:10793000AB6408F03BFC00280FD19623AA6CDB0057
:107940009A420AD93B78DA1E012A00D8BEE2EB7DC2
:107950009B0702D503200BF047FD0420694600F089
:1079600073FE8020009B4001022B00D10EE208F044
:10797000E1FD384B98463BE72B6C142B00D833E7DE
:1079800038E008F0D5FA4423E8528020C00308F01C
:10799000E1FD9123002801D0A0235B002A6C9A42CC
:1079A00000D9E0E14423AA68EB5A934200D875E17C
:1079B0008020C00308F0CEFD2B6C002803D0274A9E
:1079C000934200D810E7264A52889A4200D30BE728
:1079D0004C22AB5A01339BB2AB52EA8F9A4200D38E
:1079E00002E702200AF00CFF0D20FEF737FF03200C
:1079F00000F0BAFDEB7D9B0700D4F5E6144B9946E9
:107A0000144B984603200BF0EFFCF1E68020C003F6
:107A100008F0A0FD124B9B88002801D078339BB260
:107A20002A6C934200D323E1022008F093FD002842
:107A300000D145E105200AF0E3FE0220FEF750FDEB
:107A4000D2E6C046C024002035340020CC420200DB
:107A50006434002040250020284402005702000022
:107A600024200020122800D144E28020800308F066
:107A700071FD002804D02B6CAA6B934200D936E12B
:107A8000DA4B99461B78002B00D03FE18020800222
:107A900008F060FD002800D174E10420694600F080
:107AA000D3FD8020009B4001022B00D17BE108F038
:107AB00041FDCF4B98464B461B78002B00D097E6F4
:107AC00008F074FB002800D092E62B6C2A6A9342DF
:107AD00000D8A7E13B78DA1E012A00D80FE2EB7D3F
:107AE0009B0700D484E68DE701AC0B332370053B84
:107AF000637001F0B7F86B46020AD8711A72020C73
:107B0000000E5A72987201F0A5F8A070002001F0E2
:107B1000AFF80B236B441870000A5870012001F075
:107B2000A7F80D236B441870000A587009F052FE34
:107B3000E07209F063FE207302F0F4F8814602F06F
:107B400031FB0F224B4610401B0118436073201C71
:107B500008F080FCA74B211C1868102203F050FD90
:107B600079E6A54802F0F8FC4B461B78002B00D1C3
:107B7000B9E00420FEF716FB5AE62B6DEE670133E1
:107B80002B6508F079FD00F0B1FF07F0F5FFC10F9C
:107B90000918481001B2404609F036F83D23EB566B
:107BA000C0183C23EB56A865984200DC96E0802084
:107BB000C00308F0BFFC59E6142301AC99462370BA
:107BC000022363703B78A37000F08AFFE07107F036
:107BD000BBFFA08007F0BEFFA07107F0C7FFE070F9
:107BE00008F08CFCA06008F09FFC844BE0601B78E0
:107BF000201C23744423EB5A637408F02BFC7D4B48
:107C000014221868211C03F0FBFC43464A461A6103
:107C100021E601AC113323700A3B63703B78A370FB
:107C20005423EB5CE3702B6D029308F09DFCE08124
:107C300009F024FE437802781B0213432381C378A2
:107C400082781B0213436381437902791B02134339
:107C5000A3815523EB5C201C2374AB6D637408F087
:107C6000F9FB644B211C1868142203F0C9FCF2E5EF
:107C70000AF01CFD00282CD108F09EFB002803D040
:107C80002B6C1E2B00D9DDE008F0A0FB002800D1F2
:107C9000AAE501200AF0B4FD0320CFE60AF006FDB4
:107CA000002800D180E507200AF0AAFD0C20FEF78D
:107CB000D5FD99E5022000F057FC032000F054FCAC
:107CC00005200221FEF78AFC484B9946484B98460E
:107CD0008EE507200AF094FD0720E8E78020C00326
:107CE00008F030FCC2E5A02002F008FA41E709F0F4
:107CF000CBFD8020800308F01DFC414802F02CFCE5
:107D0000BEE68020800308F015FC07E600F0E8FEE0
:107D1000022800D0BAE65423EA561623EB569A42BC
:107D200000DCB7E0022C00D0B0E63B78032B00D09B
:107D3000ACE60121FEF752FCA8E600F0D1FE0228D5
:107D400060D04B461B78002B00D1EDE50023AB64DF
:107D500008F02CFA002800D0FFE52B6CEA6A934269
:107D600000D8FAE5EEE5022008F0F4FB0028A1D0E7
:107D700005200AF045FD0220FEF754FB022000F02A
:107D8000F3FB31E5013009F0FFFF86E608F0DAFB8E
:107D90002B6C0A2B00D8ECE501200821FEF71EFC15
:107DA000134B984624E508F0CDFB2B6C0A2B00D82A
:107DB0007FE60820FEF752FD0D4B2A8D9846002ADB
:107DC00000D178E641469B8901339BB28B819A4270
:107DD00000D970E60021042000F064FB80204001FF
:107DE00008F0A8FB00234246938164E66434002037
:107DF000402500205C3400201C4402005834002040
:107E0000044402005423EA561623EB569A424FDDEF
:107E1000022C96D13B78042B93D10138011CFEF73C
:107E2000DDFB8EE707F096FE6B78834200D8DFE437
:107E3000C8232A6C5B009A4200D8D9E41420FFF7CB
:107E400077F9D5E4012008F0F1F8012008F07AF97B
:107E5000282008F0EDFF08F0AFFA002815D0052023
:107E60000AF0CEFC05200A21FEF7B8FB012008F03D
:107E7000DDF8B6E408F0A0FA00284FD14C23E85210
:107E8000304B9946304B9846B2E48020C00108F050
:107E900059FBA6E4022C00D0F8E52C4802F05CFB6C
:107EA000EB7D1C4200D1F1E503200BF09DFAEDE5DE
:107EB000022C00D045E7254802F04EFBEB7D1C422A
:107EC00000D13EE703200BF08FFA3AE7032B2AD0CC
:107ED0001F4802F041FB002008F04AFA08F056FE65
:107EE00002F090FA02F0A4FA37E508200121FEF72B
:107EF00075FB08E507200121FEF770FBB5E5032BB4
:107F00001AD0134802F028FB002008F031FA08F0DC
:107F10003DFE02F077FA02F08BFA69E401200AF0E4
:107F20006FFC032028E7696B213000F0BBFACFE734
:107F300003200BF059FA54E4696B213000F0B2FAD7
:107F4000DFE7C04664340020402500200C440200D6
:107F50007043020008B50078FFF7F2FB08BDC04689
:107F6000014A024B1A607047FFFF000054250020B1
:107F7000FF2130B5084C23681D0A0D401A022B1C46
:107F800013434340D8B2000958400303584001400E
:107F900049014840206030BD54250020014B18881D
:107FA0007047C04654250020F0B50378164F9C4614
:107FB0006246164B961E36043B60360C21D0041CDC
:107FC000FF258619190A29401B020B432178013429
:107FD0005940CBB21B094B401A035A402B1C13408B
:107FE0005B015340B442EDD13B60DAB29BB21B0A55
:107FF00061464518013D2A700278801802380370E6
:10800000F0BDFF23FF22F3E754250020FFFF00000F
:10801000F0B50F4B0F4E3360002916D00025FF2717
:108020001C0A3C401B022343445D01355C40E3B223
:108030001B0963401A035A403B1C13405B01534029
:108040008D42EDDB336098B2F0BD181CFCE7C046F2
:10805000FFFF000054250020F0B589B00C1C051C62
:108060002349684620220BF02BFE002C03D1E80F99
:10807000800309B0F0BD002C2EDB02230020002D70
:1080800030DDA54203DC631B2D191C1C0130194B8C
:1080900007039D4201DC2D0324036B4600209A1C3C
:1080A000012307E0A41B1688013380194D19023201
:1080B0000C2B0DD0211C2E1C19411E41002CF1DA75
:1080C000A41916880133801B6D1A02320C2BF1D1D2
:1080D0008010C01980B2CCE76D42644206230420B0
:1080E000002DCEDC6A42181C251C141CC9E7C046B2
:1080F00034440200FFFF0000F0B5454657464E46A7
:108100003C4BE0B498461D1C012382B0002400279C
:10811000994606E00127013405F00AFC1035322C9F
:1081200023D02E78A642F5D1022C61D023014344FE
:108130009A78022A28D01FD8002A3AD19B689A46FA
:1081400008F056FD00284AD0360146445146F078E2
:1081500008F064FF061C0134374308F017FDFFB236
:1081600005F0E6FB1035322CDBD1381C02B01CBC0C
:1081700090469946A246F0BD032A1DD0FE2ACAD1D8
:108180004B461F43FFB2C6E79B689A4608F030FD96
:1081900000282AD06A4653463601D3714644F07807
:1081A000D17908F0ADFF061C374308F0EFFCFFB2B1
:1081B000B1E7012AE4D0AEE79B689A4608F018FDC3
:1081C00000280FD036014644F0785146524608F058
:1081D000ABFE061C374308F0D9FCFFB29BE708F062
:1081E000F3FCB1E708F0F0FCECE708F0EDFCD1E7B8
:1081F000002790E7544402002023F0B557464E462E
:1082000045469A46E0B400250026514F514C84B0B3
:10821000BA442378AB4232D0A378022B3DD0032B53
:108220005FD0002B0BD0012601351034322DF0D158
:10823000301C04B01CBC90469946A246F0BD0126F5
:1082400008F0D6FC002825D0E77801A9381C08F0F2
:108250003DFF08F09BFC019B62689342E4D9A37840
:10826000A668002BDFD108F0C3FC002863D0311CC6
:10827000381C08F0D3FE012608F088FCD4E7A37868
:10828000022B0BD0032B2DD0002BCDD108F0B0FC4E
:108290000028D9D108F098FCD6E7012608F0A8FC00
:1082A000002845D003236B449846E778191C381CF6
:1082B00008F06AFF08F06AFC434622791B789A426C
:1082C000B2D2A378267A022BADD108F091FC002817
:1082D00034D0311C381C08F013FF012608F056FC7E
:1082E000A2E7012608F084FC00282AD0E37802A93E
:1082F000181C984608F0D0FE08F048FC02A8514629
:1083000008220BF0B5FC002800D08DE7A368994641
:10831000A378032B00D087E708F06AFC002813D06D
:1083200049464A46404608F0FFFD08F02FFC7BE72F
:1083300008F04AFCB6E708F047FC98E708F044FC70
:10834000C7E708F041FCD1E708F03EFCE8E7C0468B
:108350005447020054440200FE23312801D9181C5E
:108360007047024B000118188378F8E75444020064
:10837000F0B5474680B4012482B0312908D81F4E99
:108380000D0177197B7801349B069B0F984204DD21
:10839000201C02B004BC9046F0BDBB789046002B78
:1083A0000CD108F025FC002820D07119C87841466E
:1083B00008F08CFE041C08F0E9FBE9E7022B1BD156
:1083C00008F016FC002814D06B467119DD1CC87823
:1083D000291C08F0D9FE041C08F0D8FB2B78404675
:1083E00001A9042201930BF06BFCD1E708F0ECFB30
:1083F000DBE708F0E9FBE7E70124C9E754440200A2
:10840000F0B54746161C80B401241F1C312909D839
:10841000234D0B01EA189846537801349B069B0FB5
:10842000984203DD201C04BC9046F0BD9378022BDB
:1084300011D0032B1CD00124002BF3D108F0D8FB62
:10844000002826D04544E878311C08F0E7FD041CDC
:1084500008F09CFBE6E708F0CBFB002816D045446B
:10846000E878F1B208F04CFE041C08F08FFBD9E765
:1084700008F0BEFB00280FD04544E878311C3A1CB8
:1084800008F052FD041C08F081FBCBE708F09CFBD0
:10849000E5E708F099FBD5E708F096FBECE7C04666
:1084A0005444020070B50125312805D80C4E040152
:1084B00033199B78002B01D0281C70BD0D1C08F0CF
:1084C00097FB002808D03019291CC07808F0A6FDB9
:1084D000051C08F05BFBEFE708F076FBF3E7C0460E
:1084E00054440200F8B50125312805D80D4F040188
:1084F0003B199B78032B01D0281CF8BD151C0E1CC2
:1085000008F076FB002809D038192A1C311CC078E5
:1085100008F00AFD051C08F039FBEDE708F054FBF4
:10852000F2E7C0465444020070B50125312805D851
:108530000C4E040133199B78022B01D0281C70BD0E
:108540000D1C08F055FB002808D03019291CC078F4
:1085500008F0D6FD051C08F019FBEFE708F034FB26
:10856000F3E7C0465444020070B5012582B03128BB
:1085700002D9281C02B070BD124E040133199B7839
:10858000002BF6D108F034FB002817D03019C5783D
:1085900001A9281C08F09AFD08F0F8FA019B5C1C60
:1085A00008F026FB002801D108F00EFB281C211C36
:1085B00008F034FD051C08F0E9FADAE708F004FBDE
:1085C000E4E7C0465444020070B50125312805D8BF
:1085D0000C4E040133199B78022B01D0281C70BD6E
:1085E0000D1C08F005FB002808D03019291CC078A4
:1085F00008F0CAFD051C08F0C9FAEFE708F0E4FA34
:10860000F3E7C0465444020070B50425312801D96F
:10861000281C70BD0B4E040133199B78032BF7D136
:108620000D1C08F0E5FA002808D03019291CC07884
:1086300008F032FD051C08F0A9FAE9E708F0C4FAD1
:10864000F3E7C0465444020070B50425312801D92F
:10865000281C70BD0B4E040133199B78002BF7D1F9
:108660000D1C08F0C5FA002808D03019291CC07864
:1086700008F02CFD051C08F089FAE9E708F0A4FAD7
:10868000F3E7C0465444020070B50125312805D8EF
:108690000C4E040133199B78012B01D0281C70BDAE
:1086A000151C08F0A5FA002809D03019291C202231
:1086B000C07808F0F9FB051C08F068FAEEE708F04E
:1086C00083FAF2E75444020070B50125312805D839
:1086D0000C4E040133199B78012B01D0281C70BD6E
:1086E000151C08F085FA002809D03019291C202211
:1086F000C07808F0BFFB051C08F048FAEEE708F068
:1087000063FAF2E754440200014B18707047C04608
:1087100058250020F0B54D465F4656464446F0B415
:108720000E1C371C8BB004AD111C041C9146281C78
:108730000822153F0BF0C4FAFBB2052B0CD8C44A33
:108740009B00D3589F462378002B43D001239B46A0
:108750000193002398461EE02278002A14D10023BA
:108760009B460193013398469A46BA4C4846211CD1
:1087700008220BF07DFA00283BD1FFB2052F47D825
:10878000B54BBF00DB599F46012B41D900239B46C7
:10879000019301339846331C173B012B00D873E03B
:1087A0000123193E9A46012E4CD94346002B2FD166
:1087B0005346002B30D0A94B032098461E78019BCE
:1087C0009E4200D196E00BB03CBC90469946A24632
:1087D000AB46F0BD01339B46019300239D4C984668
:1087E00048460133211C08229A460BF041FA002822
:1087F000C3D0211C4846083108220BF039FA002862
:10880000D3D1BAE72378002B46D06378002B01D16F
:108810000120D8E700239B46914B0020043306CD6E
:1088200006C35A468D4B1A70CDE700239A4623782B
:10883000002B11D0022301939B460023193E98463A
:10884000012EB5D86378022BAFD10120BBE70123FD
:108850009A462378002BEDD102339B4601930023E7
:10886000984682E72378002B28D06378002BCFD05E
:10887000002301939FE72378002B25D001239B46FB
:1088800063785B45C8D1C3E701239A466378012B1F
:1088900000D08AE7012096E76E4C4846211C08224A
:1088A0000BF0E6F90023019398469B469A46002870
:1088B0009FD12B1C103406CC06C376E79B46019350
:1088C000984601339A4650E701339B4601930023B3
:1088D00098469A4649E72B1C183406CC06C364E731
:1088E0002B1C283406CC06C35FE72B1C203406CC97
:1088F00006C35AE75B4B36249B46019B00215C4331
:108900005B461B19597401339946554B0822191DB2
:1089100048460BF0D5F9201C5844291C0822093080
:108920000BF0CEF94B4C06AD211C281C3031102227
:108930000BF0C6F94A4B1B7B9A46002B60D03627BA
:108940005B4677434846DE551021FFF761FB5B46E7
:10895000DB19988200220193231C141C9A460223DF
:1089600016375F442B706C70002E1FD10F33AB7025
:1089700002AA94461A233A4963441431181C062269
:108980000BF09EF95146381C4A462B1C403101F031
:1089900031F80122019B10375A741033012C0AD090
:1089A000012402236C702B70002EDFD0012E45D0E5
:1089B0003323AB70DCE75246191C1D1CA2460F2363
:1089C000141C4246137000238B70211C4846103142
:1089D00010220BF04DF9002801D15246AA70211C3B
:1089E0004846203110220BF043F9031C0020002BD5
:1089F00000D0E8E636335E43353B5E44B374E2E6CE
:108A000002ABDF1D534652463B70174B13201A70C2
:108A1000134B191C10315A73FFF716FE38701048AB
:108A20001430FEF7DFF93B782020002B09D007F047
:108A300073FD52460A4B1A733B7880E72223AB70D2
:108A400096E707F061FD0123054A13733B7876E74B
:108A5000004B0200304B0200184B02003020002077
:108A60005825002068340020D4340020014B98762B
:108A70007047C04658250020014B987E7047C0467D
:108A80005825002070B5114D82B06B46291C002678
:108A9000DC1D0F4B103113201E7026706E73FFF714
:108AA000D3FD2070281C1430FEF79CF92378202079
:108AB000002B06D007F030FD2E732078C0B202B034
:108AC00070BD07F021FD01232B73F6E75825002028
:108AD000D4340020014B187B7047C0465825002035
:108AE000014B18787047C046D434002010B5FEF70B
:108AF000BFF9002804D0094C2378002B03D010BD07
:108B0000064B1870FBE701F0EBF8002803D1044B8B
:108B10009B7E002BF3D104232370F0E7D434002094
:108B200058250020064B1A78042A04D142780F2ACF
:108B300003D0042A01D00120704702221A70FAE7FC
:108B4000D4340020F0B55F464D4644465646F0B456
:108B50000024354D8DB02B7B09940A940B9404941A
:108B60000594069407940127002B07D1381C0DB0FB
:108B70003CBC90469946A246AB46F0BD914602AA3F
:108B80000391061C9446291C1E206B691031089322
:108B90002B8B6044938304220BF092F87378B11C02
:108BA0009A093A40924603221B09504693461A40BE
:108BB00036234343561C90463201D3181B4A04A85F
:108BC0009B1808AA00920633102200F025FF04A883
:108BD00007F074FC002814D14B465A469A7042465E
:108BE0001F705A702B78002B01D10327BEE76A7BD8
:108BF0000132D2B26A739342F7D801F003FC032723
:108C0000B4E71320FFF7B0FC2B691022013303985F
:108C100004A92B610BF054F84B4652461F709E700E
:108C20005A706C730027A1E7582500206834002093
:108C300008B5074A537B0133DBB253731278002A1D
:108C400001D0934200D208BD01F0DCFBFBE7C04637
:108C500058250020024B987E431E984102307047F1
:108C600058250020014B18697047C0465825002040
:108C70000022022807D8362343430548C318597CED
:108C80001033012901D0101C70479A88FBE7C046B9
:108C9000683400200023022808D836335843044B98
:108CA0001818437C013B58424341DBB2181C704703
:108CB000683400200B4A0020537C917C012B0DD09E
:108CC0004823D35C59424B415B4218404723D35C55
:108CD000013B5A4253415B42184070474842484169
:108CE000C0B2EDE768340020014B18617047C04600
:108CF00058250020F0B54F4646462F48C0B40368BB
:108D00009A0737D11A6842605A6882609A68DB68AD
:108D1000C2600361847C031D027C417CC77C03200C
:108D200080462648A14604258446254E40462842D2
:108D300009D1F45D705C4946A1466446B75CAA0857
:108D4000A25C715C424018789C78424058780135AA
:108D5000414048466040DC781A747C4059749874ED
:108D6000DC74271C043381462C2DDFD10CBC9046CB
:108D70009946F0BD1A7802715A7842719A788271D8
:108D8000DA78C2711A7902725A7942729A798272C9
:108D9000DA79C2721A7A02735A7A42739A7A8273B1
:108DA000DA7AC2731A7B02745A7B42749A7B827499
:108DB000DB7BC374AEE7C04674250020804C020004
:108DC000804B0200F0B544465F4656464D46964BF2
:108DD000F0B45B6B954A9846A423D25C43461B785B
:108DE0008DB0534042461370A523904AD25C43464F
:108DF0005B78534042465370A6238C4AD25C43466C
:108E00009B78534042469370A723884AD25C4346DE
:108E1000DB7853404246D370A823844AD25C434651
:108E20001B79534042461371A923804AD25C4346C2
:108E30005B79534042465371AA237C4AD25C434635
:108E40009B79534042469371AB23784AD25C4346A8
:108E5000DB7953404246D371AC23744AD25C43461B
:108E60001B7A534042461372AD23704AD25C43468C
:108E70005B7A534042465372AE236C4AD25C4346FF
:108E80009B7A534042469372AF23684AD25C434672
:108E9000DB7A53404246D372B023644AD25C4346E5
:108EA0001B7B534042461373B123604AD25C434656
:108EB0005B7B534042465373B2235C4AD25C4346C9
:108EC0009B7B534042469373B323584AD25C43463C
:108ED000DB7B53404246D373544B943309931023A6
:108EE00043440A93547A577B009491799378907A0B
:108EF000557956780191917B9A460291D179D37830
:108F00000391D17A0491D17B059111788C46644606
:108F100047490C5DA14614701479A4460C1C6146A7
:108F2000645C1471A346147AA4466146404C645CA8
:108F300006941472147BA44661463D4C645C07940D
:108F40003B491473CF5D8E5D5770B8460F1C7D5D35
:108F5000089656710B955572009C354F344D3F5D08
:108F60002D5C0097577395700299AC46304D304F89
:108F70006D5C51467F5C957197720199BA462C4F92
:108F80002B4C795C917303983F5CD7700498284E02
:108F9000245CF35CD4710598305C4E46D07201932A
:108FA000D373099B1B78734046461370099B5B780B
:108FB000734066465370099B9B7873409370099E7B
:108FC000F3785F40D7703379371C5E467340137176
:108FD0007B79089E5E405671BB795D409571FB7947
:108FE0005C40D4713B7A069E734013720B9D7B7A72
:108FF0006B4055465372BB7A6B409372FB7A584074
:10900000D072381C3B7B079C634013737B7B009FB3
:109010007B405373837B594091730199C37B4B40D1
:10902000111CD3730B9205E0F42500207425002059
:10903000804D02000B789A464B781C1C8B78039469
:109040009846CB7800935346D80942008218D00046
:10905000121858004240D2B2101CD6094346720082
:10906000B218D6000490921940004240D5B2E809E7
:1090700042008218D00012186800E6094240D7B2B8
:109080007200B218D600600092194240D6B205951F
:10909000F5096A00AA18D500700052194240D5B2ED
:1090A000E80942008218D000121868004240D4B289
:1090B0000894DC096200A218D40058001419444036
:1090C000E4B2E00942008218D00012186000424069
:1090D0000297D7B2F8094200009B8218D000079788
:1090E00012187800DF09424078003818C700C0190C
:1090F0005F007840C0B2C30999465F004F44FB004F
:1091000099460696B944D6B201964E4647007E402F
:10911000F3B29946DB099C465F006744FB009C461E
:109120004B46BC4466465F007E40F3B2049F059EFA
:10913000079A7740BB46464656405A467240934689
:109140009C465B46069A039F029E57405F40089AE2
:109150007740019E574077406646009B5E407740CF
:109160000F704F46009B069E5F406E407E40474614
:10917000634667407E40019F56407E405E405346B6
:10918000029F7B405E4053464E70059E079F5E40A7
:10919000009B7C4043407440029E5C40019B7440B5
:1091A0005C406346039F5C403B1C53405C404B4625
:1091B000434050468C70049C7D4044406B4063406B
:1091C00073405340624653404246019850404340EA
:1091D000CB700A9B04318B4200D02BE7099B564988
:1091E000103B0B9A09938B4200D07BE69046464693
:1091F000524F3678131CBE5D4746507A54795578E5
:109200009178DB7892793E703E794C4FEDB2BE5D3D
:1092100047463E713E7A494FE4B2BE5D47463E72D4
:109220003E7B464FC0B2BE5D47463E737E7B434F9A
:10923000C9B2BE5D47467E70404ED2B2755DDBB2AC
:109240007D713E4D2C5D7C723C4C205C3B4C7873B8
:10925000B87A205C394CB870B87B205CB87137485C
:10926000415CB97235498A5C3449BA73FA798A5CCF
:109270003249FA70FA7A8A5C3049FA71FA7B8A5C70
:10928000FA722E4AD35CFB732D4B1A793B7853400C
:109290003B702B4B5A797B7853407B70284B9A79E3
:1092A000BB785340BB70264BDA79FB785340FB7098
:1092B000234B1A7A3B7953403B71214B5A7A7B7985
:1092C00053407B711E4B9A7ABB795340BB711C4B48
:1092D000DA7AFB795340FB71194B1A7B3B7A534086
:1092E0003B72174B5A7B7B7A53407B72144B9A7BB1
:1092F000BB7A5340BB72124BDA7BFB7A5340FB7252
:109300000F4B1A7C3B7B53403B730D4B5A7C7B7B52
:1093100053407B730A4B9A7CBB7B5340BB73084B17
:10932000DA7CFB7B5340FB730DB03CBC9046994606
:10933000A246AB46F0BDC04678250020804D020015
:1093400074250020F0B55F4656464D464446F0B4BD
:10935000FC4BFD4A5B6B11791A788BB04A401A704E
:10936000F94A51795A784A405A70F74A91799A786D
:109370004A409A70F44AD179DA784A40DA70F24A6F
:10938000117A1A794A401A71EF4A517A5A794A4049
:109390005A71ED4A917A9A794A409A71EA4AD17A99
:1093A000DA794A40DA71E84A117B1A7A4A401A722D
:1093B000E54A517B5A7A4A405A72E34A917B9A7A3B
:1093C0004A409A72E04AD17BDA7A4A40DA72DE4A3F
:1093D000117C1A7B4A401A73DB4A517C5A7B4A4003
:1093E0005A73D94A917C9A7B4A409A73D64AD47C64
:1093F000DA7B54401A7890461A7992461A7A089283
:109400005A781F7B00925A7903929A785E7A5D7B34
:10941000099299790491997A0691CB49D87889462D
:1094200014218C46C949E1448B4610218C469C444A
:1094300061469A7B0290D8790590D87A0792089A6B
:1094400001919446099A49469946069B0690201C2C
:109450004446904608915A46145D4A465146147057
:109460005A46545C4A46614614715A46545C4A4610
:1094700014725A46D45D4A4614735A460099525C97
:109480005946895D00928C4659464C5D4546495D7A
:10949000079A8A465946CF5C5B46049D8E5C4D5DBB
:1094A0000299059A5B5C59460293069B8A5CCB5CE9
:1094B000085C04935B4603995B5C98464B464146C7
:1094C00059706146597169465C7209789F70597389
:1094D0005146997269469E719D73D870097CDA7203
:1094E0006A46D973127ADA714A4656789578D178F5
:1094F000301C8C4669400C1C137858404440271C93
:109500005F40B846C709BA467F0057440093FB0046
:109510009A46434657444000784058401070301CEB
:109520006840C30998465F004744FB00984663467D
:10953000474440006640784046405670CE0970006F
:109540003018C60080194900414065404D400099DF
:10955000957059400B1C6146D8094C404100411898
:10956000C80009185B004B405C40019BD47004327A
:109570009342BAD14B4608981B7804785C404B461E
:109580001C704B4642785B785A404B4600925A70AA
:109590004B4682789B785A404B469A704B46904691
:1095A000DB78C2785A404B460292DA704B46027919
:1095B0001B795A404B461A714B4692465B79427969
:1095C0005A404B4603925A714B4682799B795A40D6
:1095D0004B4604929A714B46C279DB795A404B460E
:1095E0000592DA714B46027A1B7A5A404B461A7240
:1095F0004B46467A5B7A94465E404B465E724B46DB
:10960000827A9B7A53404A4693724A46C17AD27A0A
:1096100051404A460691D1724A46077B127B011C93
:1096200057404A4617734A46457B527B55404A4647
:1096300055734A46807B927B42404846079282732C
:10964000C87B1031021C4846C07B50404A46D0734C
:109650003F4A0891914200D0FDE64B4659461A78A0
:1096600058468A5C5D791A701A795C788A5C1A713E
:109670001A7A8A5C1A721A7B8A5C1A735A7A8A5C22
:109680005A715A7B8A5C5A729A788F5C9A798E5C8E
:109690009A7A8A5C9A709A7B8A5C9A71DA788A5C88
:1096A000D9799446425CD87A90465A46105CDA7B67
:1096B0009F7291465A464946525C2349DA705A468F
:1096C000145D555D4246DA726246DA71A4225D701D
:1096D0005C739E73D873895C1A784A401A70A5220D
:1096E0001949895CEAB24A405A70A6221649895C37
:1096F0009A784A409A70A7221349895CDA784A40DE
:10970000DA70A8221049895C1A794A401A71A92294
:109710000D49895C5A794A405A71AA220A49895CE2
:109720009A794A409A71AB220749895CDA794A40B2
:10973000DA71AC220449895C1A7A4A401A72AD2265
:1097400008E0C046F425002074250020804B02006C
:10975000182600201749895C5A7A4A405A72AE226C
:109760001449895CFAB24A409A72AF221149895C65
:10977000DA7A4A40DA72B0220E49895C1A7B4A4092
:109780001A73B1220B49895CE2B24A405A73B22281
:109790000849895CF2B24A409A73B3220549895C50
:1097A000C2B24A40DA730BB03CBC90469946A2461E
:1097B000AB46F0BD74250020F0B557464E464546F1
:1097C000E0B4071C0F209046024091463A1C0A4321
:1097D0000C1C920700D0C4E00022101C391D8C42E2
:1097E0005041011C201D874252410A43D2B2002A37
:1097F00000D1B6E022683A6062687A60A268BA6016
:10980000E268FA60794E7763002B03D0784A1360E0
:10981000FFF770FA089B002B00D0B3634346002B80
:1098200000D1E1E0B36B3D1C00E055461978227889
:109830004A40227058786178414061709878A178E8
:109840004140A170D878E1784140E17018792179E0
:109850004140217158796179414061719879A179CC
:109860004140A171D879E1794140E171187A217ABA
:1098700041402172587A617A41406172987AA17AA6
:109880004140A172D87AE17A4140E172187B217B94
:1098900041402173587B617B41406173987BA17B80
:1098A0004140A173D97BE37B4B40E3732A7063781B
:1098B0006B70A378AB70E378EB7023792B716379CD
:1098C0006B71A379AB71E379EB71237A2B72637AB5
:1098D0006B72A37A7563AB72E37AEB72237B2B73A3
:1098E000637B6B73A37BAB73E37B1034EB73FFF78A
:1098F00029FD10239A46AA445246B5632B1CD21B5D
:10990000904592D84B46002B26D0534623439B07C5
:1099100048D100235046191C221D904259410A1C6F
:10992000514604318C425B411343DBB2002B39D0EA
:109930002268026062684260A2688260E268C26077
:109940004B4610224846D21A504400210AF0F6F93C
:1099500053467363FFF7F6FC1CBC90469946A2463B
:10996000F0BD22783A7062787A70A278BA70E278A4
:10997000FA7022793A7162797A71A279BA71E279D0
:10998000FA71227A3A72627A7A72A27ABA72E27AB8
:10999000FA72227B3A73627B7A73A27BBA73E27BA0
:1099A000FA732FE752462378137063785370A378C5
:1099B0009370E378D3702379137163795371A3792A
:1099C0009371E379D371237A1372637A5372A37A12
:1099D0009372E37AD372237B1373637B5373A37BFA
:1099E0009373E37BD373ABE7BA468BE7F425002090
:1099F0007425002070B51E1C051C141C86B002A81E
:109A000010220AF05DF90096281C02A91022231CDE
:109A1000FFF7D2FE06B070BDF0B5454680460F2078
:109A20004E46914602405746924642460A43E0B4AB
:109A30000D1C920700D0C3E04246111D0022101CED
:109A40008D4250414446011C281D844252410A4324
:109A5000D2B2002A00D1B3E0296821606968616050
:109A6000A968A160E968E1604246784F7A63002BFB
:109A700003D0774A1360FFF73DF9089B002B00D015
:109A8000BB634B46002B00D1DDE0BE6B444600E0DB
:109A90001D1C2B787C6323706B786370AB78A3708C
:109AA000EB78E3702B7923716B796371AB79A371D8
:109AB000EB79E3712B7A23726B7A6372AB7AA372C0
:109AC000EB7AE3722B7B23736B7B6373AB7BA373A8
:109AD000EB7BE373FFF776F93278237853402370FA
:109AE0007278637853406370B278A3785340A37060
:109AF000F278E3785340E37032792379534023714D
:109B00007279637953406371B279A3795340A37139
:109B1000F279E3795340E371327A237A5340237226
:109B2000727A637A53406372B27AA37A5340A37213
:109B3000F27AE37ABD635340E372327B237B534076
:109B40002373727B637B53406373B27BA37B53406D
:109B5000A373F27BE37B2E1C5340E37342462B1C22
:109B600010341033A21A914592D85246002A22D0BE
:109B7000221C1A43920745D10022101C191D8C4249
:109B80005041011C201D834252410A43D2B2002A97
:109B900038D01A6822605A6862609A68A260DB68EE
:109BA000E36053461022E018D21A00210AF0C6F8EA
:109BB0007C63FFF707F91CBC90469946A246F0BDAE
:109BC00041462A780A706A784A70AA788A70EA78D8
:109BD000CA702A790A716A794A71AA798A71EA790E
:109BE000CA712A7A0A726A7A4A72AA7A8A72EA7AF6
:109BF000CA722A7B0A736A7B4A73AA7B8A73EA7BDE
:109C0000CA7331E71A7822705A7862709A78A27013
:109C1000DA78E2701A7922715A7962719A79A271AE
:109C2000DA79E2711A7A22725A7A62729A7AA27296
:109C3000DA7AE2721A7B22735A7B62739A7BA2737E
:109C4000DB7BE373ADE72B1C44468EE7F425002055
:109C50007425002034DF704740DF704773DF7047A2
:109C600074DF704776DF704777DF70477ADF7047C1
:109C70007CDF704783DF7047A9DF704760DF704784
:109C800008B5081C111CFDF77DFA08BD08B506F0E3
:109C900095FA012006F056FC08BDC04608B5002024
:109CA000FDF74EFD08BDC04608B502F0A9FB08BD92
:109CB00000B583B00090019168460821024A03F084
:109CC0008FFD03B000BDC046619D010008B50020B6
:109CD0000021024A03F084FD08BDC046819D0100B9
:109CE00000B583B06B460848D91D04F0E9F9031CA0
:109CF0000020002B05D16B46D879023843425841E9
:109D0000C0B203B000BDC04630260020014B5868E9
:109D10007047C04630260020014B187A7047C04675
:109D200030260020024B187A0523181AC0B270475B
:109D30003026002008B5074BD8600120196106F0D5
:109D400017FBBFF34F8F044A044BDA60BFF34F8F0A
:109D5000FEE7C046302600200400FA0500ED00E0D2
:109D600008B5082904D142680368101C984708BD4B
:109D70008D2100204900014AFFF7DCFF804E0200E0
:109D800008B5002902D102F049FC08BD0020992144
:109D9000014AFFF7CFFFC046C84E0200CA2108B5EE
:109DA0008900014AFFF7C6FF184F020008B5037883
:109DB000002B00D008BD054B3B211888FFF752FF50
:109DC0000028F7D00249034AFFF7B4FF32200020F1
:109DD000E6020000184F020010B50B7882B0422B4B
:109DE00002D14B78652B01D002B010BDFDF740F8D1
:109DF000194C002808D0201C143004F0F1FB002876
:109E000011D001236375EFE7201C143004F0E8FB48
:109E10000028E9D0012301A8037004F05DF80028B0
:109E200015D16075E0E7201C0C491830142201F0B0
:109E3000AFFA0B4B9842D7D00A4B9842D4D00823A4
:109E4000021C9A43D0D00849084AFFF773FF9221B9
:109E5000064A8900FFF76EFF30260020244F0200DB
:109E6000043000000134000071050000184F0200AA
:109E700030B5041C87B0023C05F0D8FA012C04D898
:109E80003425184C635D002B01D107B030BD002391
:109E90006846635505F00CFE002818D1009B002B86
:109EA00002D001236355F0E701A8019303614360E9
:109EB0008360C360A0239B000382FFF7CFFE0823CB
:109EC000021C9A4308D101223523E254DDE7D02158
:109ED000054AFF31FFF72EFFF321034A4900FFF740
:109EE00029FFC04630260020184F0200364B70B5BF
:109EF000061C0D1C9A423ED0002A5FD1334C2B78B1
:109F0000112B32D011D9152B25D0232B08D1201C91
:109F10002F491830142201F03BFA2E4B98420FD1F2
:109F200004F0E0F92072002070BD012BF8D1201C54
:109F3000294918300D2201F02BFA264B9842EFD018
:109F4000264B9842ECD00823021C9A43E8D02449BF
:109F5000244AFFF7EFFE201C234918300D2201F0A0
:109F600017FA1C4B9842EBD1DAE7201C311C042273
:109F700009F0A6FED4E7154C1C49201C1422183009
:109F800001F006FA134B984206D0144B984203D0C6
:109F90000823021C9A43DAD18020800006F0BCFA24
:109FA00004F0DAF9002804D1201C012104F04CFA55
:109FB000A5E7201C002104F047FAA0E7101C0C497B
:109FC000084AFFF7B7FEC046438000003026002055
:109FD000784F020004300000684F02000134000096
:109FE00071050000184F0200584F02003C4F02005C
:109FF0008B040000EFF308839A69014B9A63FEE734
:10A000003026002008B5031C0A1C0248191CFFF763
:10A0100091FEC046EFBEADDE012370B5244C82B088
:10A020005B42A387FCF798FE6B46DA1C062313708D
:10A030008E2301ADDB002B804823E35C1721AB703E
:10A0400040236064201CE15200236430211C6366BD
:10A050004360E26690223C31C360036143618361E7
:10A06000C361036243628362A150124A0126111C3C
:10A070001C31D361036343634B608B60CB600B6126
:10A080004B618B610B624B628B62CB6286800B6390
:10A090004B63023313779686956301F051FB0028DA
:10A0A00001D102B070BDCE21034A4900FFF742FE44
:10A0B00030260020B0260020184F020008B5FCF71B
:10A0C0004BFE172140220A4B9952191C50323C3149
:10A0D0009950084958646433181C1C3101F030FB56
:10A0E000002800D108BDC021034AFF31FFF722FE3E
:10A0F00030260020B0260020184F020070B535250C
:10A100001C4C86B0635D061C002B0CD1684605F024
:10A11000CFFC002820D1009B002B0CD0012234233F
:10A12000E25406B070BDFFF79BFD0823021C9A4362
:10A1300017D16255EAE701A8019303614360836088
:10A14000C3600682FFF78AFD0823021C9A430CD1E4
:10A1500001223523E254E4E7D021074AFF31FFF71B
:10A16000E9FD0649044AFFF7E5FDF321024A4900EB
:10A17000FFF7E0FD30260020184F02000902000022
:10A1800008B504F0E9F8011C014804F05DF908BDC8
:10A190003026002008B5011C014804F055F908BD1F
:10A1A0003026002008B504F0D7F808BD10B582B0FD
:10A1B000FCF75EFE1A4C00280AD0201C143004F074
:10A1C0000FFA002813D001236375002002B010BDE0
:10A1D000201C143004F004FA0028F6D0012301A852
:10A1E000037003F079FE002815D16075EDE7201C9F
:10A1F0000C491830142201F0CBF80B4B9842E4D0F4
:10A200000A4B9842E1D00823021C9A43DDD008494A
:10A21000084AFFF78FFD9221064A8900FFF78AFD61
:10A2200030260020244F02000430000001340000DA
:10A2300071050000184F020070B5041C88B004F0CE
:10A2400001FC201C01F0CAFE624D211C2E1C183698
:10A25000301C00F0A9FF281C211C483001F0CAF86E
:10A260005D48211C00F01AFC2388172B00D16AE0FE
:10A2700007D91A2B5FD0522B51D0192B21D008B0FF
:10A2800070BD102B42D0112BF9D16B7D002B00D06B
:10A2900090E00122514B524200201A80FCF7B2FD9F
:10A2A000FCF75CFC04286AD002A805F001FC002839
:10A2B00000D089E0029B002B69D001223423EA54AC
:10A2C000DDE7A379002BDAD1FCF748FC011C09205B
:10A2D000FEF7E8F8301C42490A2201F059F8414BD8
:10A2E000984206D0404B984203D00823021C9A4360
:10A2F00041D1002006F03CF805F096FCFFF7AAFCDF
:10A300000028BCD039493A4AFFF714FDA088334BE6
:10A310001880FFF7AFFC0120FCF774FDAFE72F4B6F
:10A32000002118880022FFF7A7FC0028A7D0314998
:10A330002F4AFFF7FFFC5423A0792F4AD05440B294
:10A34000FCF75AFD9BE72C48A11D3222583009F03A
:10A35000B7FC301C2949092201F01AF8214B984218
:10A3600000D18CE7204B984200D188E70823021CDB
:10A370009A4300D183E722491D4AFFF7DBFC01A87D
:10A3800005F096FB00281FD1019B002B95D103A857
:10A390000393036143608360C360A0239B00038237
:10A3A000FFF75CFC0823021C9A4308D101223523E5
:10A3B000EA5464E7FFF7FAFE00236B7569E7F321BF
:10A3C0000B4A4900FFF7B6FCD021094AFF31FFF7DD
:10A3D000B1FCC04630260020D834002032200020B6
:10A3E000A44F020004300000013400000903000003
:10A3F000184F0200B5030000B0260020984F02005D
:10A400007105000008B5FCF733FD002800D108BD38
:10A41000054B13211888FFF725FC0028F7D0BD2134
:10A42000024A8900FFF786FC32200020184F020004
:10A4300008B5FCF793FB011C0920FEF733F811481F
:10A44000114918300A2200F0A3FF104B984206D0A1
:10A450000F4B984203D00823021C9A430DD10020D1
:10A4600005F086FF05F0E0FBFFF7F4FB002800D1C4
:10A4700008BD0849084AFFF75DFC0849064AFFF78E
:10A4800059FCC04630260020A44F020004300000D2
:10A490000134000009030000184F0200710500009C
:10A4A000114808B5183011490A2200F071FF104B0D
:10A4B000984206D00F4B984203D00823021C9A43BF
:10A4C0000DD1002005F054FF05F0AEFBFFF7C4FBF3
:10A4D000002800D108BD0849084AFFF72BFC0849AD
:10A4E000064AFFF727FCC04630260020A44F020092
:10A4F00004300000013400001D030000184F02006A
:10A50000710500007047C04608B5031C0D488AB2AB
:10A510001830191C00F03CFF0B4B98420AD00B4B33
:10A52000984209D00823021C9A43073B002A05D110
:10A53000181C08BD0023FBE70123F9E70449054A7D
:10A54000FFF7F8FB30260020043000000134000043
:10A5500071050000184F020010B5041C09F034FC0E
:10A56000C0B2021C142800D914220A48D2B21830F2
:10A57000211C00F00DFF084B984206D0074B984273
:10A5800003D00823021C9A4300D110BD0449054A98
:10A59000FFF7D0FB3026002004300000013400001B
:10A5A00071050000184F0200A021A223F0B55F46FC
:10A5B0004D4644465646C905DB00F0B4CF58CB584B
:10A5C000EB490122CB60884680238021DB05C9004E
:10A5D00058583F0B834600205850E649E6485958E2
:10A5E00017404160DA674346E44A9BB081460092D7
:10A5F000103300200521152202F062FB002800D054
:10A6000083E1DF4B0121181CDE4A20309A4602F01C
:10A61000C9FB002800D01EE2504601212430DA4A4E
:10A6200002F0C0FB002800D010E25146042028317F
:10A6300002F07EFF002800D004E251460920783164
:10A640005022D24B01F0F4FF002800D0F5E10AAC13
:10A650002070201CFFF712FB002800D0E9E1CC4855
:10A6600002F00EF8002800D0DFE1CA4802F012F82C
:10A67000002800D0D5E103200121C74A08F08AF95B
:10A68000002800D0C9E128204042FFF7EDFA04F08D
:10A6900081FF002800D0BCE1002305AD281C2B70F1
:10A6A00003F01AFC002800D0AFE16B460126588663
:10A6B0001E23C0B2E3803043C53318400C23184337
:10A6C000072363720933A372B44B207248460A937E
:10A6D00001231430211C237103F096FC002800D0C4
:10A6E0008FE103F0FFFD4B46AD4A18720A210820A6
:10A6F000483203F05DF8002800D07EE14346594619
:10A700003A1CDB68A748FCF7B9FBFCF715FA6B4667
:10A710000F2710221B7C8346BB4333433B4013432C
:10A720006A4620211374201C0F2209F007FB9E4B60
:10A7300058461A6822609A88A2809B790A22A371DF
:10A740002E236B44191C09F08FFA04A8211C0A223D
:10A75000FFF78EFA002800D04AE107232B8035331B
:10A760009B466B80C82368605B00281CEB80FFF76A
:10A770007DFA002800D0F5E048468C4B183003A93C
:10A78000039300F041FD002800D0E6E0884B8548A7
:10A7900004A9049300F05EFE002800D0D9E0102147
:10A7A000020AD2B2BA4332433A400A43E8606A73BB
:10A7B0001022030CDBB2BB4333433B401343102254
:10A7C000AB73C3B2BB4333433B40134328612B7489
:10A7D000012368602860A8602B7176486333291CC8
:10A7E0002B7300F089F9002800D0AEE04022002150
:10A7F000201C09F0A3FA201C6F4900F0C3FC12A82A
:10A800006E4900F0BFFC5B46E35C0022BB431E4385
:10A8100010233E401E435B46E6543D23201CE25479
:10A8200000F048FA061E00D08BE0FFF7F5FBA023EE
:10A830009B026360F0231B03A3600323E660237382
:10A840005F4B201C63615F4B26602661A36101F0B2
:10A850008BFB002871D11E2278235B4E0127F25218
:10A86000FEF70AF9021C7A21501E8241735C281CF3
:10A87000BB431343E12213400C221343CD22134068
:10A88000735407237836F37009333371A023002102
:10A890004E4ADB00D15005F00BF9002848D1059B4A
:10A8A000002B1FD034234A46D75453468021186AC0
:10A8B0004902002202F0A8FA002835D15346444943
:10A8C000586A002202F0A0FA002828D105F088F981
:10A8D00003F02EF8FFF7C0F90028F9D03D493E4AB1
:10A8E000FFF728FA0A9323616360A360E360A02363
:10A8F000201C9B002382FFF7B1F90823021C9A4316
:10A9000008D135234A46D754CFE70E21324AFF31CA
:10A91000FFF710FAF321304A4900FFF70BFADE2166
:10A920002D4A8900FFF706FA2C492B4AFFF702FA55
:10A93000D021294AFF31FFF7FDF92949264AFFF7BF
:10A94000F9F92849244AFFF7F5F92749224AFFF780
:10A95000F1F92649204AFFF7EDF9A6211E4A8900A0
:10A96000FFF7E8F9A6211C4A4900FFF7E3F9C046C2
:10A97000302700201C05000030260020B19C01007B
:10A98000302E0020A99C01009D9C0100CD9C01005F
:10A9900039A20100719E01008D9C0100ED9E010015
:10A9A000B02E002078260020B04F0200D99D010073
:10A9B000819C0100D8340020B84F0200C04F020033
:10A9C000AD9D01009D9D0100302F00200020004022
:10A9D0006606000007050000184F02007303000020
:10A9E0003F030000BF020000B30200009F0200000E
:10A9F000A1211B4A4900FFF79DF91A49184AFFF7A0
:10AA000099F91949164AFFF795F91849144AFFF7B9
:10AA100091F91749124AFFF78DF91649104AFFF7C5
:10AA200089F915490E4AFFF785F914490C4AFFF7D1
:10AA300081F913490A4AFFF77DF98921084AC900BB
:10AA4000FFF778F90F49064AFFF774F98E21044A97
:10AA50004900FFF76FF91621014AFF31FFF76AF944
:10AA6000184F020017050000D5040000C5040000BF
:10AA7000BE040000260400005A0400005504000033
:10AA8000510400000F050000A0DF7047A2DF7047EF
:10AA9000A3DF7047A4DF7047A6DF704730B50B888F
:10AAA00083B0112B23D0502B06D0102B01D003B034
:10AAB00030BD8B884382FAE7037D002BF7D0CA882C
:10AAC00043899A42F3D1CB8B022BF0D10468002C3E
:10AAD000EDD00B1C212220259A5C5B5D12021343F2
:10AAE0000122134001A953400B70A047DFE7012367
:10AAF0005B424382DBE7C046F0B557464E460B68E3
:10AB0000C0B4036001235B42438293B00A790F1CF7
:10AB1000037404A902338B70424B0275041C021D9E
:10AB200001200B80FFF7B0FF8246002805D0504679
:10AB300013B00CBC91469A46F0BD237D002B55D135
:10AB400002220BA90B934B608B60CB600B614B61B6
:10AB50008B6113430B7000234B616A4601236846E7
:10AB60009375314A03AE8282BA7B00203270FA7B41
:10AB700072700222B27091466A463D7B03321570B4
:10AB800006AD089009902B81AB8105A806900A922A
:10AB9000A088A31D2A1C0796FFF778FF824600288D
:10ABA000C5D1B96800291FD06A46012393751F4B90
:10ABB000308093823B7C01AF33704B46381CB370BE
:10ABC00000F0DAFA5346221CAB60EB6080B205ABB2
:10ABD0002B606E602881A8812F61E0880E32291CCD
:10ABE000FFF756FF8246A2E7E081A0E70F2501218B
:10ABF000C2B2AA430A432A40102502AB2A431A7064
:10AC00007A7B0BA95A7002229A700B904860886078
:10AC1000C860086148618861C0B2104305430D7087
:10AC20009AE7C0460F180000192A00000829000002
:10AC300030B589B06B46D971037C041C00208B426F
:10AC400017D06B460125DD810E236B441A1C6B4621
:10AC50002174E08800210733FFF71CFF002808D18A
:10AC6000628A114B9A421BD0217D0823002902D110
:10AC7000181C09B030BD6B4604A90490DD81486002
:10AC8000E388101C0B8001238B700E236B448B60B8
:10AC90006B460733CB60FFF7FFFE031C181CE8E789
:10ACA0000823181CE5E7C046FFFF0000A0DF70473F
:10ACB000A2DF7047F0B54F4646460123C0B493B0BB
:10ACC00002A98B70D84B041C0B80D84B01201A1C96
:10ACD0009946FFF7EBFF002800D0D6E02688002E2B
:10ACE00000D0D7E02689002E00D007E1268A002E6A
:10ACF00000D035E1268B002E00D063E1268C002E9B
:10AD000000D0A5E1268D002E00D0D2E1276B002FC8
:10AD100047D03E68FF21321C7B6809020A409846F2
:10AD2000120A04AB5A70FF22351C120415402D0C78
:10AD30009D7045461E70360E1D71DE70BE683C2546
:10AD40005E7131403240012603AFBE70B84E655D82
:10AD50003E8001AE35703C25AC46120C0020DA7105
:10AD6000A44402226546090A99710BA90B900A7046
:10AD700048608860C8600861486188616D78B27019
:10AD800006AA13614B469060D06008307570069734
:10AD900056601081908118883433FFF789FF0028AE
:10ADA00073D1636B002B37D01A681E799046002A46
:10ADB00000D1BDE1002E04D100206E219D4AFEF796
:10ADC000B9FF01203C2504AFB8709B48655D388011
:10ADD00003A805703C25AC4600230222A444654626
:10ADE0000BA90B930A704B608B60CB600B614B61BE
:10ADF0008B616D78827006AA9360D36043461361BD
:10AE00004B464570506018883C33069716819681F2
:10AE1000FFF74EFF002838D1A36B002B00D179E15A
:10AE20001A7804A802705A8801264270120A8270A9
:10AE30009A883C25C270120A0271DB880222437193
:10AE40001B0A8371002303AFBE707C4E655D0BA9A6
:10AE50003E8001AE0B9335700A704B608B60CB6007
:10AE60000B614B618B613C346478B27006AA9360CD
:10AE7000D3600733138193814B46747006975660F5
:10AE8000106118884433FFF713FF13B00CBC9046D1
:10AE90009946F0BD63689846002B00D13CE1012043
:10AEA0003C2504AFB8706648655D388003A805701E
:10AEB0003C25AC4600230222A44465460BA90B9313
:10AEC0000A704B608B60CB600B614B618B616D785E
:10AED000827006AA9360D360434613614B46457067
:10AEE000506018880433069716819681FFF7E0FEBC
:10AEF0000028CAD12689002E00D1F7E6E3689846DB
:10AF0000002B00D10EE101203C2504AFB8704D4864
:10AF1000655D388003A805703C25AC4600230222FD
:10AF2000A44465460BA90B930A704B608B60CB6001
:10AF30000B614B618B616D78827006AA9360D36060
:10AF4000434613614B464570506018880C33069792
:10AF500016819681FFF7ACFE002800D1C6E694E783
:10AF600063699846002B00D1E8E001203C2504AF3E
:10AF7000B8703548655D388003A805703C25AC463F
:10AF800000230222A44465460BA90B930A704B6070
:10AF90008B60CB600B614B618B616D78827006AA10
:10AFA0009360D360434613614B46457050601888E8
:10AFB0001433069716819681FFF77AFE002800D198
:10AFC00098E662E7E3699846002B00D1BCE00120D7
:10AFD0003C2504AFB8701D48655D388003A8057036
:10AFE0003C25AC4600230222A44465460BA90B93E2
:10AFF0000A704B608B60CB600B614B618B616D782D
:10B00000827006AA9360D360434613614B46457035
:10B01000506018881C33069716819681FFF748FE0A
:10B02000002800D16AE630E70A180000B02F00209F
:10B03000232A0000C84F02002A2A0000502A0000DC
:10B04000292A0000242A0000252A0000272A0000BF
:10B05000636A9846002B7DD001203C2504AFB87070
:10B060004248655D388003A805703C25AC46002346
:10B070000222A44465460BA90B930A704B608B60B7
:10B08000CB600B614B618B616D78827006AA936017
:10B09000D360434613614B46457050601888243393
:10B0A000069716819681FFF703FE002800D129E656
:10B0B000EBE6E36A9846002B52D001203C2504AF12
:10B0C000B8702B48655D388003A805703C25AC46F8
:10B0D00000230222A44465460BA90B930A704B601F
:10B0E0008B60CB600B614B618B616D78827006AABF
:10B0F0009360D360434613614B4645705060188897
:10B100002C33069716819681FFF7D2FD002800D1D7
:10B11000FCE5BAE60020B8E600206D21154AFEF7EE
:10B1200009FEBCE600206D21124AFEF703FEEAE6A6
:10B1300000206D210F4AFEF7FDFD3BE600206D214A
:10B140000C4AFEF7F7FD10E700206D21094AFEF7D3
:10B15000F1FD3CE700206D21064AFEF7EBFD7BE7A1
:10B1600000206D21034AFEF7E5FDA6E7262A000030
:10B17000282A0000C84F02000B7803704B784370F8
:10B180000220704738B5041C081C0D1C08F01CFE7A
:10B190006560208038BDC046A0DF7047A2DF7047E1
:10B1A000A6DF704763DF704710B5002808D000297C
:10B1B00006D00B88112B16D0502B02D0102B0FD09D
:10B1C00010BDCB88028A9A4211D082889A42F7D168
:10B1D0008469002CF4D00B1C2031DA8BA047EFE7F8
:10B1E0008B888382ECE701235B428382E8E7CA8B8A
:10B1F000022AEAD12023CA5C1F3B134002D001235C
:10B200008375DDE78375DBE7F0B54D4644465F4661
:10B210005646F0B495B0041C0D1C04A85B491022DE
:10B2200008F04EFD0E20002C0ED0002D0CD0012376
:10B230005B42A3822B6804A8A3610023211CA37591
:10B24000FFF7B0FF002806D015B03CBC90469946E9
:10B25000A246AB46F0BD237802A98B700123A21C45
:10B2600001309B460B80FFF797FF0028ECD10121AE
:10B270008A460F275146C2B2BA430A431021894673
:10B2800049463A400A4369460A70524683B21B0A4D
:10B29000BB4313434A463B4013434B70022398463B
:10B2A00042464B468A7034216A46034352180D9039
:10B2B0000E900F9010901190139013706B466A4689
:10B2C000129323785146937303239381C2B2BA43F6
:10B2D0000A4349463A4001AE0A433270524683B2AD
:10B2E0001B0ABB4313433B400B4373700323B370F0
:10B2F00003AB08935B4608AD0A900B900C902B8132
:10B300001423AB81231C60880DA92A1C0C330996D9
:10B31000FFF744FF002897D10823C2B21343042249
:10B32000342113436A4652180D900E900F901090DE
:10B3300011901290139013706A46237851469373BC
:10B340006B4642469A81C2B2BA430A4349463A40E2
:10B350000A433270524683B21B0ABB4313433B403D
:10B360000B4373700323B37003ABA860E8602861DC
:10B3700008935B462B8114236E60AB816088231D8C
:10B380000DA92A1CFFF70AFF5EE7C0461450020011
:10B3900010B586B0031E6846C28009D09A8A104C48
:10B3A0000820A24202D09C7D002C03D106B010BD23
:10B3B0000E20FBE76846C4880720142CF6D800202E
:10B3C000029003909B8902AC23806B460633049362
:10B3D00001230591101C211CA370FFF7E1FEE5E796
:10B3E000FFFF0000A0DF7047A2DF7047A6DF7047B5
:10B3F00063DF704710B5002808D0002906D00B88FD
:10B40000112B16D0502B02D0102B0FD010BDCB8893
:10B41000028A9A4211D082889A42F7D18469002C1C
:10B42000F4D00B1C2031DA8BA047EFE78B888382A6
:10B43000ECE701235B428382E8E7CA8B022AEAD168
:10B440002023CA5C1F3B134002D001238375DDE734
:10B450008375DBE7F0B54D465F465646E0B494B0E1
:10B46000041C0D1C04A86549102208F029FC0E20BC
:10B47000002C0ED0002D0CD001235B42A3822B6840
:10B4800004A8A3610023211CA375FFF7B1FF0028C6
:10B4900005D014B01CBC91469A46A346F0BD237853
:10B4A00002A98B708E23A21CDB0001300B80FFF7FA
:10B4B00099FF031EEDD1012082460F275046D9B2D5
:10B4C000B94301431020814648463940014368464C
:10B4D000017051469AB2120ABA430A4349463A40A9
:10B4E0000A4342700222934659464A4681703420EC
:10B4F000694655461A4309180D930E930F931093FE
:10B50000119313930A706A466946D8B2B843284328
:10B510004D461292227838408A7303216A462843A6
:10B5200001AE3070504691819AB2120ABA4302437A
:10B530003A402A4308ADAB60EB602B6103AB089344
:10B5400001232B811333AB81231C6E607270B170A9
:10B5500060880DA92A1C0C33FFF746FF002898D1FC
:10B560000823C2B213430422342113436A465218FB
:10B570000D900E900F9010901190129013901370E8
:10B580006A462378308093735A466B469A8100232B
:10B59000B370FDF771FA52463378BB4313434A4602
:10B5A0003B401343524633707378BB4313433B40D5
:10B5B00000281ED14A46134373700622B3786E608A
:10B5C000934302221343E722134001221343B37033
:10B5D0000023AB60EB602B6103AB089301232B814D
:10B5E0001333AB816088231D0DA92A1CFFF7FCFED5
:10B5F0004FE7202213437370DFE7C0462450020058
:10B6000010B586B0031E6846C28009D09A8A104CD5
:10B610000820A24202D09C7D002C03D106B010BDB0
:10B620000E20FBE76846C4880720142CF6D80020BB
:10B63000029003909B8902AC23806B4606330493EF
:10B6400001230591101C211CA370FFF7CFFEE5E735
:10B65000FFFF000072DF704779DF70477DDF7047C2
:10B6600065DF7047F0B55F46564644464D46F0B438
:10B6700085B09A460E9B061C98461B788B46019314
:10B680000388171C002B40D00023994602AB0024EE
:10B69000DD1C03E033880134A3422CDD7368A10074
:10B6A0009C460422614403A808F00AFB03A8291C55
:10B6B0000022FFF7D5FF002828D12B78BB42E9D123
:10B6C0004B46002B29D043461A78D3191F2B34DC64
:10B6D000524403A8291CFFF7C3FF002816D1434694
:10B6E0001A782B780134D3184246137001239946F7
:10B6F0003388A342D2DC4B46002B06D0434651464A
:10B700001B78019A013B9B1A8B54002005B03CBC6E
:10B7100090469946A246AB46F0BD43461B78DA19DF
:10B720001D2A0ADC41469A1C0A70524659460133CA
:10B73000DBB2D15443461A78CAE70C20E6E7C0468C
:10B74000F0B5454657464E460023E0B496B002AAEF
:10B75000041C0D1C13735373002800D1ECE0838884
:10B76000002B06D1072016B01CBC90469946A24675
:10B77000F0BD8368002BF5D01B785B07F2D503780A
:10B78000002B00D0F9E183780EAF002B00D027E228
:10B790000023A288002A00D03DE2E268002A10D0EF
:10B7A00011781C2B00DDE6E102220A2006AEF254DD
:10B7B0005A1CD2B2B054DA1C023302A8DBB20273B4
:10B7C000F154238A002B00D063E2238B002B00D09E
:10B7D00079E2238C002B00D08FE2A36A002B3ED0AD
:10B7E00002AA127B0C20911D1F29BCD81888824602
:10B7F00056460720052EB6D9AD4F5744BFB2B846BE
:10B80000AC4FBC46B845AED95F88B946052FAAD91A
:10B81000A74F6E46B846C8444746F781F789674543
:10B82000A1D9A54FBA4503D0B94501D0CA459AD888
:10B830000520122706AEB054501CC0B23754901CDD
:10B840001F88C0B2301807703F0A477004325B8807
:10B85000D2B2B61833701B0A737002AB1973E76A61
:10B86000002F2FD03B790C209C4602AB1A7B6346FD
:10B870000233911CDBB2CB181F2B00DD73E763464C
:10B8800006AE0333B354531CDBB2F330F0543888A4
:10B89000CBB2F31818700432000A5870D3B298462D
:10B8A000424602AB1A73BA88002A0BD0B968002945
:10B8B00000D157E7301C404408F002FABA8802ABC6
:10B8C00042441A733423E35C06AE002B35D0276B59
:10B8D000002F00D146E7013BDBB202AA0133147B03
:10B8E0005A00D3189B0098461623B84499460AE09C
:10B8F000301908F0E5F9BB88E418E4B202AB1C7318
:10B900000C37474519D04A46BB8803333355631C6F
:10B91000DBB2F254A31C3A88DBB2F3181A70043479
:10B92000120A5A70E4B202AB1C73BA88002AE7D03C
:10B93000B9680029DCD115E70026002D00D11AE2F4
:10B94000AB88002B00D00DE702AA53732B78002B95
:10B9500000D0B3E0AB78002B00D0E8E1EA68002328
:10B96000002A0DD011780EAF02220A20FA545A1C78
:10B97000D2B2B854DA1C023302A8DBB24273F954D3
:10B980002B8A002B00D064E12B8B002B00D0F6E13A
:10B990002B8C002B00D012E2AB6A002B44D002AA01
:10B9A000527B0C20911D1F2900D9DCE618888246A5
:10B9B00054460720052C00D8D5E63D4F5744BFB26A
:10B9C000B8463C4FBC46B84500D8CCE65F88B9467F
:10B9D000052F00D8C7E6364F6C46B846C8444746E0
:10B9E000E781E789674500D8BDE6334FBA4504D003
:10B9F000B94502D0CA4500D9B5E6052012240EAFDC
:10BA0000B854501CC0B23C54901C1C88C0B23818AA
:10BA10000470240A447004325B88D2B2BF183B70B1
:10BA20001B0A7B7002AB5973EC6A002C2FD0237970
:10BA30000C209C4602AB5A7B63460233911CDBB25E
:10BA4000CB181F2B00DD8EE663460EAF0333BB54CD
:10BA5000531CDBB2F330F8542088CBB2FB181870BB
:10BA60000432000A5870D3B29846424602AB5A7369
:10BA7000A288002A0BD0A168002900D172E6381CE8
:10BA8000404408F01DF9A28802AB42445A733423A3
:10BA9000EB5C002B00D0B2E102AB5C7B0EAF3A1C3A
:10BAA00002AB197B301C231CFFF7D4FD5BE6C046BC
:10BAB0007FF3FFFF7DF30000FFFF00006B780C2099
:10BAC0001D2B00DD4FE602AB9C460E241D23644473
:10BAD00026306044211C2380FFF7C0FD002800D0E1
