:020000021000EC
:1060000000800020F53D02003D3E0200FDA601009B
:106010000000000000000000000000000000000080
:10602000000000000000000000000000413E0200EF
:106030000000000000000000433E0200453E020058
:10604000473E0200473E0200473E0200473E020034
:10605000473E02000000000005D80100B9C601005B
:10606000473E0200473E020045340200473E020020
:10607000473E0200473E0200473E0200473E020004
:10608000473E0200CDCB0100473E0200473E0200E2
:1060900095CC0100B52E020019CB0100473E02004D
:1060A000473E0200473E02000000000000000000E2
:1060B00000000000000000000000000000000000E0
:1060C00010B5064C2378002B07D1054B002B02D0CE
:1060D000044800E000BF0123237010BDA424002069
:1060E000000000004C58020008B5084B002B03D0FC
:1060F0000748084900E000BF07480368002B00D1AB
:1061000008BD064B002BFBD09847F9E700000000C4
:106110004C580200A8240020A02400200000000009
:10612000164B002B00D1144B9D46402292029A1A26
:10613000924600218B460F461348144A121A0EF05D
:10614000BBF80F4B002B00D098470E4B002B00D014
:1061500098470020002104000D000D48002802D0BF
:106160000C480EF039FA0EF001F82000290004F076
:1061700053FC0DF0EBFFC04600000800008000203B
:106180000000000000000000A42400203C35002096
:10619000D9450200E94502003CDF70473DDF70470A
:1061A00071DF704777DF704738B5352900D901E1D5
:1061B000874D8C002C59A746002490008218854BEF
:1061C00092001A63201C38BD824B00245A70F9E7F4
:1061D000804B00241A70F5E77E4B00241A75F1E716
:1061E000D0B202F00DFF0024ECE7422379490024ED
:1061F000CA52E7E7530602D580235B421A43412384
:1062000074490024CA54DDE7530602D580235B425B
:106210001A4340236F490024CA54D3E7FA2032219D
:1062200050430DF011FE6C4B00249880CAE790009B
:10623000801880000A210DF007FE674B002458806B
:10624000C0E790008218634B9200DA630024B9E73C
:10625000D0B20BF033FD0024B4E75F4B00241A707A
:10626000B0E7D0B20BF024FD0024ABE7D0B20AF0C7
:10627000DDF80024A6E7D0B20AF0D2F80024A1E7A6
:10628000452354490024CA549CE7524B00249A6386
:1062900098E7D0B202F002FD002493E7101C0AF048
:1062A00059FC00248EE7900082184A4B92005A62F3
:1062B000002487E7D0B20BF01BFD002482E7D0B2A8
:1062C0000BF00EFD00247DE7342342490024CA541C
:1062D00078E76420322150430DF0B6FD44233D4A57
:1062E0000024D0546EE71A1C02F0DEFC041C02F0FD
:1062F000B5FF002866D00020FFF754FF62E7354B5A
:1063000000249A855EE7101C02F0C2FF002459E7C2
:10631000304B00249A6255E72E4B9000DA618218C8
:1063200092001A6200244DE7101C0BF011FD0024AE
:1063300048E7284B00241A7644E7264B00245A7677
:1063400040E7244B00245A753CE7224B0024DA75C1
:1063500038E7204B50429875002433E71D4B00244A
:10636000DA742FE71B4B00249A742BE7194B002497
:10637000DA8127E7174B00241A7323E7154B002413
:106380005A601FE7134B00249A601BE7462311490C
:106390000024CA5416E7101C0AF02CFC00280BD06D
:1063A0008020C0020AF006FB00240BE7094B002402
:1063B0001A8207E7002405E78020C0020AF0F2FAFB
:1063C0000024FFE628204042FFF7ECFEFAE6C04634
:1063D0000C470200C02400202420002010B504F047
:1063E0009BFA06F02BF8184C002827D10AF006FE7D
:1063F00000200AF0F5F9FF20FFF7D0FE002818D1A1
:10640000CB20FFF7C9FE00280DD100200AF0D2F9F9
:1064100001200AF0B9F9BFF34F8F0C4A0C4BDA6038
:10642000BFF34F8FFEE7A721221CC90003F056FFE0
:10643000EBE70849221C03F051FFE1E70649221C63
:1064400003F04CFFD2E7C046B84802000400FA054A
:1064500000ED00E03605000021050000002370B5C6
:10646000294C86B0051C0020A3640AF0A3F8E37D44
:106470009B0709D5142D18D80123AB40234A13429A
:1064800013D1234A134210D028200AF009FF00201C
:106490000CF0AEFC03231F4A1F4E13701F4A3570C9
:1064A0001278002A05D106B070BD0A200DF03AFA24
:1064B000EAE7142201AD2A70123A6A70AB7002F05A
:1064C000D9FDE87109F078FDA88009F07BFDA8717D
:1064D00009F084FDE8700AF049FAA8600AF05CFA55
:1064E0003378E8602B744C23E35A281C6B740AF051
:1064F000E9F90B4B291C1868142205F0B9FA094870
:1065000004F078FACFE7C046C02400207FFF1000D7
:1065100080000F003D340020603400206C340020E7
:1065200064340020C8480200F0B54746002380B418
:10653000364C8AB0071C0020A364236563650AF00B
:1065400039F8E37D9B0709D5142F5BD80123BB40A5
:106550002F4A134256D12F4A134253D014262820D3
:106560000AF09EFE00200CF043FC6568227D637DEE
:10657000217E607E0095257B7543ADB20195E5894E
:106580007543ADB20295022503950BF023FDA020C3
:10659000800004F033F904231F4A13701F4A177058
:1065A00090461F4A1278002A03D10AB004BC9046D4
:1065B000F0BD05AFBB703E707D7002F05BFDF87101
:1065C00009F0FAFCB88009F0FDFCB87109F006FD8D
:1065D000F8700AF0CBF9B8600AF0DEF943461B7890
:1065E000F8603B744C23E35A381C7B740AF06AF958
:1065F0000C4B391C1868142205F03AFA0A4804F0CA
:10660000F9F9D2E705200DF037FAA7E7C0240020FA
:106610007FFF100080000F003D3400206034002018
:106620006C34002064340020C8480200F0B54746AE
:10663000002380B4964C8AB0051C0E1CA364082865
:1066400027D8944A8300D3589F46802080030AF0BD
:10665000B1F9B02080000AF0A5F90DF09DFA0AF01A
:106660008BFA002258230120E25209F0A3FF0122F5
:106670005A23E2540D2E00D107E14523E05C0CF0D3
:1066800025FB002803D105300921FFF7CFFF0DF0CE
:1066900083FA814B814F1D70814B3E701B78002B1C
:1066A0000BD10AB004BC9046F0BD0AF06DFA002888
:1066B000EFD07C4804F09EF9F3E7142305AE337065
:1066C000123B7370B57002F0D5FCF07109F074FCE8
:1066D000B08009F077FCB07109F080FCF0700AF02E
:1066E00045F9B0600AF058F93B78F06033744C23F8
:1066F000E35A301C73740AF0E5F86B4B311C1868D0
:10670000142205F0B5F9694804F074F9C9E70620C8
:106710000CF014FB002009F04DFF09200CF068FB81
:10672000042005A902F05AFA059B022BB1D10021E1
:10673000042002F041F9802040010AF033F9A8E773
:106740005B4B18780AF090F9030762D08020400173
:106750000AF038F900285CD1E37D9B0702D50320BD
:106760000DF0E0F8534804F045F9A2E7002009F0E5
:1067700021FFE37D9B070CD5142E07D80123B340DE
:106780004D4A134202D14D4A134202D10A200DF064
:10679000C9F828200AF084FD00200CF029FB78E7D6
:1067A000002300202365636509F004FFE37D9B0758
:1067B0000CD5142E07D80123B3403F4A134202D10F
:1067C0003E4A134202D105200DF056F91427B8466F
:1067D000474628200AF064FD00200CF009FB637D89
:1067E000607E9C466368217E227D0093237B7B43F1
:1067F0009BB201934346E7895F430223BFB20393F1
:10680000029763460BF0E6FBA020800003F0F6FF42
:106810003FE709F0D7FB237883429DD81427B84679
:106820008020474680030AF0C5F8012009F0C2FE27
:10683000637D217E9C466368E27C607E0093237BBF
:106840007B439BB201934346E7895F430323BFB277
:106850000393029763460BF0BDFB0AF08DF9A0206D
:10686000002258238000E25203F0C8FF5A2301227D
:10687000E254153BE05C0CF0F1F9002800D008E789
:1068800005300921FFF7D2FE03E7143BE05CF6E692
:10689000C0240020E44702003D3400206034002082
:1068A0006C340020EC48020064340020C848020028
:1068B00024200020D84802007FFF100080000F0035
:1068C00070B5051C802000262D4C86B08003A66480
:1068D0000AF070F8B02080000AF064F80DF05CF95E
:1068E0000AF04AF958230120E65209F063FE01221A
:1068F0005A23E2540D2D16D04523E05C0CF0E6F946
:10690000002803D105300921FFF790FE0DF044F96E
:1069100002231C4A1C4E13701C4A35701278002A40
:1069200004D106B070BD143BE05CE7E7142201AD72
:106930002A706B70AB7002F09DFBE87109F03CFBB4
:10694000A88009F03FFBA87109F048FBE8700AF045
:106950000DF8A8600AF020F83378E8602B744C2317
:10696000E35A281C6B7409F0ADFF094B291C186809
:10697000142205F07DF8074804F03CF8D1E7C04642
:10698000C02400203D340020603400206C340020FE
:1069900064340020C848020070B586B0051C0AF0B7
:1069A0004BFB012009F006FE14200AF079FC09F0E7
:1069B0003BFF2D4C002809D1A37C032B06D009F006
:1069C0003DFF281CFFF7B0FD06B070BD002300207E
:1069D000A36409F0EFFDE37D9B070CD5142D07D8C8
:1069E0000123AB40214A134202D1214A134202D172
:1069F0000A200CF097FF28200AF052FC00200CF02F
:106A0000F7F903231B4A1C4E13701C4A3570127889
:106A1000002AD9D0142201AD2A70123A6A70AB70E4
:106A200002F028FBE87109F0C7FAA88009F0CAFA59
:106A3000A87109F0D3FAE87009F098FFA86009F08E
:106A4000ABFF3378E8602B744C23E35A281C6B743B
:106A500009F038FF0A4B291C1868142205F008F8C1
:106A6000084803F0C7FFAFE7C02400207FFF1000F5
:106A700080000F003D340020603400206C34002082
:106A800064340020C8480200F0B5474680B48C4CFE
:106A90008AB023780D1C834203D00AB004BC904610
:106AA000F0BD0023874EB364082924D8864A8B00A2
:106AB000D3589F468020800309F07CFFB0208000DF
:106AC00009F070FF0DF068F80AF056F8002258231C
:106AD0000120F25209F06EFD5A230122F254153BB7
:106AE000F05C0CF0F3F8002803D105300921FFF722
:106AF0009DFD0DF051F80123744F25703B70744BD0
:106B00001B78002BC9D0142305AC2370123B637093
:106B1000A57002F0AFFAE07109F04EFAA08009F01A
:106B200051FAA07109F05AFAE07009F01FFFA06055
:106B300009F032FF3B78E06023744C23F35A201CA9
:106B4000637409F0BFFE634B211C1868142204F023
:106B50008FFF614803F04EFF9FE70AF015F8002809
:106B6000C9D05E4803F046FF97E706200CF0E6F830
:106B7000002009F01FFD09200CF03AF9042005A9B6
:106B800002F02CF8059B022BB5D10021042001F066
:106B900013FF8020400109F005FFACE7002300202F
:106BA0003365736509F006FDF37D9B0702D505206B
:106BB0000CF062FF1427B846474628200AF070FB05
:106BC00000200CF015F9737D707E9C467368317E51
:106BD000327D0093337B7B439BB201934346F7891D
:106BE0005F430223BFB20393029763460BF0F2F9AF
:106BF000A020800003F002FE7DE7002009F0DAFC0F
:106C0000F37D9B0702D50A200CF08CFE28200AF0A9
:106C100047FB00200CF0ECF86DE7314B187809F0D9
:106C200023FF03070FD08020400109F0CBFE00288E
:106C300009D1F37D9B0702D503200CF073FE294890
:106C400003F0D8FE8DE709F0BDF933788342F0D820
:106C50001427B84680204746800309F0ABFE012088
:106C600009F0A8FC737D317E9C467368F27C707ECF
:106C70000093337B7B439BB201934346F7895F4389
:106C80000323BFB20393029763460BF0A3F909F005
:106C900073FFA020002258238000F25203F0AEFDC3
:106CA0005A230122F254153BF05C0BF0D7FF002869
:106CB00000D020E705300921FFF7B8FC1BE7C046EC
:106CC0003D340020C0240020084802006034002029
:106CD0006C34002064340020C8480200EC480200F4
:106CE00024200020D8480200F0B587B00AF000F850
:106CF000032814D002250238A843C4B2002C01D0C6
:106D000007B0F0BD03200CF00DFE454E3378072B85
:106D100010D0082BF4D10620FFF706FCF0E7404E18
:106D20003378072B4AD0082BEAD101200521FFF741
:106D30007DFCE5E73B4F0020BC6409F03BFCFB7D9C
:106D40001D4202D00A200CF0EDFD28200AF0A8FA1E
:106D500000200CF04DF806220323334D33702A70C7
:106D6000324A1278002ACBD0142201AC2270123A97
:106D70006270A37002F07EF9E07109F01DF9A08045
:106D800009F020F9A07109F029F9E07009F0EEFD91
:106D9000A06009F001FE2B78E06023744C23FB5ABD
:106DA000201C637409F08EFD214B211C18681422ED
:106DB00004F05EFE1F4803F01DFEA1E780200024C2
:106DC000184F8003BC6409F0F5FDB020800009F085
:106DD000E9FD0CF0E1FE09F0CFFE58230120FC5242
:106DE00009F0E8FB5A230122FA54153BF85C0BF03A
:106DF0006DFF002803D105300921FFF717FC0CF0C7
:106E0000CBFE05220223084D33702A70074A127800
:106E1000002A00D174E7142201AC22706370A8E745
:106E20003D340020C0240020603400206C34002059
:106E300064340020C84802000120024BDB7D18406A
:106E40007047C046C0240020014B188A7047C046D6
:106E5000C0240020014BD86D7047C046C0240020DC
:106E60003423014AD05C7047C0240020014B1878BD
:106E70007047C0463D340020014B18787047C0462B
:106E80006034002070B514260A4C84B06568217EF9
:106E9000E27C637D607E0095257B7543ADB20195F4
:106EA000E4897443A4B20294012403940BF092F891
:106EB00004B070BDC024002010B584B06C460D2312
:106EC000A170110AE2702171110C120E2370617110
:106ED000A271607002F09AF9020AE0712272020C4B
:106EE000000EA0726846627209F0ECFC034B694622
:106EF00018680D2204F0BCFD04B010BD64340020FD
:106F0000142310B586B001AC2370123B6370134B91
:106F10001B78A37002F0AEF8E07109F04DF8A08084
:106F200009F050F8A07109F059F8E07009F01EFD61
:106F3000A06009F031FD0A4B0A4A1B78E060237417
:106F40004C23D35A201C637409F0BCFC064B211C53
:106F50001868142204F08CFD06B010BD3D340020EA
:106F600060340020C024002064340020142330B595
:106F700087B001AC23700A3B6370164B164D1B782B
:106F8000A3706023EB5CE370EB6D029309F024FDCA
:106F9000E0810AF009FF437802781B021343238142
:106FA000C37882781B0213436381437902791B0201
:106FB0001343A3816123EB5C201C23746B6E637409
:106FC00009F080FC054B211C1868142204F050FDC8
:106FD00007B030BD3D340020C024002064340020C0
:106FE00010B584B06A4610231370053B537002F04D
:106FF0000DF96B46020AD8701A71020C000E5A7114
:10700000987102F0FBF86B469870002002F004F9CA
:107010006B46D871000A1872012002F0FDF80923AE
:107020006B441870000A58700AF06AFE6B46D872FA
:107030000AF07AFE6B46187303F048F9041C03F05B
:1070400031FC0F2318406B462401204358736846D7
:1070500009F038FC034B69461868102204F008FD5B
:1070600004B010BD6434002038B5C2221E4D682320
:107070002C1CEA541733EB5C6834E3711B4B1B7810
:10708000A37008F099FF64210CF0DEFE60700AF036
:107090008BFE0123C35623720323C3566372052359
:1070A000C356A37209F078FC2B1C020A6B331870CC
:1070B0005A70020C000E9A70D87009F057FC2B1C05
:1070C000020A733318705A70020C000ED870281C14
:1070D0009A700749062277300DF0B0F8201C17216E
:1070E00009F006FC201C38BDC02400203D340020DF
:1070F0004025002008B5034906220DF09FF8002026
:1071000008BDC046402500206023014AD054704786
:10711000C024002008B5124B1A7882421BD0187088
:10712000002808D0962280200E4B5200C0001A6022
:1071300009F040FC08BD8020C00009F033FC0A4B78
:10714000DB7D9B07F6D501F095FF0228F2D10430D4
:107150000CF0E8FBEEE7054803F04CFCEAE7C0461C
:107160006C3400205C340020C0240020F848020069
:1071700008B5044BDB7D9B0702D505200CF0D2FB44
:1071800008BDC046C0240020014B18787047C04697
:107190006C340020F0B55F46564644464D46F0B488
:1071A00093B005900020804608AC20709B48036097
:1071B0009B4801609B498146181C0A7008F05CFFDF
:1071C0004246994B994E9A6442469B46984B994F3A
:1071D0001A70337882463870002B00D0F3E0964F57
:1071E000002359467F228B54944A0BA89360904603
:1071F000059ACB6533703A600370FEF7D1FF02AB9E
:107200009C4625210622614440460DF017F809F0FE
:10721000A3FB09F045F809F093FC09F0D5FE09F04D
:107220002BFB09F0C9FD0CF001FC09F005FF01F092
:10723000FFF9002800D1BEE001F0EEFE09F0FCFEEF
:1072400002AB9C461526162500276644654412E0CD
:10725000032800D183E0042809D1291C381C01F03F
:107260007DFC2A88201C391C0023FEF79DFF7B1C17
:10727000DFB2372F16D0381C01F0D0FA022800D127
:1072800078E0E5D80028F2D1381C0AA901F0A6FC64
:10729000391C0023201C0A9AFEF786FF7B1CDFB2F4
:1072A000372FE8D109F0C8FE40465C460C300A2171
:1072B00009F0DCFE5B466468197EDA7C587E5B7DF3
:1072C00000945C461426257B7543ADB20195E48994
:1072D0007443A4B20294032403940AF07BFE09F0E1
:1072E000ABFE0BF049FB002861D15046FFF754FB81
:1072F000022009F05FFB01F081FF07231840C00561
:1073000009F058FB4E4CA06809F010FB00283CD057
:10731000802009F031FBA2685378927899013F23CD
:1073200013400B43612259468B54042009A901F0F4
:1073300055FC8020099B4001022B41D009F032FB13
:107340004B461B68DB0303D55B46DB7D9B072AD4DA
:1073500013B03CBC90469946A246AB46F0BD0DA981
:10736000381C01F01BFC201C391C00220DABFEF761
:107370001BFF7CE7311C381C01F0D0FB3278201C4D
:10738000391C0023FEF710FF71E702F093FFF02392
:107390001840B028C9D102F08DFF0F235A4618407B
:1073A0005233D054C1E701200CF0BCFAD0E70420DE
:1073B00009F0E2FA99E70130FF3009F0DDFA3BE726
:1073C00009F0F8FABCE714230DAD2B70123B6B707B
:1073D000AA7001F04FFEE87108F0EEFDA88008F0F9
:1073E000F1FDA87108F0FAFDE87009F0BFFAA86095
:1073F00009F0D2FA3B785A462B744C23D35AE860F2
:10740000281C6B7409F05EFA0B4F291C3868142293
:1074100004F02EFB0B4803F0EDFAE1E658340020AF
:10742000683400203C340020C02400206C3400204C
:107430003D340020603400206434002040250020CA
:1074400024200020C8480200142310B586B001ACE7
:107450006070201C237009F035FA044B22781868FC
:10746000211C04F005FB06B010BDC04664340020AA
:1074700008B5044B1B78042B01D0012008BDFEF792
:10748000ADFFC0463D34002008B5124B1B78DA1E14
:10749000012A08D9104BDB7D9B0700D408BD0320CF
:1074A0000CF040FAFAE7032B0ED00C4803F0A2FAD6
:1074B000002009F095F90CF06FFB09F09FFD03F037
:1074C0002BFA03F03FFAE9E7034B2120996B01F017
:1074D00073FAEAE73D340020C02400200C49020082
:1074E000F0B58FB003236A46041C0D1C937009F09D
:1074F0001DFA00282BD0142D32DC2278AA421DD18F
:10750000032A00DCABE1D948211C0CF097FE63781C
:107510005AB2002A00DA8EE1D54AD25C6B469B78DB
:107520009A4224D3201C01F0CDFD002816D06378A8
:10753000132B13D8CF4A9B00D3589F46CE4803F055
:1075400059FA012401F048FE201C0FB0F0BDCB48D1
:1075500003F050FA012401F03FFEF5E70024F3E7C1
:10756000C74803F047FA012401F036FEECE7C548AE
:1075700003F040FA0024E7E7A07803F08BF9002439
:10758000E2E703F07DF90024DEE7A0780CF0CAF909
:107590000024D9E71420A378002458430CF098FA6B
:1075A000D2E703F083F90024CEE700F0A3FF002424
:1075B000CAE7102309AC2370053B637001F026FE77
:1075C0002723020A6B4418705A70020C000E9A703E
:1075D000D87001F013FEA070002001F01DFE2B23D7
:1075E0006B441870000A5870012001F015FE2D231D
:1075F0006B441870000A58700AF082FBE0720AF0BF
:1076000093FB207302F062FE051C03F04BF90F237D
:107610002D01184028436073201C09F053F99A4B40
:10762000211C1868102204F023FA00248CE714238C
:1076300009AC23700A3B6370944B954D1B78A37083
:107640006023EB5CE370EB6D0A9309F0C5F9E08110
:107650000AF0AAFB437802781B0213432381C37804
:1076600082781B0213436381437902791B0213431F
:10767000A3816123EB5C23746B6E6374201C09F09F
:1076800021F9814B211C1868142204F0F1F900241F
:107690005AE77E4B1B78DA1E012A00D836E17C4B74
:1076A0000024DB7D9B0700D44EE703200CF03AF961
:1076B0004AE7764B1B78042B00D145E10D220021CF
:1076C00009AC2270063A62700132A2701F326A441D
:1076D00013701B0E51709170D37001F097FD2B2326
:1076E000020A6B4418705A70020C000E9A70D8701F
:1076F000201C09F0E7F8644B211C18680D2204F0E7
:10770000B7F9002420E7634803F074F900241BE76D
:107710000E20FFF741F9002416E76B46A178987810
:10772000DA1D01F087F8002800D0C9E06A460D2371
:107730001371093B5371A37801A8937109F0C2F842
:10774000514B01A918686B461A7904F091F900248D
:10775000FAE66B4698782379E67862791B02334320
:1077600012041D1C131CA2792B431206257A1A43FE
:10777000E779637A2D023D431B042B431D1CA37A3A
:10778000A1781B062B4301F0B1F8002800D1A1E03D
:107790000D23A27809AC2370063B6370043BA370F1
:1077A000243300216B441A70120E59709970DA70EC
:1077B00093E7364B00241B78042B00D0C4E609F075
:1077C0003BFC01200421FEF731FF09F017FCBBE66A
:1077D000142309AC2370123B63702C4B1B78A370ED
:1077E00001F048FCE07108F0E7FBA08008F0EAFB3C
:1077F000A07108F0F3FBE07009F0B8F8A06009F0A0
:10780000CBF8254B224A1B78E06023744C23D35AD3
:1078100033E71E4B1B78032B04D0053B0024012BC0
:1078200000D991E609F008FC0420FFF749F800248C
:1078300009F0E4FB88E6201C05A96A4601F056FC25
:10784000002875D16B469B78012B32D0022B29D0B2
:10785000124803F0CFF86B4605AC5B7D5CE6012473
:107860000F4803F0C7F864426EE6C0464434002077
:10787000A44802002C4802003049020018490200C6
:107880002449020080490200643400203D34002075
:10789000C02400206C4902006034002050490200DE
:1078A0008C490200294803F0A5F86B4605AC5B7DC6
:1078B00032E6274803F09EF86B4605AC5B7D2BE66D
:1078C0000D23A27809AC2370063B6370033BA370C1
:1078D000233366E72379E2781B0213436279181C8D
:1078E0001204131CA279034312061A43A178E31C65
:1078F0006846FEF759FC002800D049E70D23A2781E
:1079000009AC2370073B6370033B48E7032B15D09A
:10791000104803F06FF8002008F062FF00240CF01C
:107920003BF909F06BFB02F0F7FF03F00BF80BE6F5
:107930000224094803F05EF8644205E6074B212063
:10794000996B01F039F8E3E7FEF748FD484902007A
:107950003C4902000C4902005C490200C02400209E
:1079600008B5884200D008BD044909789142FAD18F
:10797000181C0121FEF75AFEF5E7C0463D340020F1
:10798000A0233F4ADB00D058421E90413D4AD358C5
:10799000002B01D002231843A0233B4ADB00D3581D
:1079A000002B01D004231843A023364ADB00D35810
:1079B000002B01D008231843A023334ADB00D358FF
:1079C000002B01D010231843A0232E4ADB00D358EC
:1079D000002B01D0202318432C4B1B68002B01D017
:1079E00040231843294B5B68002B01D040231843E8
:1079F000264B9B68002B01D040231843234BDB68A8
:107A0000002B01D040231843A023214ADB00D35888
:107A1000002B01D080231843A0231E4ADB00D3583B
:107A2000002B02D08023DB0118438023DB05DB6FB2
:107A3000002B02D080231B021843A223134ADB0031
:107A4000D3589B0702D080235B021843124B0F4A86
:107A5000D3589B0702D080239B021843A3230B4AD1
:107A6000DB00D3589B0702D08023DB0218430B4B6B
:107A7000064AD3589B0702D080231B031843704744
:107A80000020004000400040003000400060004006
:107A90000070004000200140140500001C0500009B
:107AA000F0B54F464646C0B4071C87B0012008F029
:107AB000F5FCC74D002F00D1C1E009F0BDFA0AF076
:107AC00057FE08F0B9FC002800D1A0E0042008F01F
:107AD00079FF002800D1C0E008F0B2FC002800D1F6
:107AE00091E0082008F06EFF002800D1C0E009F006
:107AF0008BFB09F0CDFBB74B041C98461B78092B78
:107B00002ED8B54A9B00D3589F4608F049FC4C2319
:107B1000E8528020C00308F055FF9122002801D0D0
:107B2000A02252004223EB5A002B00D17BE24C23CF
:107B3000EC5AAB689C42A4416442AB6C934200D8BF
:107B40004DE2022008F03EFF002800D1B7E10520F9
:107B50000BF0F4F80220FEF781FC022000F0AEFFEB
:107B60009E4B9F4E994608F017FFAB6B1843A863D6
:107B7000B020800008F026FF441EA041B37EC4B2AE
:107B8000A34211D0002C04D043461B78032B00D114
:107B900069E1944802F02EFF4B461B78002B54D02D
:107BA0000020FEF7FFFAB4764B461B78002B3CD042
:107BB000F369002F2FD0002B00DC8EE1032B00D1C6
:107BC000B8E1052B00D111E14346187809F02AF9F4
:107BD000002F05D1B3680133B360142B00D14EE1FF
:107BE00009F03EFA002801D009F008FA002008F058
:107BF00055FCFFF7C5FE002008F050FC07B00CBC98
:107C000090469946F0BD082008F0CCFE6FE70420AE
:107C100008F0C8FE60E7013BF361CCE701200AF001
:107C200049FB201CFFF760F89AE708F0B5FEC30790
:107C3000CAD5012008F0B6FE02F072FDC4E7AB6CB5
:107C40000133AB640BF0CEFF37E7A020800002F0D9
:107C5000D5FD0020FEF7A6FAA5E7043008F0AAFE3D
:107C6000EB7D9B0700D437E707200BF05BFE33E783
:107C7000083008F09FFE3AE7122800D193E28020F6
:107C8000800308F09FFE002804D0AB6CEA6B93429F
:107C900000D924E2514B99461B78002B00D03BE2DF
:107CA00000236B65002F02D12B6D01332B6508F08B
:107CB000B5FC00280FD12B6D2A6B93420BD943469C
:107CC0001B78DA1E012A00D8F4E2EB7D9B0702D56F
:107CD00003200BF027FE0420694600F07FFF802080
:107CE000009B4001022B00D151E208F05BFE3C4EAC
:107CF00039E7AB6C142B00D832E7EB7D9B0700D43F
:107D00002EE7364B364E994603200BF00BFE2AE742
:107D10008020C00308F056FE334B9B88002801D01A
:107D200078339BB2AA6C934200D333E1022008F06F
:107D300049FE002800D1C8E005200AF0FFFF02201C
:107D4000FEF7F2FB254B264E99460CE7122800D190
:107D50002EE28020800308F035FE002804D0AB6CB2
:107D6000EA6B934200D979E11C4B99461B78002BB2
:107D700000D0BDE19020400308F024FE002800D18F
:107D8000B2E10420694600F029FF8020009B4001F9
:107D9000022B00D1DBE108F005FE114E4B461B78AB
:107DA000002B00D0DFE608F039FC002800D0DAE62E
:107DB000AB6C2A6A934200D822E243461B78DA1E53
:107DC000012A00D887E2EB7D9B0700D4CBE69BE736
:107DD000C02400203D3400207C4802006C34002088
:107DE00040250020C44902002420002001AC0B33B0
:107DF0002370053B637001F009FA6B46020AD871E3
:107E00001A72020C000E5A72987201F0F7F9A07003
:107E1000002001F001FA0B236B441870000A58701F
:107E2000012001F0F9F90D236B441870000A587015
:107E300009F066FFE07209F077FF207302F046FA5E
:107E4000814602F02FFD0F224B4610401B011843C4
:107E50006073201C08F036FDD84B211C18681022D6
:107E600003F006FEB0E6D64802F0C4FD4B461B7890
:107E7000002B00D1EEE00420FEF794F993E6EB6DC1
:107E8000B7600133EB6508F02FFE01F0F9F808F058
:107E9000ABF8C10F091848100C3601B2301C09F0BC
:107EA000EBF84123EB56C0184023EB566866984226
:107EB00000DCCAE08020C00308F074FD90E60220D8
:107EC00000F0FCFD032000F0F9FD05200221FEF783
:107ED000ADFBBC4BBC4E994645E6142301AC99461C
:107EE00023700223637043461B78A37001F0C2F82D
:107EF000E07108F061F8A08008F064F8A07108F063
:107F00006DF8E07008F032FDA06008F045FDAF4B61
:107F1000E0601B78201C23744C23EB5A637408F038
:107F2000D1FCA64B211C1868142203F0A1FD4B467E
:107F3000F36149E601AC113323700A3B6370434699
:107F40001B78A3706023EB5CE370EB6D029308F089
:107F500043FDE08109F028FF437802781B021343B8
:107F60002381C37882781B021343638143790279AA
:107F70001B021343A3816123EB5C201C23746B6EF3
:107F8000637408F09FFC8D4B211C1868142203F0C9
:107F90006FFD19E60AF024FE00284CD108F044FCDD
:107FA000002803D0AB6C1E2B00D940E108F046FC42
:107FB000041E00D034E14423AA6CEB5C934200D34E
:107FC000CEE55A26AB5D002B00D1C9E54623E85C1F
:107FD0000AF07CFE7B4BAC5599467B4EC3E508F01E
:107FE0002DFC002844D0AB6C1E2B00D8B8E528200F
:107FF00009F056F908F022FC002800D1FBE002202D
:108000000AF09CFE0B20FEF75BFC032000F056FDFF
:10801000EB7D9B0700D579E1002008F03FFA694B22
:10802000694E99469FE54C23EC5AAB689C46A445A3
:10803000A441644281E507200AF080FE0720FEF794
:108040003FFC604B604E99468DE58020C00308F0F0
:10805000B1FCC5E5A02002F0D1FB0CE709F0AAFEB7
:108060008020800308F09EFC594802F0C3FC7BE6A8
:1080700008F0DAFB061E00D0FBE04423AA6CEB5CA0
:10808000934205D25A239946EB5C002B00D033E192
:10809000002C00D1E3E08020C00308F093FCAB6C1F
:1080A000002803D04B4A934200D859E54A4A5288E7
:1080B0009A4200D354E55822AB5A01339BB2AB52DB
:1080C000163AAA5A9A4200D34AE502200AF036FE2E
:1080D0000D20FEF7F5FB032000F0F0FC0DE68020FC
:1080E000800308F05FFCD5E501300AF0E3F848E6CC
:1080F00000F0C0FF022800D03CE66023EA561623B9
:10810000EB569A4200DCB9E0022C00D032E6013096
:108110000221FEF7B9FC2DE600F0ACFF02285DD08D
:108120004B461B78002B00D1BAE500232B65002FAE
:1081300002D16B6D01336B6508F070FA002800D036
:10814000C9E56B6D6A6A934200D8C4E5B7E508F0EB
:1081500031FCAB6C0A2B00D81FE60820FEF7B0FB01
:10816000AA8D194E002A00D118E6338B01339BB239
:1081700033839A4200D911E60021042000F01CFC50
:108180008020400108F00EFC0023338306E608F04F
:1081900011FCAB6C0A2B00D8A9E501200821FEF7E1
:1081A00045FA094EDFE404200821FEF76DFC66E580
:1081B00003200721FEF768FCCBE5C04664340020AD
:1081C000B84902006C3400204025002060340020B3
:1081D000A049020057020000242000206023EA5634
:1081E0001623EB569A4257DD022C99D10230012119
:1081F000FEF74AFC94E78020C00108F0DBFB0BE7A8
:1082000007F0E0FE6B78834200D8ACE4C823AA6C88
:108210005B009A4200D8A6E41420FFF735F9A2E4E7
:1082200001200AF08BFD0320FEF77EF998E401207F
:1082300008F034F9012008F0BDF9282009F030F8E1
:1082400008F0F2FA0028D6D005200AF077FD0520C4
:108250000A21FEF7EBF9012008F020F9DCE60AF02C
:10826000BFFC002856D15823EC52354B354E994669
:1082700079E401200AF062FD03206CE4022C00D0B6
:1082800078E5314802F0B6FBEB7D1C4200D171E588
:1082900003200BF047FB6DE5022C00D040E72A4895
:1082A00002F0A8FBEB7D1C4200D139E703200BF064
:1082B00039FB35E7032B38D0244802F09BFB002024
:1082C00008F08EFA0BF068FC08F098FE02F024FB30
:1082D00002F038FBFFE4032B2CD01C4802F08AFB91
:1082E000002008F07DFA0BF057FC08F087FE02F042
:1082F00013FB02F027FB36E44623E85C0AF0AEFCF1
:108300004B46EE540E4B0F4E99462CE403200BF0D7
:1083100009FB81E607200AF011FD0C20FEF7D0FAD8
:10832000074B084E9946FFF71EFCA96B213000F061
:1083300043FBC1E7A96B213000F03EFBCDE7C0460F
:108340006C34002040250020A84902000C4902009E
:1083500008B50078FFF7A4FB08BDC046014A024BF0
:108360001A607047FFFF000060250020FF2130B534
:10837000084C23681D0A0D401A022B1C134343406E
:10838000D8B2000958400303584001404901484011
:10839000206030BD60250020014B18887047C04622
:1083A00060250020F0B50378164F9C466246164BB8
:1083B000961E36043B60360C21D0041CFF2586191E
:1083C000190A29401B020B43217801345940CBB2D2
:1083D0001B094B401A035A402B1C13405B015340AE
:1083E000B442EDD13B60DAB29BB21B0A614645183C
:1083F000013D2A700278801802380370F0BDFF2317
:10840000FF22F3E760250020FFFF0000F0B50F4BCF
:108410000F4E3360002916D00025FF271C0A3C4070
:108420001B022343445D01355C40E3B21B096340FA
:108430001A035A403B1C13405B0153408D42EDDB55
:10844000336098B2F0BD181CFCE7C046FFFF000087
:1084500060250020F0B589B00C1C051C2349684636
:1084600020220BF0EBFE002C03D1E80F800309B0B3
:10847000F0BD002C2EDB02230020002D30DDA542B4
:1084800003DC631B2D191C1C0130194B07039D4293
:1084900001DC2D0324036B4600209A1C012307E016
:1084A000A41B1688013380194D1902320C2B0DD0F4
:1084B000211C2E1C19411E41002CF1DAA41916882A
:1084C0000133801B6D1A02320C2BF1D18010C019C0
:1084D00080B2CCE76D42644206230420002DCEDC3E
:1084E0006A42181C251C141CC9E7C046D04902006A
:1084F000FFFF0000F0B5454657464E464B4BE0B4F3
:1085000098461D1C012382B000240027994606E0EE
:108510000127013405F044FC1035372C1CD02E788F
:10852000A642F5D1022C00D17DE0362C00D17AE0B4
:10853000230143449A78022A29D014D9042A4ED020
:108540003AD3FE2AE5D14B4601341F43FFB205F072
:1085500027FC1035372CE2D1381C02B01CBC9046E9
:108560009946A246F0BD002A4ED19B689A4608F073
:1085700077FD00284BD036014644F078514608F08C
:1085800085FF061C374308F039FDFFB2C1E79B6841
:108590009A4608F065FD00283FD06A4653463601EA
:1085A000D3714644F078D17909F040F8061C37437E
:1085B00008F024FDFFB2ACE79B689A4608F050FD36
:1085C00000282DD036014644F0785146524608F036
:1085D000E3FE061C374308F011FDFFB299E79B68E4
:1085E0009A4608F03DFD002814D06A4653463601ED
:1085F000D3714644F078D17908F0BAFF061C3743AE
:1086000008F0FCFCFFB284E7012A9CD081E708F067
:1086100013FDB0E708F010FDE7E708F00DFDBCE73B
:1086200008F00AFDCEE7002773E7C046F0490200D4
:108630007023F0B557464E4645469A46E0B40025AD
:108640000026744F744C84B0BA442378AB422DD0CA
:10865000A3780126022B66D05CD9032B00D18AE0D7
:10866000042B17D108F0FCFC00282BD002236B440C
:108670009846E778191C381C08F0BEFF08F0BEFCCD
:1086800043461A88A3889A4205D9A3782689042BE1
:1086900000D19BE0012601351034372DD5D1301C97
:1086A00004B01CBC90469946A246F0BDA378022BAC
:1086B00039D00AD9032B5ED0042BECD108F0D0FCC2
:1086C0000028D3D108F0B8FCD0E7002BE3D108F0A4
:1086D000C7FC002824D0E77801A9381C08F02EFF39
:1086E00008F08CFC019B62689342D4D9A378A668F9
:1086F000002BCFD108F0B4FC00287BD0311C381CF3
:10870000013508F0C3FE012608F078FC1034372D3F
:108710009BD1C4E7002BBDD108F0A2FC0028DAD120
:1087200008F08AFCD7E708F09BFC00285FD0012303
:108730006B449846E778191C381C08F0BBFF08F01A
:108740005DFC434622791B789A42A4D2A378267A0C
:10875000022B9FD108F084FC00284ED0311C381C1D
:10876000013508F063FF012608F048FC1034372D6E
:1087700000D06AE793E708F073FC002843D0E37861
:1087800002A9181C984608F0BFFE08F037FC02A8A2
:10879000514608220BF02AFD002800D07BE7A36891
:1087A0009946A378032B00D075E708F059FC002800
:1087B0002CD049464A464046013508F0EDFD1034BC
:1087C00008F01CFC372D00D03FE768E708F048FCB4
:1087D000002815D0311C381C013508F0C9FE0126CF
:1087E00008F00CFC1034372D00D02EE757E708F0C6
:1087F00023FC9CE708F020FC80E708F01DFCADE7B7
:1088000008F01AFCE6E708F017FCB8E708F014FCDB
:10881000CFE7C046F04C0200F0490200FE233628A4
:1088200001D9181C7047024B000118188378F8E72B
:10883000F0490200F0B5474680B4012482B03629E1
:1088400008D8294E0D0177197B7801349B069B0FC0
:10885000984204DD201C02B004BC9046F0BDBB78F9
:108860009046022B27D0042B15D108F0F9FB0028E5
:1088700037D06B467519E8789D1C291C08F0BCFEA2
:10888000041C08F0BBFB2B88404601A9042201937D
:108890000BF0D4FCDEE70124002BDBD108F0E0FB79
:1088A00000281BD07519E878414608F047FE041CE3
:1088B00008F0A4FBCEE708F0D3FB00280BD06B46F2
:1088C0007519E8789D1C291C08F0F4FE041C08F0BA
:1088D00095FB2B78D8E708F0AFFBF0E708F0ACFB8E
:1088E000E0E708F0A9FBC4E7F0490200F0B547460D
:1088F000161C80B401241F1C362909D82D4D0B01EC
:10890000EA189846537801349B069B0F984203DD82
:10891000201C04BC9046F0BD9378022B1FD02BD9AD
:10892000032B0ED0042B42D108F09AFB002835D03F
:108930004544E878B1B208F01BFE041C08F05EFB69
:10894000E6E708F08DFB00282ED04544E878311C7E
:108950003A1C08F021FD041C08F050FBD8E708F091
:108960007FFB00281DD04544E878F1B208F05EFE98
:10897000041C08F043FBCBE7002B18D108F070FB78
:10898000002808D04544E878311C08F07FFD041C1D
:1089900008F034FBBCE708F04FFBF3E708F04CFBB2
:1089A000C6E708F049FBDEE708F046FBCDE7012407
:1089B000AEE7C046F049020070B50125362805D85B
:1089C0000C4E040133199B78002B01D0281C70BD7C
:1089D0000D1C08F045FB002808D03019291CC07870
:1089E00008F054FD051C08F009FBEFE708F024FB34
:1089F000F3E7C046F0490200F8B50125362805D84E
:108A00000D4F04013B199B78032B01D0281CF8BDA6
:108A1000151C0E1C08F024FB002809D038192A1C4C
:108A2000311CC07808F0B8FC051C08F0E7FAEDE747
:108A300008F002FBF2E7C046F049020070B50125DC
:108A4000362805D80C4E040133199B78042B01D02D
:108A5000281C70BD0D1C08F003FB002808D030193D
:108A6000291CC07808F084FD051C08F0C7FAEFE760
:108A700008F0E2FAF3E7C046F049020070B50125BC
:108A8000362805D80C4E040133199B78022B01D0EF
:108A9000281C70BD0D1C08F0E3FA002808D030191E
:108AA000291CC07808F0C2FD051C08F0A7FAEFE702
:108AB00008F0C2FAF3E7C046F049020070B501259C
:108AC00082B0362802D9281C02B070BD124E0401B3
:108AD00033199B78002BF6D108F0C2FA002817D082
:108AE0003019C57801A9281C08F028FD08F086FA7D
:108AF000019B5C1C08F0B4FA002801D108F09CFA34
:108B0000281C211C08F0C2FC051C08F077FADAE7E3
:108B100008F092FAE4E7C046F049020070B501257A
:108B2000362805D80C4E040133199B78022B01D04E
:108B3000281C70BD0D1C08F093FA002808D03019CD
:108B4000291CC07808F0B6FD051C08F057FAEFE7BD
:108B500008F072FAF3E7C046F049020070B501254B
:108B6000362805D80C4E040133199B78042B01D00C
:108B7000281C70BD0D1C08F073FA002808D03019AD
:108B8000291CC07808F038FD051C08F037FAEFE71B
:108B900008F052FAF3E7C046F049020070B5042528
:108BA000362801D9281C70BD0B4E040133199B785F
:108BB000032BF7D10D1C08F053FA002808D0301908
:108BC000291CC07808F0A0FC051C08F017FAE9E79A
:108BD00008F032FAF3E7C046F049020070B5042508
:108BE000362801D9281C70BD0B4E040133199B781F
:108BF000002BF7D10D1C08F033FA002808D03019EB
:108C0000291CC07808F09AFC051C08F0F7F9E9E780
:108C100008F012FAF3E7C046F049020070B50125EA
:108C2000362805D80C4E040133199B78012B01D04E
:108C3000281C70BD151C08F013FA002809D0301943
:108C4000291C2022C07808F067FB051C08F0D6F923
:108C5000EEE708F0F1F9F2E7F049020070B50125FE
:108C6000362805D80C4E040133199B78012B01D00E
:108C7000281C70BD151C08F0F3F9002809D0301924
:108C8000291C2022C07808F02DFB051C08F0B6F93D
:108C9000EEE708F0D1F9F2E7F0490200014B187055
:108CA0007047C04664250020F0B54D465F465646E5
:108CB0004446F0B40E1C371C8BB004AD111C041CD0
:108CC0009146281C0822153F0BF0B8FAFBB2052B81
:108CD0000CD8C44A9B00D3589F462378002B43D01E
:108CE00001239B460193002398461EE02278002A28
:108CF00014D100239B460193013398469A46BA4CFF
:108D00004846211C08220BF071FA00283BD1FFB223
:108D1000052F47D8B54BBF00DB599F46012B41D9E2
:108D200000239B46019301339846331C173B012BCC
:108D300000D873E00123193E9A46012E4CD94346D0
:108D4000002B2FD15346002B30D0A94B032098463F
:108D50001E78019B9E4200D196E00BB03CBC904631
:108D60009946A246AB46F0BD01339B4601930023D2
:108D70009D4C984648460133211C08229A460BF028
:108D800035FA0028C3D0211C4846083108220BF0D0
:108D90002DFA0028D3D1BAE72378002B46D0637888
:108DA000002B01D10120D8E700239B46914B0020E6
:108DB000043306CD06C35A468D4B1A70CDE7002307
:108DC0009A462378002B11D0022301939B4600235F
:108DD000193E9846012EB5D86378022BAFD10120F9
:108DE000BBE701239A462378002BEDD102339B4643
:108DF00001930023984682E72378002B28D06378DC
:108E0000002BCFD0002301939FE72378002B25D0A0
:108E100001239B4663785B45C8D1C3E701239A468B
:108E20006378012B00D08AE7012096E76E4C484614
:108E3000211C08220BF0DAF90023019398469B4687
:108E40009A4600289FD12B1C103406CC06C376E727
:108E50009B460193984601339A4650E701339B465F
:108E60000193002398469A4649E72B1C183406CCF8
:108E700006C364E72B1C283406CC06C35FE72B1C13
:108E8000203406CC06C35AE75B4B36249B46019B35
:108E900000215C435B461B19597401339946554BBD
:108EA0000822191D48460BF0C9F9201C5844291CFA
:108EB000082209300BF0C2F94B4C06AD211C281CCE
:108EC000303110220BF0BAF94A4B1B7B9A46002B2B
:108ED00060D036275B4677434846DE551021FFF7C2
:108EE00095FA5B46DB19988200220193231C141C1F
:108EF0009A46022316375F442B706C70002E1FD1E8
:108F00000F33AB7002AA94461A233A4963441431D2
:108F1000181C06220BF092F95146381C4A462B1CAD
:108F2000403101F03BF80122019B10375A74103395
:108F3000012C0AD0012402236C702B70002EDFD08C
:108F4000012E45D03323AB70DCE75246191C1D1CA3
:108F5000A2460F23141C4246137000238B70211C61
:108F60004846103110220BF041F9002801D1524639
:108F7000AA70211C4846203110220BF037F9031C3F
:108F80000020002B00D0E8E636335E43353B5E44DC
:108F9000B374E2E602ABDF1D534652463B70174BFB
:108FA00013201A70134B191C10315A73FFF716FE59
:108FB000387010481430FEF79DF83B782020002BC5
:108FC00009D007F0E1FC52460A4B1A733B7880E760
:108FD0002223AB7096E707F0CFFC0123054A1373F9
:108FE0003B7876E7684D0200984D0200804D020004
:108FF000302000206425002070340020DC34002064
:10900000014B98767047C04664250020014B987E3E
:109010007047C0466425002070B5114D82B06B4684
:10902000291C0026DC1D0F4B103113201E702670EA
:109030006E73FFF7D3FD2070281C1430FEF75AF82A
:1090400023782020002B06D007F09EFC2E7320787A
:10905000C0B202B070BD07F08FFC01232B73F6E79E
:1090600064250020DC340020014B187B7047C0468B
:1090700064250020014B18787047C046DC3400207E
:1090800010B5FEF781F8002804D00C4C2378002B93
:1090900006D010BD094B1A78002AFAD01870F8E7EC
:1090A00001F0F2F8002803D1054B9B7E002BF0D194
:1090B0002378042BEDD004232370EAE7DC3400206E
:1090C0006425002008B5084B1A78042A04D1427898
:1090D0000F2A03D0042A01D0012008BD02221A70F1
:1090E000FEF746F8F8E7C046DC340020F0B55F46EE
:1090F0004D4644465646F0B40024354D8DB02B7B8A
:1091000009940A940B9404940594069407940127F7
:10911000002B07D1381C0DB03CBC90469946A246A6
:10912000AB46F0BD914602AA0391061C9446291C49
:109130001E206B69103108932B8B604493830422AB
:109140000BF07CF87378B11C9A093A4092460322DE
:109150001B09504693461A4036234343561C9046FB
:109160003201D3181B4A04A89B1808AA00920633A0
:10917000102200F025FF04A807F0D8FB002814D126
:109180004B465A469A7042461F705A702B78002BF5
:1091900001D10327BEE76A7B0132D2B26A739342E0
:1091A000F7D801F0B9FB0327B4E71320FFF786FCDB
:1091B0002B6910220133039804A92B610BF03EF8B0
:1091C0004B4652461F709E705A706C730027A1E781
:1091D000642500207034002008B5074A537B013312
:1091E000DBB253731278002A01D0934200D208BD3B
:1091F00001F092FBFBE7C04664250020024B987EFD
:10920000431E98410230704764250020014B1869C5
:109210007047C046642500200022022807D8362364
:1092200043430548C318597C1033012901D0101C51
:1092300070479A88FBE7C04670340020002302285C
:1092400008D836335843044B1818437C013B584226
:109250004341DBB2181C7047703400200B4A0020D9
:10926000537C917C012B0DD04823D35C59424B4158
:109270005B4218404723D35C013B5A4253415B4257
:109280001840704748424841C0B2EDE770340020B2
:10929000014B18617047C04664250020F0B54F4669
:1092A00046462F48C0B403689A0737D11A6842600F
:1092B0005A6882609A68DB68C2600361847C031D1F
:1092C000027C417CC77C032080462648A1460425B9
:1092D0008446254E4046284209D1F45D705C4946DB
:1092E000A1466446B75CAA08A25C715C424018784B
:1092F0009C78424058780135414048466040DC78CF
:109300001A747C4059749874DC74271C04338146A9
:109310002C2DDFD10CBC90469946F0BD1A78027115
:109320005A7842719A788271DA78C2711A79027227
:109330005A7942729A798272DA79C2721A7A02730F
:109340005A7A42739A7A8273DA7AC2731A7B0274F7
:109350005A7B42749A7B8274DB7BC374AEE7C0464F
:1093600080250020E84E0200E84D0200F0B544469A
:109370005F4656464D46964BF0B45B6B954A984611
:10938000A423D25C43461B788DB0534042461370F1
:10939000A523904AD25C43465B78534042465370C3
:1093A000A6238C4AD25C43469B7853404246937036
:1093B000A723884AD25C4346DB7853404246D370A9
:1093C000A823844AD25C43461B795340424613711A
:1093D000A923804AD25C43465B795340424653718D
:1093E000AA237C4AD25C43469B7953404246937100
:1093F000AB23784AD25C4346DB7953404246D37173
:10940000AC23744AD25C43461B7A534042461372E3
:10941000AD23704AD25C43465B7A53404246537256
:10942000AE236C4AD25C43469B7A534042469372C9
:10943000AF23684AD25C4346DB7A53404246D3723C
:10944000B023644AD25C43461B7B534042461373AD
:10945000B123604AD25C43465B7B53404246537320
:10946000B2235C4AD25C43469B7B53404246937393
:10947000B323584AD25C4346DB7B53404246D37306
:10948000544B94330993102343440A93547A577BE3
:10949000009491799378907A557956780191917BDF
:1094A0009A460291D179D3780391D17A0491D17BF4
:1094B000059111788C46644647490C5DA1461470AD
:1094C0001479A4460C1C6146645C1471A346147A9A
:1094D000A4466146404C645C06941472147BA44616
:1094E00061463D4C645C07943B491473CF5D8E5DCF
:1094F0005770B8460F1C7D5D089656710B955572D6
:10950000009C354F344D3F5D2D5C0097577395702F
:109510000299AC46304D304F6D5C51467F5C957181
:1095200097720199BA462C4F2B4C795C9173039832
:109530003F5CD7700498284E245CF35CD471059886
:10954000305C4E46D0720193D373099B1B787340F5
:1095500046461370099B5B78734066465370099BBF
:109560009B7873409370099EF3785F40D77033798E
:10957000371C5E46734013717B79089E5E405671BE
:10958000BB795D409571FB795C40D4713B7A069E56
:10959000734013720B9D7B7A6B4055465372BB7AB6
:1095A0006B409372FB7A5840D072381C3B7B079C0F
:1095B000634013737B7B009F7B405373837B5940D5
:1095C00091730199C37B4B40111CD3730B9205E03F
:1095D0000026002080250020E84F02000B789A46E4
:1095E0004B781C1C8B7803949846CB780093534699
:1095F000D80942008218D000121858004240D2B256
:10960000101CD60943467200B218D6000490921975
:1096100040004240D5B2E80942008218D00012183A
:109620006800E6094240D7B27200B218D600600066
:1096300092194240D6B20595F5096A00AA18D500DC
:10964000700052194240D5B2E80942008218D00099
:10965000121868004240D4B20894DC096200A218D3
:10966000D400580014194440E4B2E00942008218C2
:10967000D0001218600042400297D7B2F8094200A9
:10968000009B8218D000079712187800DF0942402B
:1096900078003818C700C0195F007840C0B2C3090D
:1096A00099465F004F44FB0099460696B944D6B2EE
:1096B00001964E4647007E40F3B29946DB099C4630
:1096C0005F006744FB009C464B46BC4466465F0017
:1096D0007E40F3B2049F059E079A7740BB464646FC
:1096E00056405A46724093469C465B46069A039FF4
:1096F000029E57405F40089A7740019E574077404E
:109700006646009B5E4077400F704F46009B069E6A
:109710005F406E407E404746634667407E40019F03
:1097200056407E405E405346029F7B405E4053461B
:109730004E70059E079F5E40009B7C4043407440F6
:10974000029E5C40019B74405C406346039F5C400A
:109750003B1C53405C404B46434050468C70049C3D
:109760007D4044406B4063407340534062465340E9
:109770004246019850404340CB700A9B04318B42D3
:1097800000D02BE7099B5649103B0B9A09938B425B
:1097900000D07BE690464646524F3678131CBE5D9D
:1097A0004746507A547955789178DB7892793E70B3
:1097B0003E794C4FEDB2BE5D47463E713E7A494F11
:1097C000E4B2BE5D47463E723E7B464FC0B2BE5DD0
:1097D00047463E737E7B434FC9B2BE5D47467E70AF
:1097E000404ED2B2755DDBB27D713E4D2C5D7C7218
:1097F0003C4C205C3B4C7873B87A205C394CB87098
:10980000B87B205CB8713748415CB97235498A5CD5
:109810003449BA73FA798A5C3249FA70FA7A8A5C06
:109820003049FA71FA7B8A5CFA722E4AD35CFB7378
:109830002D4B1A793B7853403B702B4B5A797B78F0
:1098400053407B70284B9A79BB785340BB70264BB2
:10985000DA79FB785340FB70234B1A7A3B795340FB
:109860003B71214B5A7A7B7953407B711E4B9A7A1C
:10987000BB795340BB711C4BDA7AFB795340FB71C7
:10988000194B1A7B3B7A53403B72174B5A7B7B7ABE
:1098900053407B72144B9A7BBB7A5340BB72124B82
:1098A000DA7BFB7A5340FB720F4B1A7C3B7B5340B5
:1098B0003B730D4B5A7C7B7B53407B730A4B9A7CEA
:1098C000BB7B5340BB73084BDA7CFB7B5340FB7381
:1098D0000DB03CBC90469946A246AB46F0BDC04692
:1098E00084250020E84F020080250020F0B55F4667
:1098F00056464D464446F0B4FC4BFD4A5B6B11792D
:109900001A788BB04A401A70F94A51795A784A400D
:109910005A70F74A91799A784A409A70F44AD17904
:10992000DA784A40DA70F24A117A1A794A401A71A2
:10993000EF4A517A5A794A405A71ED4A917A9A79A6
:109940004A409A71EA4AD17ADA794A40DA71E84AA9
:10995000117B1A7A4A401A72E54A517B5A7A4A4078
:109960005A72E34A917B9A7A4A409A72E04AD17BD2
:10997000DA7A4A40DA72DE4A117C1A7B4A401A735C
:10998000DB4A517C5A7B4A405A73D94A917C9A7B74
:109990004A409A73D64AD47CDA7B54401A7890466F
:1099A0001A7992461A7A08925A781F7B00925A794D
:1099B00003929A785E7A5D7B099299790491997AFB
:1099C0000691CB49D878894614218C46C949E1448F
:1099D0008B4610218C469C4461469A7B0290D87934
:1099E0000590D87A0792089A01919446099A4946B7
:1099F0009946069B0690201C4446904608915A467C
:109A0000145D4A46514614705A46545C4A466146B3
:109A100014715A46545C4A4614725A46D45D4A46FA
:109A200014735A460099525C5946895D00928C46DF
:109A300059464C5D4546495D079A8A465946CF5C72
:109A40005B46049D8E5C4D5D0299059A5B5C5946B0
:109A50000293069B8A5CCB5C085C04935B4603998B
:109A60005B5C98464B464146597061465971694660
:109A70005C7209789F7059735146997269469E715C
:109A80009D73D870097CDA726A46D973127ADA71DA
:109A90004A4656789578D178301C8C4669400C1C23
:109AA000137858404440271C5F40B846C709BA465F
:109AB0007F0057440093FB009A46434657444000BA
:109AC000784058401070301C6840C30998465F00C9
:109AD0004744FB0098466346474440006640784050
:109AE00046405670CE0970003018C60080194900F3
:109AF000414065404D400099957059400B1C6146AE
:109B0000D8094C4041004118C80009185B004B407F
:109B10005C40019BD47004329342BAD14B46089802
:109B20001B7804785C404B461C704B4642785B784F
:109B30005A404B4600925A704B4682789B785A4066
:109B40004B469A704B469046DB78C2785A404B465B
:109B50000292DA704B4602791B795A404B461A71D1
:109B60004B4692465B7942795A404B4603925A7172
:109B70004B4682799B795A404B4604929A714B46E8
:109B8000C279DB795A404B460592DA714B46027A2C
:109B90001B7A5A404B461A724B46467A5B7A944679
:109BA0005E404B465E724B46827A9B7A53404A46F1
:109BB00093724A46C17AD27A51404A460691D1728E
:109BC0004A46077B127B011C57404A4617734A4698
:109BD000457B527B55404A4655734A46807B927B73
:109BE0004240484607928273C87B1031021C4846A7
:109BF000C07B50404A46D0733F4A0891914200D002
:109C0000FDE64B4659461A7858468A5C5D791A70CB
:109C10001A795C788A5C1A711A7A8A5C1A721A7BD1
:109C20008A5C1A735A7A8A5C5A715A7B8A5C5A72B5
:109C30009A788F5C9A798E5C9A7A8A5C9A709A7B11
:109C40008A5C9A71DA788A5CD9799446425CD87ACF
:109C500090465A46105CDA7B9F7291465A464946B6
:109C6000525C2349DA705A46145D555D4246DA72F9
:109C70006246DA71A4225D705C739E73D873895C4E
:109C80001A784A401A70A5221949895CEAB24A40FA
:109C90005A70A6221649895C9A784A409A70A7227F
:109CA0001349895CDA784A40DA70A8221049895C45
:109CB0001A794A401A71A9220D49895C5A794A4099
:109CC0005A71AA220A49895C9A794A409A71AB2250
:109CD0000749895CDA794A40DA71AC220449895C27
:109CE0001A7A4A401A72AD2208E0C04600260020C7
:109CF00080250020E84D0200242600201749895CB9
:109D00005A7A4A405A72AE221449895CFAB24A40E1
:109D10009A72AF221149895CDA7A4A40DA72B0222B
:109D20000E49895C1A7B4A401A73B1220B49895C3F
:109D3000E2B24A405A73B2220849895CF2B24A4000
:109D40009A73B3220549895CC2B24A40DA730BB0F8
:109D50003CBC90469946A246AB46F0BD802500200B
:109D6000F0B557464E464546E0B4071C0F209046D6
:109D7000024091463A1C0A430C1C920700D0C4E0F2
:109D80000022101C391D8C425041011C201D8742AD
:109D900052410A43D2B2002A00D1B6E022683A60AA
:109DA00062687A60A268BA60E268FA60794E7763A6
:109DB000002B03D0784A1360FFF770FA089B002B42
:109DC00000D0B3634346002B00D1E1E0B36B3D1CF0
:109DD00000E05546197822784A4022705878617818
:109DE000414061709878A1784140A170D878E178BD
:109DF0004140E170187921794140217158796179A8
:109E0000414061719879A1794140A171D879E17996
:109E10004140E171187A217A41402172587A617A81
:109E200041406172987AA17A4140A172D87AE17A70
:109E30004140E172187B217B41402173587B617B5B
:109E400041406173987BA17B4140A173D97BE37B47
:109E50004B40E3732A7063786B70A378AB70E37840
:109E6000EB7023792B7163796B71A379AB71E37913
:109E7000EB71237A2B72637A6B72A37A7563AB7280
:109E8000E37AEB72237B2B73637B6B73A37BAB73E4
:109E9000E37B1034EB73FFF729FD10239A46AA44A5
:109EA0005246B5632B1CD21B904592D84B46002BD3
:109EB00026D0534623439B0748D100235046191C04
:109EC000221D904259410A1C514604318C425B418B
:109ED0001343DBB2002B39D0226802606268426013
:109EE000A2688260E268C2604B4610224846D21ADD
:109EF000504400210AF0E0F953467363FFF7F6FC83
:109F00001CBC90469946A246F0BD22783A70627811
:109F10007A70A278BA70E278FA7022793A7162792E
:109F20007A71A279BA71E279FA71227A3A72627A16
:109F30007A72A27ABA72E27AFA72227B3A73627BFE
:109F40007A73A27BBA73E27BFA732FE752462378C7
:109F5000137063785370A3789370E378D370237988
:109F6000137163795371A3799371E379D371237A70
:109F70001372637A5372A37A9372E37AD372237B58
:109F80001373637B5373A37B9373E37BD373ABE74D
:109F9000BA468BE7002600208025002070B51E1CE5
:109FA000051C141C86B002A810220AF047F900967E
:109FB000281C02A91022231CFFF7D2FE06B070BD98
:109FC000F0B5454680460F204E4691460240574622
:109FD000924642460A43E0B40D1C920700D0C3E00B
:109FE0004246111D0022101C8D4250414446011C66
:109FF000281D844252410A43D2B2002A00D1B3E064
:10A000002968216069686160A968A160E968E16008
:10A010004246784F7A63002B03D0774A1360FFF7EC
:10A020003DF9089B002B00D0BB634B46002B00D1B1
:10A03000DDE0BE6B444600E01D1C2B787C63237082
:10A040006B786370AB78A370EB78E3702B79237136
:10A050006B796371AB79A371EB79E3712B7A23721E
:10A060006B7A6372AB7AA372EB7AE3722B7B237306
:10A070006B7B6373AB7BA373EB7BE373FFF776F9C7
:10A08000327823785340237072786378534063703A
:10A09000B278A3785340A370F278E3785340E3702A
:10A0A0003279237953402371727963795340637114
:10A0B000B279A3795340A371F279E3795340E37104
:10A0C000327A237A53402372727A637A53406372EE
:10A0D000B27AA37A5340A372F27AE37ABD63534013
:10A0E000E372327B237B53402373727B637B534049
:10A0F0006373B27BA37B5340A373F27BE37B2E1C81
:10A100005340E37342462B1C10341033A21A91457E
:10A1100092D85246002A22D0221C1A43920745D1D7
:10A120000022101C191D8C425041011C201D83422D
:10A1300052410A43D2B2002A38D01A6822605A68C3
:10A1400062609A68A260DB68E36053461022E01800
:10A15000D21A00210AF0B0F87C63FFF707F91CBCA3
:10A1600090469946A246F0BD41462A780A706A7820
:10A170004A70AA788A70EA78CA702A790A716A796C
:10A180004A71AA798A71EA79CA712A7A0A726A7A54
:10A190004A72AA7A8A72EA7ACA722A7B0A736A7B3C
:10A1A0004A73AA7B8A73EA7BCA7331E71A782270F2
:10A1B0005A7862709A78A270DA78E2701A7922710D
:10A1C0005A7962719A79A271DA79E2711A7A2272F5
:10A1D0005A7A62729A7AA272DA7AE2721A7B2273DD
:10A1E0005A7B62739A7BA273DB7BE373ADE72B1C14
:10A1F00044468EE7002600208025002034DF70478B
:10A2000040DF704773DF704774DF704776DF704759
:10A2100077DF70477ADF70477CDF704783DF7047F6
:10A22000A9DF704760DF704708B5081C111CFDF7F7
:10A2300057F908BD08B506F0F9F9012006F0BAFB98
:10A2400008BDC04608B50020FDF72AFC08BDC04681
:10A2500008B502F00DFB08BD00B583B00090019178
:10A2600068460821024A03F0F3FC03B000BDC04673
:10A2700009A3010008B500200021024A03F0E8FC10
:10A2800008BDC04629A3010000B583B06B4608484D
:10A29000D91D04F04DF9031C0020002B05D16B469D
:10A2A000D879023843425841C0B203B000BDC0461D
:10A2B0003C260020014B58687047C0463C260020D1
:10A2C000014B187A7047C0463C260020024B187A92
:10A2D0000523181AC0B270473C26002008B5074B6A
:10A2E000D8600120196106F07BFABFF34F8F044A52
:10A2F000044BDA60BFF34F8FFEE7C0463C260020D8
:10A300000400FA0500ED00E008B5082904D1426810
:10A310000368101C984708BD8D2100204900014AA0
:10A32000FFF7DCFFE850020008B5002902D102F077
:10A33000ADFB08BD00209921014AFFF7CFFFC046C1
:10A3400030510200CA2108B58900014AFFF7C6FF53
:10A350008051020008B50378002B00D008BD054BE2
:10A360003B211888FFF752FF0028F7D00249034A23
:10A37000FFF7B4FF32200020E60200008051020007
:10A38000274B70B5061C0D1C9A422BD0002A42D1D7
:10A39000244C2B78112B18D00ED9152B1BD0232B26
:10A3A00005D1201C20491430142201F029FA04F0B0
:10A3B000D1F92072002070BD012BF8D1201C1B495F
:10A3C0000D22143001F01CFAF1E7201C311C04228C
:10A3D00009F034FFEBE7201C15490D22143001F081
:10A3E0000FFAE4E70F4C1349201C1422143001F03B
:10A3F00007FA8020800006F0C7FA04F0E5F900288B
:10A4000004D1201C012104F057FAC2E7201C0021CE
:10A4100004F052FABDE7101C0749084AFFF75EFF37
:10A42000438000003C260020C8510200B8510200C1
:10A43000A85102008C5102008B04000080510200E0
:10A4400030B5041C87B0023C05F028FA012C04D872
:10A450003025184C635D002B01D107B030BD0023BF
:10A460006846635505F05CFD002818D1009B002B61
:10A4700002D001236355F0E701A801930361436013
:10A480008360C360A0239B000382FFF7BBFE082309
:10A49000021C9A4308D101223123E254DDE7D02186
:10A4A000054AFF31FFF71AFFF321034A4900FFF77E
:10A4B00015FFC0463C2600208051020010B50B78E5
:10A4C00082B0422B02D14B78652B01D002B010BD77
:10A4D000FCF75AFE144C002809D0201C323004F03E
:10A4E000B7FA002813D001223323E254EEE7201CF0
:10A4F000323004F0ADFA0028E8D0012301A803703F
:10A5000003F022FF002809D13323E054DEE7201CAA
:10A5100006491422143001F073F9D7E79221044A56
:10A520008900FFF7DBFEC0463C260020E851020010
:10A530008051020070B5041C88B004F0BBFC201CE4
:10A5400001F084FF644D211C2E1C1436301C01F0D8
:10A5500063F8281C211C343001F084F95F48211C69
:10A5600000F0D4FC2388172B5FD007D91A2B55D0C5
:10A57000522B47D0192B21D008B070BD102B38D0EA
:10A58000112BF9D13323EB5C002B75D10122544BF5
:10A59000524200201A80FCF7BDFDFCF767FC04283E
:10A5A0004FD002A805F0BCFC002800D08FE0029B31
:10A5B000002B4ED001223023EA54DDE7A379002B93
:10A5C000DAD1FCF753FC011C0920FEF7F5F94549E7
:10A5D0000A22301C01F014F9002006F001F905F000
:10A5E0005BFDFFF70BFE0028C6D03F493F4AFFF74F
:10A5F00075FEA0883A4B1880FFF710FE0120FCF78B
:10A6000089FDB9E7364B002118880022FFF708FEC4
:10A610000028B1D03649354AFFF760FE5023A079B3
:10A62000E85440B2FCF770FDA6E7281CA11D3222B9
:10A63000543009F003FE301C2E49092201F0E0F8E5
:10A640009AE701A805F06CFC002840D1019B002B83
:10A65000B0D103A80393036143608360C360A02368
:10A660009B000382FFF7CEFD0823021C9A4329D1E9
:10A6700001223123EA547FE7FCF786FD002809D048
:10A68000281C323004F0E4F9002815D000223323CE
:10A69000EA547BE7281C323004F0DAF90028F5D0C0
:10A6A000012303A8037003F04FFE0028EED092218F
:10A6B0000E4A8900FFF712FE301C0F49142201F0E8
:10A6C0009FF8E3E7F321094A4900FFF707FED0218D
:10A6D000064AFF31FFF702FE3C260020E03400204E
:10A6E000322000200C5202000903000080510200B9
:10A6F000B503000000520200E8510200EFF30883A6
:10A700009A69014B9A60FEE7BC26002008B5031C3D
:10A710000A1C0248191CFFF7E1FDC046EFBEADDE82
:10A72000012370B5244C82B05B42A381FCF79CFCF2
:10A730006B46D91C06230B708E2301AADB00138005
:10A7400034231E4D6061EB5C201C93701723238221
:10A7500000231830A36143602162211C0C31C360C7
:10A76000036143618361C361036243628362616425
:10A77000211C0125022650312365036343634B608E
:10A780008B60CB600B614B618B610B624B628B62A8
:10A79000CB62A5830B634B635033E6540D83E266B3
:10A7A00001F006FA002801D102B070BDCE21044AA2
:10A7B0004900FFF793FDC046BC2600203C26002040
:10A7C0008051020008B5FCF74FFC172309490B82A2
:10A7D0000B1C4861081C0C334B641830503101F0DD
:10A7E000E7F9002800D108BDC021034AFF31FFF777
:10A7F00075FDC046BC2600208051020070B5312591
:10A800001C4C86B0635D061C002B0CD1684605F01D
:10A8100087FB002820D1009B002B0CD00122302385
:10A82000E25406B070BDFFF7EFFC0823021C9A4308
:10A8300017D16255EAE701A8019303614360836081
:10A84000C3600682FFF7DEFC0823021C9A430CD18A
:10A8500001223123E254E4E7D021074AFF31FFF718
:10A860003DFD0649044AFFF739FDF321024A49003C
:10A87000FFF734FD3C260020805102000902000051
:10A8800008B503F0A1FF011C014804F015F808BD4C
:10A890003C26002008B5011C014804F00DF808BD55
:10A8A0003C26002008B503F08FFF08BD10B582B02C
:10A8B000FCF76AFC154C00280BD0201C323004F049
:10A8C000C7F8002815D001223323E254002002B03B
:10A8D00010BD201C323004F0BBF80028F6D0012354
:10A8E00001A8037003F030FD002809D13323E054A0
:10A8F000ECE7201C06491422143000F081FFE5E744
:10A900009221044A8900FFF7E9FCC0463C2600205A
:10A91000E85102008051020008B5FCF735FC002820
:10A9200000D108BD054B13211888FFF76FFC0028E4
:10A93000F7D0BD21024A8900FFF7D0FC3220002069
:10A940008051020008B5FCF791FA011C0920FEF7BE
:10A9500033F80A480A490A22143000F051FF002057
:10A9600005F03EFF05F098FBFFF748FC002800D1FA
:10A9700008BD0449044AFFF7B1FCC0463C2600204C
:10A980000C52020009030000805102000A4808B579
:10A990000A490A22143000F033FF002005F020FF9E
:10A9A00005F07AFBFFF72CFC002800D108BD044914
:10A9B000044AFFF793FCC0463C2600200C520200DC
:10A9C0001D030000805102007047C04608B5031CFB
:10A9D00006488AB21430191C00F012FF044B9C4642
:10A9E0006044431E9841C0B208BDC0463C260020CA
:10A9F000FCCFFFFF10B5041C09F0A4FCC0B2021C80
:10AA0000142800D914220348D2B2211C143000F0BB
:10AA1000F7FE10BD3C260020A021A223F0B55F4622
:10AA20004D4644465646C905DB00F0B4CF58CB58D6
:10AA3000EB4901228B60884680238021DB05C90019
:10AA400058583F0B834600205850E649E64859586D
:10AA500017404160DA674346E44A9BB08146009262
:10AA60000C3300200521152202F062FB002800D0E3
:10AA700083E1DF4B0121181CDE4A1C309A4602F0AC
:10AA8000C9FB002800D01EE2504601212030DA4ADE
:10AA900002F0C0FB002800D010E25146042024310F
:10AAA00002F07EFF002800D004E2514609207431F4
:10AAB0005022D24B01F0F4FF002800D0F5E10AAC9F
:10AAC0002070201CFFF7AEFB002800D0E9E1CC4845
:10AAD00002F00EF8002800D0DFE1CA4802F012F8B8
:10AAE000002800D0D5E103200121C74A08F0F0F981
:10AAF000002800D0C9E128204042FFF789FB04F07C
:10AB000081FF002800D0BCE1002305AD281C2B707C
:10AB100003F01AFC002800D0AFE16B4601265886EE
:10AB20001E23C0B2E3803043C53318400C231843C2
:10AB3000072363720933A372B44B207248460A9309
:10AB400001233230211C237103F096FC002800D031
:10AB50008FE103F0FFFD4B46AD4A18720A21082031
:10AB6000443203F05DF8002800D07EE143465946A8
:10AB70003A1C9B68A748FCF70DFBFCF765F96B4690
:10AB80000F2710221B7C8346BB4333433B401343B8
:10AB90006A4620211374201C0F2209F08DFB9E4B66
:10ABA00058461A6822609A88A2809B790A22A3716B
:10ABB0002E236B44191C09F015FB04A8211C0A2242
:10ABC000FFF72AFB002800D04AE107232B8035330A
:10ABD0009B466B80C82368605B00281CEB80FFF7F6
:10ABE00019FB002800D0F5E048468C4B143003A92F
:10ABF000039300F041FD002800D0E6E0884B854833
:10AC000004A9049300F05EFE002800D0D9E01021D2
:10AC1000020AD2B2BA4332433A400A43E8606A7346
:10AC20001022030CDBB2BB4333433B4013431022DF
:10AC3000AB73C3B2BB4333433B40134328612B7414
:10AC4000012368602860A8602B7176486333291C53
:10AC50002B7300F089F9002800D0AEE040220021DB
:10AC6000201C09F029FB201C6F4900F0C3FC12A82E
:10AC70006E4900F0BFFC5B46E35C0022BB431E4311
:10AC800010233E401E435B46E6543D23201CE25405
:10AC900000F048FA061E00D08BE0FFF741FDA0232C
:10ACA0009B026360F0231B03A3600323E66023730E
:10ACB0005F4B201C63615F4B26602661A36101F03E
:10ACC0008BFB002871D11E2274235B4E0127F252A8
:10ACD000FEF79CF9021C7621501E8241735C281CF1
:10ACE000BB431343E12213400C221343CD221340F4
:10ACF000735407237436F37009333371A023002192
:10AD00004E4ADB00D15005F00BF9002848D1059BD5
:10AD1000002B1FD030234A46D75453468021D86990
:10AD20004902002202F0A8FA002835D153464449CE
:10AD3000186A002202F0A0FA002828D105F088F94C
:10AD400003F02EF8FFF75CFA0028F9D03D493E4A9F
:10AD5000FFF7C4FA0A9323616360A360E360A02352
:10AD6000201C9B002382FFF74DFA0823021C9A4304
:10AD700008D131234A46D754CFE70E21324AFF315A
:10AD8000FFF7ACFAF321304A4900FFF7A7FADE21BA
:10AD90002D4A8900FFF7A2FA2C492B4AFFF79EFAA9
:10ADA000D021294AFF31FFF799FA2949264AFFF7AE
:10ADB00095FA2849244AFFF791FA2749224AFFF7D2
:10ADC0008DFA2649204AFFF789FAA6211E4A8900F2
:10ADD000FFF784FAA6211C4A4900FFF77FFAC04614
:10ADE0003C2700201C0500003C26002059A2010041
:10ADF0003C2E002051A2010045A2010075A20100D5
:10AE000035A5010041A4010035A2010081A3010084
:10AE1000BC2E00207026002018520200BDA40100A4
:10AE200029A20100E0340020205202002852020032
:10AE300055A3010045A301003C2F00200020004045
:10AE40006606000007050000805102007303000041
:10AE50003F030000BF020000B30200009F02000099
:10AE6000A1211B4A4900FFF739FA1A49184AFFF78E
:10AE700035FA1949164AFFF731FA1849144AFFF70B
:10AE80002DFA1749124AFFF729FA1649104AFFF717
:10AE900025FA15490E4AFFF721FA14490C4AFFF723
:10AEA0001DFA13490A4AFFF719FA8921084AC9000D
:10AEB000FFF714FA0F49064AFFF710FA8E21044AE9
:10AEC0004900FFF70BFA1621014AFF31FFF706FA96
:10AED0008051020017050000D5040000C5040000E1
:10AEE000BE040000260400005A04000055040000BF
:10AEF000510400000F050000A0DF7047A2DF70477B
:10AF0000A3DF7047A4DF7047A6DF704730B50B881A
:10AF100083B0112B23D0502B06D0102B01D003B0BF
:10AF200030BD8B884382FAE7037D002BF7D0CA88B7
:10AF300043899A42F3D1CB8B022BF0D10468002CC9
:10AF4000EDD00B1C212220259A5C5B5D120213437D
:10AF50000122134001A953400B70A047DFE70123F2
:10AF60005B424382DBE7C046F0B557464E460B686E
:10AF7000C0B4036001235B42438293B00A790F1C83
:10AF8000037404A902338B70424B0275041C021D2A
:10AF900001200B80FFF7B0FF8246002805D0504605
:10AFA00013B00CBC91469A46F0BD237D002B55D1C1
:10AFB00002220BA90B934B608B60CB600B614B6142
:10AFC0008B6113430B7000234B616A460123684673
:10AFD0009375314A03AE8282BA7B00203270FA7BCD
:10AFE00072700222B27091466A463D7B0332157040
:10AFF00006AD089009902B81AB8105A806900A92B6
:10B00000A088A31D2A1C0796FFF778FF8246002818
:10B01000C5D1B96800291FD06A46012393751F4B1B
:10B02000308093823B7C01AF33704B46381CB37049
:10B0300000F0DAFA5346221CAB60EB6080B205AB3D
:10B040002B606E602881A8812F61E0880E32291C58
:10B05000FFF756FF8246A2E7E081A0E70F25012116
:10B06000C2B2AA430A432A40102502AB2A431A70EF
:10B070007A7B0BA95A7002229A700B904860886004
:10B08000C860086148618861C0B2104305430D7013
:10B090009AE7C0460F180000192A0000082900008E
:10B0A00030B589B06B46D971037C041C00208B42FB
:10B0B00017D06B460125DD810E236B441A1C6B46AD
:10B0C0002174E08800210733FFF71CFF002808D116
:10B0D000628A114B9A421BD0217D0823002902D19C
:10B0E000181C09B030BD6B4604A90490DD8148608E
:10B0F000E388101C0B8001238B700E236B448B6044
:10B100006B460733CB60FFF7FFFE031C181CE8E714
:10B110000823181CE5E7C046FFFF0000A0DF7047CA
:10B12000A2DF7047F0B54F4646460123C0B493B046
:10B1300002A98B70D84B041C0B80D84B01201A1C21
:10B140009946FFF7EBFF002800D0D6E02688002EB6
:10B1500000D0D7E02689002E00D007E1268A002EF5
:10B1600000D035E1268B002E00D063E1268C002E26
:10B1700000D0A5E1268D002E00D0D2E1276B002F54
:10B1800047D03E68FF21321C7B6809020A4098467E
:10B19000120A04AB5A70FF22351C120415402D0C04
:10B1A0009D7045461E70360E1D71DE70BE683C25D2
:10B1B0005E7131403240012603AFBE70B84E655D0E
:10B1C0003E8001AE35703C25AC46120C0020DA7191
:10B1D000A44402226546090A99710BA90B900A70D2
:10B1E00048608860C8600861486188616D78B270A5
:10B1F00006AA13614B469060D060083075700697C0
:10B2000056601081908118883433FFF789FF002839
:10B2100073D1636B002B37D01A681E799046002AD1
:10B2200000D1BDE1002E04D100206E219D4AFFF720
:10B2300055F801203C2504AFB8709B48655D388007
:10B2400003A805703C25AC4600230222A4446546B1
:10B250000BA90B930A704B608B60CB600B614B6149
:10B260008B616D78827006AA9360D3604346136148
:10B270004B464570506018883C330697168196817E
:10B28000FFF74EFF002838D1A36B002B00D179E1E6
:10B290001A7804A802705A8801264270120A827035
:10B2A0009A883C25C270120A0271DB88022243711F
:10B2B0001B0A8371002303AFBE707C4E655D0BA932
:10B2C0003E8001AE0B9335700A704B608B60CB6093
:10B2D0000B614B618B613C346478B27006AA936059
:10B2E000D3600733138193814B4674700697566081
:10B2F000106118884433FFF713FF13B00CBC90465D
:10B300009946F0BD63689846002B00D13CE10120CE
:10B310003C2504AFB8706648655D388003A80570A9
:10B320003C25AC4600230222A44465460BA90B939E
:10B330000A704B608B60CB600B614B618B616D78E9
:10B34000827006AA9360D360434613614B464570F2
:10B35000506018880433069716819681FFF7E0FE47
:10B360000028CAD12689002E00D1F7E6E368984666
:10B37000002B00D10EE101203C2504AFB8704D48F0
:10B38000655D388003A805703C25AC460023022289
:10B39000A44465460BA90B930A704B608B60CB608D
:10B3A0000B614B618B616D78827006AA9360D360EC
:10B3B000434613614B464570506018880C3306971E
:10B3C00016819681FFF7ACFE002800D1C6E694E70F
:10B3D00063699846002B00D1E8E001203C2504AFCA
:10B3E000B8703548655D388003A805703C25AC46CB
:10B3F00000230222A44465460BA90B930A704B60FC
:10B400008B60CB600B614B618B616D78827006AA9B
:10B410009360D360434613614B4645705060188873
:10B420001433069716819681FFF77AFE002800D123
:10B4300098E662E7E3699846002B00D1BCE0012062
:10B440003C2504AFB8701D48655D388003A80570C1
:10B450003C25AC4600230222A44465460BA90B936D
:10B460000A704B608B60CB600B614B618B616D78B8
:10B47000827006AA9360D360434613614B464570C1
:10B48000506018881C33069716819681FFF748FE96
:10B49000002800D16AE630E70A180000B82F002023
:10B4A000232A0000305202002A2A0000502A0000FD
:10B4B000292A0000242A0000252A0000272A00004B
:10B4C000636A9846002B7DD001203C2504AFB870FC
:10B4D0004248655D388003A805703C25AC460023D2
:10B4E0000222A44465460BA90B930A704B608B6043
:10B4F000CB600B614B618B616D78827006AA9360A3
:10B50000D360434613614B4645705060188824331E
:10B51000069716819681FFF703FE002800D129E6E1
:10B52000EBE6E36A9846002B52D001203C2504AF9D
:10B53000B8702B48655D388003A805703C25AC4683
:10B5400000230222A44465460BA90B930A704B60AA
:10B550008B60CB600B614B618B616D78827006AA4A
:10B560009360D360434613614B4645705060188822
:10B570002C33069716819681FFF7D2FD002800D163
:10B58000FCE5BAE60020B8E600206D21154AFEF77A
:10B59000A5FEBCE600206D21124AFEF79FFEEAE6FA
:10B5A00000206D210F4AFEF799FE3BE600206D2139
:10B5B0000C4AFEF793FE10E700206D21094AFEF7C2
:10B5C0008DFE3CE700206D21064AFEF787FE7BE7F3
:10B5D00000206D21034AFEF781FEA6E7262A00001F
:10B5E000282A0000305202000B7803704B78437019
:10B5F0000220704738B5041C081C0D1C08F0A2FE80
:10B600006560208038BDC046A0DF7047A2DF70476C
:10B61000A6DF704763DF704710B5002808D0002907
:10B6200006D00B88112B16D0502B02D0102B0FD028
:10B6300010BDCB88028A9A4211D082889A42F7D1F3
:10B640008469002CF4D00B1C2031DA8BA047EFE783
:10B650008B888382ECE701235B428382E8E7CA8B15
:10B66000022AEAD12023CA5C1F3B134002D00123E7
:10B670008375DDE78375DBE7F0B54D4644465F46ED
:10B680005646F0B495B0041C0D1C04A85B4910226A
:10B6900008F0D4FD0E20002C0ED0002D0CD001237C
:10B6A0005B42A3822B6804A8A3610023211CA3751D
:10B6B000FFF7B0FF002806D015B03CBC9046994675
:10B6C000A246AB46F0BD237802A98B700123A21CD1
:10B6D00001309B460B80FFF797FF0028ECD101213A
:10B6E0008A460F275146C2B2BA430A4310218946FF
:10B6F00049463A400A4369460A70524683B21B0AD9
:10B70000BB4313434A463B4013434B7002239846C6
:10B7100042464B468A7034216A46034352180D90C4
:10B720000E900F9010901190139013706B466A4614
:10B73000129323785146937303239381C2B2BA4381
:10B740000A4349463A4001AE0A433270524683B238
:10B750001B0ABB4313433B400B4373700323B3707B
:10B7600003AB08935B4608AD0A900B900C902B81BD
:10B770001423AB81231C60880DA92A1C0C33099665
:10B78000FFF744FF002897D10823C2B213430422D5
:10B79000342113436A4652180D900E900F9010906A
:10B7A00011901290139013706A4623785146937348
:10B7B0006B4642469A81C2B2BA430A4349463A406E
:10B7C0000A433270524683B21B0ABB4313433B40C9
:10B7D0000B4373700323B37003ABA860E860286168
:10B7E00008935B462B8114236E60AB816088231D18
:10B7F0000DA92A1CFFF70AFF5EE7C0467C52020033
:10B8000010B586B0031E6846C28009D09A8A104CD3
:10B810000820A24202D09C7D002C03D106B010BDAE
:10B820000E20FBE76846C4880720142CF6D80020B9
:10B83000029003909B8902AC23806B4606330493ED
:10B8400001230591101C211CA370FFF7E1FEE5E721
:10B85000FFFF0000A0DF7047A2DF7047A6DF704740
:10B8600063DF704710B5002808D0002906D00B8888
:10B87000112B16D0502B02D0102B0FD010BDCB881F
:10B88000028A9A4211D082889A42F7D18469002CA8
:10B89000F4D00B1C2031DA8BA047EFE78B88838232
:10B8A000ECE701235B428382E8E7CA8B022AEAD1F4
:10B8B0002023CA5C1F3B134002D001238375DDE7C0
:10B8C0008375DBE7F0B54D465F465646E0B494B06D
:10B8D000041C0D1C04A86549102208F0AFFC0E20C2
:10B8E000002C0ED0002D0CD001235B42A3822B68CC
:10B8F00004A8A3610023211CA375FFF7B1FF002852
:10B9000005D014B01CBC91469A46A346F0BD2378DE
:10B9100002A98B708E23A21CDB0001300B80FFF785
:10B9200099FF031EEDD1012082460F275046D9B260
:10B93000B9430143102081464846394001436846D7
:10B94000017051469AB2120ABA430A4349463A4034
:10B950000A4342700222934659464A468170342077
:10B96000694655461A4309180D930E930F93109389
:10B97000119313930A706A466946D8B2B8432843B4
:10B980004D461292227838408A7303216A46284332
:10B9900001AE3070504691819AB2120ABA43024306
:10B9A0003A402A4308ADAB60EB602B6103AB0893D0
:10B9B00001232B811333AB81231C6E607270B17035
:10B9C00060880DA92A1C0C33FFF746FF002898D188
:10B9D0000823C2B213430422342113436A46521887
:10B9E0000D900E900F901090119012901390137074
:10B9F0006A462378308093735A466B469A810023B7
:10BA0000B370FDF703FB52463378BB4313434A46FA
:10BA10003B401343524633707378BB4313433B4060
:10BA200000281ED14A46134373700622B3786E6015
:10BA3000934302221343E722134001221343B370BE
:10BA40000023AB60EB602B6103AB089301232B81D8
:10BA50001333AB816088231D0DA92A1CFFF7FCFE60
:10BA60004FE7202213437370DFE7C0468C52020079
:10BA700010B586B0031E6846C28009D09A8A104C61
:10BA80000820A24202D09C7D002C03D106B010BD3C
:10BA90000E20FBE76846C4880720142CF6D8002047
:10BAA000029003909B8902AC23806B46063304937B
:10BAB00001230591101C211CA370FFF7CFFEE5E7C1
:10BAC000FFFF000072DF704779DF70477DDF70474E
:10BAD00065DF7047F0B55F46564644464D46F0B4C4
