:020000021000EC
:106000000080002099F80100E1F8010015890100E5
:106010000000000000000000000000000000000080
:10602000000000000000000000000000E5F8010092
:106030000000000000000000E7F80100E9F801009E
:10604000EBF80100EBF80100EBF80100EBF80100C0
:10605000EBF80100000000002DAE010099A1010045
:10606000EBF80100EBF801009DF20100EBF80100F4
:10607000EBF80100EBF80100EBF80100EBF8010090
:10608000EBF80100E5A40100EBF80100EBF80100DA
:1060900085A5010079EE0100C1A30100EBF8010024
:1060A000EBF80100EBF80100000000000000000028
:1060B00000000000000000000000000000000000E0
:1060C00010B5064C2378002B07D1054B002B02D0CE
:1060D000044800E000BF0123237010BDA424002069
:1060E00000000000C810020008B5084B002B03D0C8
:1060F0000748084900E000BF07480368002B00D1AB
:1061000008BD064B002BFBD09847F9E700000000C4
:10611000C8100200A8240020A024002000000000D5
:10612000164B002B00D1144B9D46402292029A1A26
:10613000924600218B460F461348144A121A09F062
:1061400021FE0F4B002B00D098470E4B002B00D0A8
:1061500098470020002104000D000D48002802D0BF
:106160000C4809F09FFF09F067FD2000290002F0AC
:10617000DFFD09F051FDC04600000800008000204E
:106180000000000000000000A424002028350020AA
:10619000A5000200B500020071DF704777DF70478D
:1061A000031E152B08D80120021C9A40131C034A19
:1061B000134200D100E000207047C0467FFF10006E
:1061C00038B5051C372900D9EFE0081C09F08EFB13
:1061D0003B2DEDEDED2421272A3E414A4E475451F7
:1061E000575B66696D85858585EDED957074617D7C
:1061F0008198ED9B9FA3A7AAAEB3BBC3CBD3D744D3
:106200001C1E78DBE4E7EDEA694BCDE0684B5A7081
:10621000CBE0674B5A60C8E0654B9A60C5E0644BC1
:106220001A73C2E0624BDA81BFE0101C07F056F926
:10623000041C8020C002002C02D007F027F8B4E034
:1062400007F01CF8B2E05A4B1A82AEE0584B9A7431
:10625000ABE0574BDA74A8E0554B1A75A5E0544BE8
:106260005A75A2E0524B504298759EE0504BDA7539
:106270009BE04F4B1A7698E04D4B5A7695E0101CF8
:1062800008F002F891E014205043494BDA6118629B
:106290008BE014205043464B586286E0444B9A6290
:1062A00083E0101C01F078FF7FE0414B9A857CE091
:1062B000D0B207F0B1FF78E0D0B207F0B5FF74E0DC
:1062C000142050433A4B18636FE0101C07F094F809
:1062D0006BE0D0B201F00AFD67E0281C1A1C01F047
:1062E000F9FD041C01F03AFF002801D0002001E074
:1062F00028204042FFF752FF58E02D4B343353E043
:106300002B4B9A6351E0D0B206F060FD4DE0D0B265
:1063100006F062FD49E0D0B207F066FF45E0244B8D
:106320003C3341E0D0B207F065FF3EE0142050431B
:106330001F4B186439E014200A21504309F0EAFA8F
:106340001C4B188031E0FA203221504309F0E2FA68
:10635000184B588029E0530602D580235B421A432C
:10636000134B443320E0530602D580235B421A438B
:106370000F4B453318E00E4B0833DA8715E0D0B2E7
:1063800001F0BAFC11E064203221504309F0C2FA56
:10639000074B4833187008E0054B493304E0044BC1
:1063A0004A3301E0024B4B331A700024201C38BDE5
:1063B000C0240020242000200023F0B5814C89B0A7
:1063C000059001380D1CE364072800D9E6E009F0C8
:1063D0008DFA31871CB404E5AFAF062008F0FEFC4F
:1063E000002006F0BFFD092008F032FD042007A9B7
:1063F00001F074FB079B022B00D0CFE004200021AA
:1064000001F022FA80204001C6E0002006F0AAFD3B
:10641000E37D9B0707D5281CFFF7C2FE002802D1A9
:106420000A3009F0F3F8282007F03EFB002008F0BE
:106430000FFDB3E0231C3C33187806F081FF0307FF
:106440000DD08020400106F029FF002807D1E37D10
:106450009B0702D5033009F0D9F85B480BE006F042
:106460002BFB2378834209D9E37D9B0702D50320C8
:1064700009F0CCF8554802F01BFB9DE08020142762
:10648000800306F003FF012006F06CFD6668217EA4
:10649000E27C637D607E0096267B7E430196E689E2
:1064A0007743BFB202970327039707F0AFFF06F0C9
:1064B000B5FF231CA0200022503380001A8002F078
:1064C00099FA231C01224934523320781A7008F0BB
:1064D00061FC002862D105300921FFF76DFF5DE006
:1064E0008020800306F0D2FEB020800006F0C6FEB9
:1064F00009F01CF906F092FF231C00225033012002
:106500001A8006F02FFD231C012252331A700D2D24
:1065100001D14A3400E04934207808F04DFC0028CD
:1065200003D105300921FFF747FF09F0FFF835E0F7
:1065300006F07CFF002831D03EE000206365A365B3
:1065400006F010FDE37D9B0707D5281CFFF728FE0A
:10655000002802D1053009F009F81427282007F097
:10656000A3FA002008F074FC164C6668217E227D98
:10657000637D607E0096267B7E430196E4896743B7
:106580000224BFB20297039407F040FFA0208000CE
:1065900002F030FA8020000506F070FE6A460C4BCF
:1065A000127D1A700B4B1D700B4B1B78002B06D005
:1065B00000F0B0FF094800E0094802F079FA09B09C
:1065C000F0BDC046C0240020ED010200FE01020023
:1065D00031340020543400206034002013020200C3
:1065E0002102020010B5041C07F042F9012006F058
:1065F000B9FC142007F058FA06F086FD002803D1F4
:10660000064B9B7C032B01D1032002E006F085FDA5
:106610000420211CFFF7D0FE10BDC046C02400207E
:1066200008B506F081FF032809D10E4B01381B780D
:10663000072B02D0082B14D1012005210FE0FD23E8
:10664000023818420DD1032008F0E0FF054B03206B
:106650001B78072B02D0082B03D104200621FFF75B
:10666000ABFE08BD3134002008B5044B1B788342D3
:1066700003D1081C0121FFF79FFE08BD3134002023
:10668000024BD87D012318407047C046C02400202B
:10669000014B188A7047C046C0240020014BD86DBA
:1066A0007047C046C0240020014B60331878704703
:1066B000C0240020014B623318887047C02400209A
:1066C000014B586E7047C046C0240020014B343344
:1066D00018787047C0240020014B18787047C046D6
:1066E00031340020014B18787047C04654340020E4
:1066F0007FB50A4C6568217EE27C637D607E0095F3
:106700001425267B6E430196E48965430124ADB2CE
:106710000295039407F07AFE04B070BDC0240020F7
:1067200008B503490622683109F0EEFA002008BDD9
:10673000C0240020014B6E3318707047C024002025
:106740006E20014B18567047C024002008B5124B2C
:106750001A78824203D1114802F0AAF91AE018709F
:1067600000280FD18020C00006F088FD0C4BDB7D97
:106770009B070FD501F0F8FA02280BD1043008F07E
:1067800045FF07E096228020064B5200C0001A60A9
:1067900006F07CFD08BDC046603400202D020200DA
:1067A000C02400205034002008B5044BDB7D9B073B
:1067B00002D5052008F02AFF08BDC046C0240020ED
:1067C000014B18787047C04660340020F0B50024B3
:1067D0008FB07A4F04907A4839607A49036007AEE7
:1067E000181C0A70347006F0BFF905900599201C3A
:1067F000FFF7E2FD744B049A744D1C70744B101C2F
:106800001A606C662C6700F05BFE0AA80470FFF744
:10681000C3FC281C212102ABC9180622683009F0EC
:1068200073FA06F005FD06F07DFA06F0DBFD06F0D2
:10683000E7FF06F08FFC06F0DDFE08F071FE07F0C2
:1068400017F801F069F90497A04203D180204000B5
:1068500006F0FEFC01F05CFA002407F009F8201CA9
:1068600000F0E6FF04282BD809F040F8172A03208F
:106870000C00112702ABFF18201C391C01F0D4F8C2
:106880003A7807E0122702ABFF18201C391C01F0F0
:10689000E9F83A88301C211C06E009A9201C01F007
:1068A0001DF9301C211C099A002307E00CA9201CAB
:1068B00001F0F6F8301C211C00220CABFFF780FC25
:1068C0000134E4B2382CCAD106F0D2FF281C0A21C8
:1068D000743006F0E7FF6C68297EEA7C6B7D687E89
:1068E000009414242E7B66430196ED896C43A4B278
:1068F00002940324039407F089FD06F0B9FF08F021
:1069000079FA002802D0042006F0A2FC0598FFF7CF
:1069100069FE022006F0BAFC01F0D4FA0723184001
:10692000C00506F0B3FC2B4C606806F06DFC002837
:106930000DD0802006F08CFC626853789901937822
:106940003F221340214A0B43603213700CE001F0E8
:106950002BFFF0231840B02806D101F025FF0F23AC
:1069600018401A4B60331870042008A901F0B6F8DB
:106970008020089B4001022B02D106F087FC01E039
:1069800006F07CFC00F096FD022809D100221421BB
:10699000101C0092132307F08DF90F4807F080F9BF
:1069A000049B1B68DB0306D5084BDB7D9B0702D5E8
:1069B000012008F02BFE0FB0F0BDC0465C34002073
:1069C0004C3400203034002060340020C0240020EB
:1069D00058340020242000204102020008B5114B49
:1069E0001B78DA1E012A15D8032B04D10E4B212067
:1069F000996B00F029FF0D4802F05AF8002006F0CC
:106A000078FB08F093FE06F015FF02F025F802F07F
:106A100099F806E0044BDB7D9B0702D5032008F0C4
:106A2000F5FD08BD31340020C024002050020200D2
:106A30000323F0B58BB001AC051C0E1CA37006F04F
:106A4000E3FB002801D1894806E08948142E03DCC5
:106A50002B789E4206D0874802F02AF801F0BEF952
:106A6000012001E1032E00DCF7E08348291C321CE1
:106A700009F04AF96B787F2B17D9281C06A9221C2C
:106A800001F0BCF900280BD1A3787C48012B03D07E
:106A90007B48022B00D17B4802F00AF806AD04E0E7
:106AA000794802F005F80220DBE06B787749A2789C
:106AB000CB5C9A4200D9CCE0281C01F07BF900287D
:106AC00000D1D0E06878152800D9CCE008F00EFF9E
:106AD000161F366A4B32CBCB3FA1393CA5A80BCB56
:106AE000ABAEB211B6BF1420AB78584308F0BAFD74
:106AF000B9E08020000506F0C9FB04E0644B1B7878
:106B0000022B00D1AFE006F0B3FE02200CE0604B98
:106B10001B78012B00D1A6E05E4B1B780D2B00D11A
:106B2000A1E006F0A5FE01200421FFF745FC06F0D8
:106B300081FE98E00E20FFF755FD94E000F0EAFC9E
:106B400091E000F017FD8EE000F04CFD8BE000F0CE
:106B50006FFC002800D186E001F032FE4C4B07208C
:106B60001A7808211BE00B22A078A9786A4402AEAB
:106B700001F036F800280FD10D233370093B7370F4
:106B8000AB78301CB37006F00BFB434B32781868BF
:106B9000311C02F0F3FE66E007200421AA7800F021
:106BA00095FC60E02B79EF786A791B023B43120475
:106BB0001E1C131CAA79334312062E7A1A43EB7952
:106BC00036021E436B7AA0781B0433431E1CAB7A3B
:106BD000A9781B06334300F0F7FE002815D12B7966
:106BE000EE786A791B0233431204181C131CAA792D
:106BF000034312061A43A978EB1C201CFFF7E0FAA6
:106C0000002802D1AA78062001E00720AA780321F3
:106C1000C5E70E20FFF7E2FE25E000F08FFE22E040
:106C200001F054FF1FE001F001FF1CE0A87801F023
:106C300007FF18E0A87808F0E9FC14E08020400283
:106C400006F01CFB07F044FB08F070FD0BE0134856
:106C500000E0134801F02CFF05E0124801F028FF86
:106C60000120404200E000200BB0F0BD5C020200B9
:106C7000650202006E020200383400207A0202002F
:106C80008B0202008302020094020200D80102007B
:106C9000313400205434002058340020A102020076
:106CA000B2020200BE02020008B5884203D1191CDC
:106CB000101CFFF7D9FC08BDA023384ADB00D058D0
:106CC00030B5374C421E9041E258191C002A01D0C1
:106CD00002231843334B5D581A1C002D01D00423A6
:106CE00018436358002B01D008231843A023DB006E
:106CF000D258002A01D010221043E358002B01D0B3
:106D000020231843284B1A68002A01D04022104340
:106D10005A68002A01D0402210439A68002A01D004
:106D200040221043DA68002A01D040221043A022FA
:106D30001E49D2008958002901D0802108431C49EE
:106D40008A58002A02D08022D20110438022D20524
:106D5000D26F002A02D0802212021043A222D20057
:106D60009A58920702D0802252021043114A9A5830
:106D7000920702D0802292021043A322D2009A5896
:106D8000920702D08022D20210430B4A9B589B07E5
:106D900002D080231B03184330BDC04600200040B2
:106DA00000400040003000400060004000700040A3
:106DB00000200140140500001C050000F0B587B05C
:106DC0000190012006F040F8C023B549B54ADB0028
:106DD000D150019BB44C002B04D1E36C0133E3642C
:106DE00008F0AEFC06F044FD07F026FE05F0FAFFC1
:106DF00000280ED0042006F051FA00280CD10430EF
:106E000006F044FAE37D9B0706D5072008F0FEFB59
:106E100002E0042006F032FA05F0E8FF002808D06E
:106E2000082006F03BFA002806D1083006F02EFABA
:106E300002E0082006F022FA06F0F2FD06F02CFE31
:106E40009A4B051C187803930138994E994F0828DE
:106E500000D93EE208F054FD9D0075011600DC01EA
:106E60003D023D020F0012000900E36C142B00D814
:106E70002FE20F208AE0012007F0C6FB281CFFF755
:106E8000CFFB26E2122D03D103200721FFF7ECFBF5
:106E90008020800306F002FA00280CD0E36C226CFC
:106EA000934208D907F014FA8020800306F0E6F92F
:106EB000814801F0FDFD3378002B1BD000F054FF1A
:106EC000022817D16E221623A256E3569A4206DDF7
:106ED000022D0FD10130291CFFF7C6FB0AE0022D5D
:106EE00008D1764801F0E4FDE37D1D4202D0032085
:106EF00008F08CFB9020400306F0D0F9002802D166
:106F0000013007F081FB042005A900F0E7FD802097
:106F1000059D4001022D1CD106F0B8F9E36C0A2B47
:106F200019D9281C0821FFF747FAA28D002A12D090
:106F30003B8801339BB23B8093420CD30021042059
:106F400000F082FC8020400106F098F900233B808D
:106F500001E006F093F93378002B00D0B9E106F098
:106F600031F8002800D0B4E1E36C226A934200D9E2
:106F70007FE705F0A1FD6378834200D8A9E1C8232B
:106F8000E26C5B009A4200D8A3E11420FFF726FDD3
:106F90009FE105F0DBFE231C623318808020C003D4
:106FA00006F07CF99122002801D0A0225200231C77
:106FB0000833D98F231C623300290AD01888A368AC
:106FC0000021984203D2143B83429B415942CDB2E7
:106FD00004E01B88A16899429B415D42E36C9342A7
:106FE00011D9022006F05AF9002805D0052007F033
:106FF000F5FE0320022138E0022000F02BFE0320E2
:1070000000F028FEB4E006F088F8002823D0E36CF6
:107010001E2B00D85DE1282006F046FD06F07DF825
:10702000002810D0022007F0D9FE02200B21FFF724
:10703000C3F9032000F00EFEE37D9B0707D5032074
:1070400008F0E4FA03E08020C00106F01FF90020F8
:1070500005F0FAFE3DE106F057F8029000280AD04C
:10706000012007F0BBFE0320011CFFF7A5F9022059
:1070700000F0F0FD2DE1231C48331B78E26C9A42AE
:1070800020D90F4B1B78002B1CD0231C4A331878B7
:1070900007F080FE6A460A4B127A1A7019E1C04660
:1070A0003546526E00000140C024002031340020DB
:1070B0006034002040250020D2020200DA020200E3
:1070C00012250020002D2ED08020C00306F0E6F807
:1070D000002804D0C24BE26C9A4200D8F9E0C14BC0
:1070E000E26C1B889A4200D8F3E0221C50321388CD
:1070F00001339BB21380221C0832D28F9A4200D3F4
:10710000E7E0022007F06AFE02200D21FFF754F9A4
:10711000032000F09FFDE37D9B0700D4D9E003200E
:1071200008F074FAD5E007F02FFE002805D00720FC
:1071300007F054FE02200C21C6E0231C50331D80B2
:10714000C7E08020C00306F0A9F8A64B5B880028A2
:1071500001D078339BB2E26C9A420CD9022006F03F
:107160009DF8002804D0052007F038FE042000E038
:1071700005200221A8E007F007FE002805D007201F
:1071800007F02CFE022007219EE005F0BDFF00283D
:107190001BD0E36C1E2B18D9012005F055FE0120F1
:1071A00005F0E0FE282006F07FFC05F0ADFF00288A
:1071B00000D148E7052007F011FE03200A21FFF760
:1071C000FBF8012005F040FE41E705F0A6FF00288E
:1071D0000BD08020000506F061F8002805D10130B1
:1071E00007F0FCFD042003216EE0231C48331B78CC
:1071F000E26C9A426DD9251C52352B78002B68D051
:10720000231C4A33187807F0D7FD00232B7060E069
:10721000122D03D104200821FFF726FA80208003D5
:1072200006F03CF8002807D0E36C226C934203D9A7
:107230008020800306F022F83378002B05D1231C30
:107240004B331B78002B04D109E000F08DFD0228A0
:10725000F5D1022D03D104200121FFF705FA33787F
:10726000002B12D1A365019B002B02D1636D01336A
:10727000636505F0A7FE002816D1636D226B93426B
:1072800012D90F20FFF7AAFB0EE000236365019BD4
:10729000002B02D1A36D0133A36505F093FE0028F6
:1072A00002D1A36D626AEAE7042005A900F016FC8A
:1072B0008020059B4001022B09D105F0E7FFE36C1C
:1072C0000A2B06D901200821FFF776F801E005F026
:1072D000D5FF05F0CDFFA36B1843A063B02080005D
:1072E00005F0DCFF431E98413F4DC3B20293029A62
:1072F000AB78934220D0002A0ED0039B1B78032B3F
:107300000AD13A4801F0D4FB3378002B02D1A020F7
:1073100001F070FB04200AE0354801F0C9FB337826
:10732000002B03D1A020800001F064FB0020FEF7B9
:1073300035FF6B461B7AAB703378002B17D0019B5F
:10734000002B02D17B68013B7B606B68002B04DC67
:1073500000F0E0F814236B6013E0032B02D100F07F
:1073600009F90EE0052B0CD100F03CF909E005F01D
:107370007FFF0123184204D0181C05F07FFF01F0A5
:10738000DBFA039B187806F06BF9019B002B35D1D3
:10739000236F01332367142B30D1019B2367636E66
:1073A0000133636605F0F2FF00F0E4FC05F096FBA4
:1073B000031C201CD90FC9184B1019B2743006F0E9
:1073C00077FA231C45331B785BB2C0184423E06571
:1073D000E35698420EDC8020C00305F057FF0DE015
:1073E000570200002420002040250020E80202006F
:1073F000F20202008020C00305F040FF06F04CFAC4
:10740000002801D006F016FA002005F01DFDFFF758
:1074100053FC002005F018FD07B0F0BD08B500785A
:10742000FFF7CCFC08BD3CDF70473DDF7047000034
:1074300008B5FFF751F904282ED101F00DFB02F039
:107440008BFD002803D02921144A01F0CDF906F064
:10745000F1F9002005F04DFEFF20FFF7E6FF0028C0
:1074600003D03E210D4A01F0BFF9CB20FFF7DBFF2F
:10747000002803D04021094A01F0B6F9002005F0A8
:1074800032FE012005F029FEBFF34F8F044A054B61
:10749000DA60BFF34F8FFEE7012008BDFC02020057
:1074A0000400FA0500ED00E0014B18707047C0467B
:1074B00048250020014B18787047C0464825002019
:1074C000014B18607047C046583400201FB56B460A
:1074D0000D249970110ADA701971110C120E59717C
:1074E0001C709A71587000F013FE6B46020AD87136
:1074F0001A72020C000E987268465A7205F050FE1D
:10750000034B69461868221C02F038FA1FBDC046BA
:107510005834002030B50223142587B001AC6370C5
:107520002570FFF7D9F8A07000F01EFCE07105F09F
:10753000BDFAA08005F0C0FAA07105F0C9FAE070AC
:1075400005F080FEA06005F093FEE060FFF7CAF84A
:107550002074FFF7AFF86074201C05F021FE044B87
:10756000211C18682A1C02F009FA07B030BDC04679
:107570005834002030B50A23142587B001AC63705D
:107580002570FFF7A9F8A070FFF7DAF8E070FFF7B1
:1075900097F8606005F08CFEE08106F093FE43787A
:1075A00002781B0213432381C37882781B021343A2
:1075B0006381437902791B021343A381FFF774F8B7
:1075C0002074FFF76BF86074201C05F0E9FD044B94
:1075D000211C18682A1C02F0D1F907B030BDC04642
:1075E0005834002030B585B010246B466A461C70B4
:1075F0000B23537000F08CFD6B46020AD8701A7191
:10760000020C000E5A71987100F05CFC6B46987089
:10761000002000F083FD6B46D871000A187201202B
:1076200000F07CFD09236B441870000A587006F0C6
:1076300003FE6B46D87206F013FE6B46187301F01A
:10764000CBF8051C01F004FA0F2318406B462D01FE
:1076500028435873684605F0A3FD044B6946186833
:10766000221C02F08BF905B030BDC0465834002012
:10767000C22310B5184C237000F076FBE071FFF7C1
:107680002BF8A07005F012FA642108F043F960703D
:1076900006F018FE43782372C37863724379A372AD
:1076A00005F0E6FD020AE0702271020C000E627124
:1076B000A07105F0C7FD020AE0722273020C000EF1
:1076C000A073201C0F306273FFF72AF8201C1721CB
:1076D00005F07DFD201C10BD49250020142310B5A8
:1076E00086B001AC6070201C237005F059FD044B7E
:1076F00022781868211C02F041F906B010BDC0467E
:1077000058340020014A024B1A607047FFFF000006
:1077100060250020FF2130B5084C23681D0A0D406C
:107720001A022B1C13434340D8B2000958400303EC
:107730005840014049014840206030BD602500208C
:10774000014B186880B2704760250020F8B5094BDE
:10775000051C0E1C041C1F1C074A1A60631BB34245
:1077600004DA2078FFF7D6FF0134F7E7386880B2F3
:10777000F8BDC04660250020FFFF000010B5041CC6
:107780000178023989B2FFF7E1FF2378E318013B62
:1077900018702378000AE418023C207010BD000025
:1077A000F0B589B00D1C041C1F496846202208F062
:1077B000ABFA002D02D1E00F800332E000208542B9
:1077C00002DA64426D420430002C03DC63422C1C5C
:1077D0001D1C0230AC4203DC2B1B64191D1C013044
:1077E000124B02039C4201DC24032D0300200123E1
:1077F000291C261C19411E41002D06DB6F46AD1BBE
:107800005E00BE5B6418801905E06F46AD195E002E
:10781000BE5B641A801B01330C2BE9D180108018E9
:1078200080B209B0F0BDC04612030200FFFF0000A5
:10783000FE23372803D8034B000118188378181C3F
:107840007047C04634030200F8B50127372815D821
:107850000B4B04011A1992781D1C002A0ED10E1C24
:1078600006F01AF8002801D106F002F82C19E07889
:10787000311C06F09AF9071C05F0DCFF381CF8BD36
:1078800034030200F8B50125372816D80C4F04013F
:107890003B199B78032B10D1151C0E1C05F0FCFF27
:1078A000002801D105F0E4FF3C192A1CE078311CC6
:1078B00006F069F9051C05F0BDFF281CF8BDC0469F
:1078C00034030200F8B50127372815D80B4B040103
:1078D0001A1992781D1C042A0ED10E1C05F0DCFF2B
:1078E000002801D105F0C4FF2C19E078311C06F006
:1078F0006DF9071C05F09EFF381CF8BD340302002B
:10790000F8B50127372815D80B4B04011A199278BE
:107910001D1C022A0ED10E1C05F0BEFF002801D14D
:1079200005F0A6FF2C19E078311C06F05DF9071C64
:1079300005F080FF381CF8BD3403020070B5002646
:10794000341C204D0235AB1E1B789E422FD1022ED7
:107950002FD0362E2DD02B78F0B2022B10D004D899
:10796000002B08D0012B1FD024E0042B0ED013D302
:10797000FE2B19D01EE0AB1D1968FFF765FF10E064
:10798000AB1D1968C9B2FFF7BBFF0AE0AB1D196850
:10799000C9B2FFF797FF04E0AB1D1A68111CFFF78F
:1079A00071FF0443E4B205E001231C4302E001241B
:1079B00000E00024013603F017FC1035382EC2D148
:1079C000201C70BD3403020070B5061C0C1C012085
:1079D000111C372C24D81348220182185578022014
:1079E000AD06AD0FAE421BDC9078042817D807F027
:1079F0007DFF031607110C00201CFFF725FF0FE089
:107A0000C9B2201CFFF77CFF0AE089B2201CFFF7F7
:107A100059FF05E0201C1A1CFFF734FF00E001208D
:107A200070BDC04634030200F8B50127372815D8C9
:107A30000B4B04011A1992781D1C022A0ED10E1C40
:107A400005F02AFF002801D105F012FF2C19E0787B
:107A5000311C06F0D2F8071C05F0ECFE381CF8BD0E
:107A600034030200F8B50127372815D80B4B040161
:107A70001A1992781D1C042A0ED10E1C05F00CFF59
:107A8000002801D105F0F4FE2C19E078311C06F035
:107A9000A6F8071C05F0CEFE381CF8BD3403020022
:107AA000F8B50427372815D80B4B04011A1992781A
:107AB0001D1C032A0ED10E1C05F0EEFE002801D17C
:107AC00005F0D6FE2C19E078311C06F075F8071C7D
:107AD00005F0B0FE381CF8BD34030200F8B50427E9
:107AE000372815D80B4B04011A1992781D1C002A4F
:107AF0000ED10E1C05F0D0FE002801D105F0B8FE15
:107B00002C19E078311C06F05CF8071C05F092FE99
:107B1000381CF8BD34030200F0B500262E4C87B0A7
:107B200002340196A31E1B789E4201D001230193CB
:107B30002078F5B2042848D807F0D8FE034712365B
:107B40002500281C03A9FFF7C9FFA31C1B68039A83
:107B50009A423AD9A31D281C1968FFF775FE0FE059
:107B600002AB5F1C281C391CFFF75EFF3A78A37834
:107B70009A422AD9A31D1968281CC9B2FFF7C0FE72
:107B80000123019321E002AB9F1C281C391CFFF745
:107B900069FF3A8863889A4217D9A31D1968281C7F
:107BA00089B2FFF78FFEEBE704A9281CFFF778FFE7
:107BB00004A80A49082208F07FF8002805D1A31D6F
:107BC0001A68281C111CFFF75DFE01361034382E90
:107BD000A8D1019807B0F0BD34030200B40602003A
:107BE000F7B50124372930D8194E0B01F6187378F0
:107BF00024199B069B0F984227DCB678151C081C9D
:107C0000A64209D0042E13D00124002E1DD1111C30
:107C1000FFF764FF041C18E06B469E1C311CFFF745
:107C200003FF3378041C0193281C01A904220AE0F5
:107C30006B469F1C391CFFF715FF321C041C281CC7
:107C40003B8801A9019308F05FF8201CFEBDC046E7
:107C50003403020013B5041C01A9FFF73FFF019B89
:107C6000201C591CFFF7F0FD16BD0000F8B50127D8
:107C7000372816D80C4B0401191989781D1CB942F4
:107C80000FD1161C05F008FE002801D105F0F0FD0B
:107C90002C19E078311C202205F03DFF071C05F06F
:107CA000C9FD381CF8BDC04634030200F8B50127F1
:107CB000372816D80C4B0401191989781D1CB942B4
:107CC0000FD1161C05F0E8FD002801D105F0D0FD0C
:107CD0002C19E078311C202205F006FF071C05F066
:107CE000A9FD381CF8BDC04634030200014B1870D2
:107CF0007047C04664250020014B58707047C0464D
:107D000064250020014B58787047C0466425002048
:107D100073B56B4600260F4CDD1D0F4B211D132044
:107D20001E702E70A670FFF7D9FE2870201C083038
:107D3000FEF7F6FC2B782020B34204D105F088FA38
:107D40000123A37302E005F08BFAA6732878C0B272
:107D500076BDC04664250020CE340020014B987BC0
:107D60007047C04664250020014B18787047C04614
:107D7000CE34002010B5FEF723FD0C4C23780028EC
:107D80000FD0002B10D100F0FBFC002803D1084BD2
:107D90005B78002B08D12378042B05D004232370B3
:107DA00002E0002B00D0207010BDC046CE34002071
:107DB0006425002008B5084B1A78042A09D14278B6
:107DC0000F2A04D102221A70FEF7EEFC01E0042A09
:107DD000F8D0012008BDC046CE34002008B5064AC0
:107DE00093780133DBB293701278002A03D0934268
:107DF00001D300F031FE08BD64250020F0B58FB03E
:107E00000591071C0021161C0AA8102207F0BAFFD2
:107E100006A80021102207F0B5FF284D0124AB7BF6
:107E2000002B48D0291C062208310AA807F06CFF55
:107E30001E2004AB291DC018042207F065FF7B78C3
:107E4000B91C9A092240039203221B091A403623C7
:107E500003981719434304923A01D318184A06A805
:107E60009B180AAA00920633102200F0E7FB06A82E
:107E700005F0CAF9002812D01320FFF7EBFE6B685B
:107E800005981B1906A910226B6007F03DFF6B4691
:107E9000347000241B7BB7707370AC700BE003234D
:107EA000B3706B461B7C347073702B780324002BEB
:107EB00001D0FFF793FF201C0FB0F0BD6425002018
:107EC00062340020024B5878431E984102307047BC
:107ED00064250020F0B50C1C261C8BB0111C051C61
:107EE000171C04A80822153E07F00EFFF3B2052B5D
:107EF00007D8824AD1560632D25601910392002207
:107F000005E0012252420392103201920E3A02928F
:107F10002A78002A14D0012B03D86B78002B38D193
:107F2000E4E0231C173B012B03D86B78012B30D1E5
:107F3000DCE0193C012C2CD86B78022B29D1D5E040
:107F40006E4C381C211C08220C3107F0B5FE0028AD
:107F500007D0211C381C1431082207F0ADFE002880
:107F600017D1052E00D9C1E0301C07F0BFFC030675
:107F7000090C1212211C1C3107E0211C243104E0E1
:107F8000211C2C3101E0211C343104A8082207F007
:107F9000BBFE029B002B00D0A8E0039B002B0AD164
:107FA000574808220F3004A907F0AEFE6A46554B29
:107FB00012791A709EE0039B012B00D09AE0514B7E
:107FC000019A1B789A4200D092E0141C36276A4628
:107FD0004B4D7C43291C4C4E127A33195A74013391
:107FE000181C0F310822039307F08EFE474808340F
:107FF00004A90822201807F087FE404906A83C3152
:10800000102207F081FEAB7B002B01D1FFF780FE31
:10801000019B03985F436B461B791021F355FFF7D3
:1080200095FB0025F31916379882F719FFF74AFFD9
:10803000831EDBB206AC012B01D9207001E00223C4
:108040002370019B6570002B01D1113308E0019B67
:10805000012B01D1213303E0019B022B02D13133EB
:10806000A37001E0032302931220254904ABC0183A
:108070000831062207F048FE2049231C381C4C31E9
:10808000039A00F0C7FA029B002B06D1019A3633FF
:1080900053431D4AD31801225A741037012D01D0C1
:1080A0000125C3E70F22174B144C1A703623019A8F
:1080B000211C5343F61800231C31B374039810227B
:1080C00007F0FAFD1036211C002800D1B5702C31C4
:1080D0000398102207F0F0FD00280BD13623019AF7
:1080E0005343094AD31801229A7403E0012300E0A4
:1080F0000323029302980BB0F0BDC046BC060200F9
:10810000642500202C2000206234002063340020ED
:10811000014B58687047C0466425002000220228A1
:1081200008D8362343430448C318597C1033012927
:1081300000D19A88101C7047623400200023022866
:1081400008D836335843044B1818437C013B584237
:108150004341DBB2181C70476234002010B50D4B50
:1081600000205C7C9A7C191C012C02D150425041A9
:10817000C0B20B1C48331B785A4253415B42184033
:108180000B1C47331B78013B5A4253415B4218405A
:1081900010BDC04662340020014B58607047C04695
:1081A00064250020264BF0B51A680533101C191CF5
:1081B00085B0103015784C1E257054780C7094786A
:1081C0004C70D47804328C7004318242F2D128246D
:1081D0002C210020091B1D1C0B352D5C03AA855486
:1081E00001300428F7D1880712D116485578D7787E
:1081F000455D167801959578C75D455D805D890878
:10820000D07011485570415C0198977041401170D1
:10821000591E08781178013C4140D973517818787B
:10822000414019749178587841405974D2789978BE
:1082300004334A409A73002CCAD105B0F0BDC04641
:108240007C2500201807020018080200F0B5002461
:10825000094B00015D6B094923180431C91800233B
:108260002A19CF5CD65C7E40D6540133042BF7D15B
:108270000434102CEFD1F0BDFC2500207C2500201B
:10828000074B10B55B6B191D0022985C054C205CF8
:1082900098540432102AF8D101338B42F4D110BD26
:1082A000FC250020180702000D4B5B6B59795A78AA
:1082B0005970597A5971597B5A735972997A9A78C7
:1082C0009970997B9A729A799971D97B9A73DA78B5
:1082D000D970D97AD973D979DA71D9727047C04611
:1082E000FC2500201B23C209534340005840C0B264
:1082F00070470000084B10B55B6B181D0022074942
:108300009C5C7F31095D99540432102AF7D1013306
:108310008342F3D110BDC046FC250020980802001E
:108320000D4B5B6B597A5A7B59735979597259784D
:108330005A705971997A9A789970997B9A729A7948
:108340009971D9799A73DA78D970D97AD971D97B38
:10835000DA73D9727047C046FC250020F0B50020C2
:1083600087B0FFF773FF0125FFF78AFFFFF79CFF38
:10837000224B5C6B231C10330593237867780193A1
:10838000181CE37878400293A3780393039A029B26
:1083900053401E1C04934640FFF7A4FF019B584026
:1083A0007040207003987840FFF79CFF6B46474071
:1083B00077406770187CFFF795FF039B584070402B
:1083C000A070029B01985840FFF78CFF029B584019
:1083D0004640059BE67004349C42CED1281C0135F2
:1083E000EDB2FFF733FF0A2DBED1FFF749FFFFF7CC
:1083F0005BFF281CFFF72AFF07B0F0BDFC2500201B
:10840000F0B50A2093B0FFF721FF09230193FFF78E
:1084100087FFFFF76FFF0198FFF718FF504B5C6B6A
:10842000231C103311932378E67802936378029823
:108430000393A3780493FFF755FF0590FFF752FFCE
:108440000690FFF74FFF0E900398FFF74BFF051CB8
:10845000FFF748FF0790FFF745FF0F900498FFF7DD
:1084600041FF0890FFF73EFF071CFFF73BFF10900E
:10847000301CFFF737FF0990FFF734FF0A90FFF732
:1084800031FF38226B469B181B7804320B936B46E6
:108490009B181B7806990C930C9A0B9B53400D93D9
:1084A00040226B469B18059A1B7851400D9A51400B
:1084B000039A59406A404A40049979404A40311C25
:1084C0004140514021700C9A0799C0B25A40424035
:1084D0004D40554002990E9A4A4055400899049AD9
:1084E00051400B9A4D405340089A434057405F40DB
:1084F000069A029B0A995A4057400F9B039A714073
:108500005340099A5F407240099B0A9E57405E4063
:108510000D9B039A5E407040029B059E4D405E405D
:10852000079B704053405840109E049B65705E400E
:108530007040119BA770E07004349C4200D072E739
:10854000019B013BDBB20193002B00D05FE7FFF7FB
:10855000E7FEFFF7CFFE0198FFF778FE13B0F0BDFE
:10856000FC2500200023CA5CC2540133102BFAD131
:1085700070470000054B10B59C6B0023E15CC25CAA
:108580004A40C2540133102BF8D110BDFC25002005
:10859000F7B5071C1C1C0F20131C0340381C0E1CB5
:1085A00001920093FFF7DEFF184D6F63002C03D09C
:1085B000174B1C60FFF7F6FD089B002B00D0AB6348
:1085C0003C1C019AE31B93420DD2301CFFF7D2FFF3
:1085D000201C311CFFF7C6FF10366C63FFF7BEFE90
:1085E000AC631034EDE7009B002B0DD0201C311C38
:1085F000FFF7B8FF1022009B0021D21AE01807F005
:10860000C1FB6C63FFF7AAFEF7BDC046FC25002046
:108610007C250020F0B510241F1C061C151C87B0FB
:10862000221C02A807F070FB0097301C02A9221C34
:108630002B1CFFF7ADFF07B0F0BD0000F7B5071C1E
:108640001C1C0F20131C0340381C0E1C01920093AD
:10865000FFF788FF184D6F63002C03D0174B1C6089
:10866000FFF7A0FD089B002B00D0AB633C1C019AD8
:10867000E31B93420DD2201C311CFFF773FF6C6388
:10868000FFF7BEFE201CFFF775FF1034AE631036F7
:10869000EDE7009B002B0DD0201C311CFFF762FF83
:1086A0001022009B0021D21AE01807F06BFB6C63CC
:1086B000FFF7A6FEF7BDC046FC2500207C25002064
:1086C00034DF704740DF704773DF704774DF7047F7
:1086D00076DF704777DF70477ADF70477CDF70475F
:1086E00083DF7047A7DF7047A9DF704760DF7047FF
:1086F00008B50023934201DA0133FBE7081C111C83
:10870000FEF796F908BD08B504F064FC012004F0FA
:10871000BDFD08BD08B50020FEF750FB08BD08B53B
:1087200001F08EFD08BD000007B5044A00900191DC
:108730006846082102F0C2FC0EBDC04699880100BF
:10874000002008B5011C024A02F0B8FC08BDC04672
:10875000B98801000122B420064B0749C0035A50D2
:1087600006495850A120C0001958114319501A60E9
:108770007047C046000001400C05000004050000E1
:1087800013B56B46DC1D0748211C03F01DF8031CC4
:108790000020834204D12078023843425841C0B2BD
:1087A00016BDC04638260020014B58687047C046A9
:1087B00038260020014B187A7047C0463826002022
:1087C00008B5034B0C211888024AFFF78BFF08BD40
:1087D0002E200020FFFF0000024B187A0523181AF4
:1087E000C0B270473826002008B5074BD86001207A
:1087F000196104F07EFCBFF34F8F044A044BDA602A
:10880000BFF34F8FFEE7C046382600200400FA056C
:1088100000ED00E070B586B0061C684604F004F96F
:10882000002802D0FA21490014E000990D4D0029DA
:1088300002D001232B7512E001AC1422201C07F09A
:10884000A1FA201C2682FFF73FFF0823021C9A434F
:1088500003D00549054AFFF7C7FF01236B7506B032
:1088600070BDC046382600200B020000170A020027
:1088700010B5041C023C03F045FE012C09D8054B41
:108880001A7D002A05D0A020002280001A75FFF76B
:10889000C1FF10BD3826002008B5082905D08D215C
:1088A00000204900034AFFF79FFF0368406898478C
:1088B00008BDC046210A020008B5002904D00020E6
:1088C0009921034AFFF790FF01F0F2FC08BDC04672
:1088D000680A020008B50249024AFFF785FFC04650
:1088E0004D030000170A020008B50378002B0AD1D7
:1088F000054B3B211888FFF7EBFE002803D0034906
:10890000034AFFF771FF08BD2E2000200B03000073
:10891000170A0200EFF308839A69014B9A617047C6
:108920003826002008B5031C0A1C0248191CFFF752
:108930005BFFC046EFBEADDE0123F7B51D4C5B42C9
:10894000A383FEF795FE6B46DD1C06232B708E235A
:1089500001AEDB003380231C28331B78271CB37047
:1089600017234437606200213822381C238407F023
:1089700009FA231C0122E5640A33251CDA87231C2B
:108980007C351C330021281C3732236707F0FAF9A5
:10899000022398342B70381C013B291C2B83266042
:1089A00001F006FA002804D0C221034AFF31FFF784
:1089B0001BFFF7BD38260020170A020008B5FEF796
:1089C00057FE172309490B840B1C4862081C1C33F3
:1089D0000B6744307C3101F0EBF9002804D0F22120
:1089E000034A4900FFF700FF08BDC04638260020B3
:1089F000170A020038B50A4C051C637D002B0AD00B
:108A0000FFF764FE0823021C9A4303D00549064A77
:108A1000FFF7EAFE6275281CFFF7FCFE38BDC04672
:108A2000382600202E020000170A020008B502F0C6
:108A300061FF011C014802F0A3FF08BD3826002099
:108A400008B5011C014802F09BFF08BD3826002034
:108A500008B502F04FFF08BD08B5FDF7B1FE0028CC
:108A60000AD0064B13211888FFF732FE002803D0E6
:108A70000349044AFFF7B8FE08BDC0462E20002077
:108A800019030000170A02007047000008B5031C14
:108A900005488AB23430191C00F056FE034BC0184A
:108AA000431E9841C0B208BDB8260020FCCFFFFF8E
:108AB00010B5041C07F0ACF9C0B2011C142800D991
:108AC0001421C9B2201CFFF7E1FF10BD13B5FDF75B
:108AD00077FE134C00280DD0201C503002F0ACFF64
:108AE000002803D001235134237016E00D48FFF70E
:108AF000DFFF12E0201C503002F09EFF00280CD057
:108B0000012301A8037002F091FD002803D006495B
:108B1000064AFFF769FE51342070002016BDC0469A
:108B2000B8260020B70A02006D020000170A0200F2
:108B300008B50B78422B04D14B78652B01D1FFF798
:108B4000C5FF08BD08B5FDF7C7FD011C0920FEF7EC
:108B50007BFE0848FFF7ACFF002004F0CAFA04F0DF
:108B600013F8FFF7ADFD002803D00349034AFFF7D0
:108B70003BFE08BDCE0A02002E030000170A0200C9
:108B800008B50848FFF794FF002004F0B2FA03F09C
:108B9000FBFFFFF797FD002803D00349034AFFF7C7
:108BA00023FE08BDCE0A020042030000170A02009D
:108BB00038B5041C03F038F9201C01F0D5F9304D0C
:108BC000211C281C343000F0E6FC2E48211C2830E3
:108BD00000F0EEFD2C48211C00F0BAFA2388172B78
:108BE0003ED004D8102B09D0112B17D047E01A2BF8
:108BF0000DD0522B28D0192B41D13BE0A088234B1C
:108C00001880FFF76DFD0120FDF7A0FD37E0A37987
:108C1000523558B22B70FDF78DFD30E051352B7871
:108C2000002B03D0FFF752FF00232B700122174BBC
:108C3000524200201A80FDF789FDFDF74DFDA0206E
:108C40008000FFF7E7FD1AE00021104B0A1C18888E
:108C5000FFF74AFD002812D00D490E4AFFF7C4FD68
:108C6000281CA11D3222543007F04EF80A48FFF7A5
:108C70001FFF04E0A379002B01D1FFF763FF38BD8C
:108C8000B826002038260020D03400202E200020D6
:108C9000DA030000170A0200D90A020038B51D4B9A
:108CA000051C0C1C9A4210D11B48FFF701FF8020C5
:108CB000800004F0D5FA02F01DFE002801D1013039
:108CC00000E00020FFF7BCFE07E0002A05D0962157
:108CD000101CC900114AFFF787FD2378104C112B97
:108CE0000AD003D80F48012B0DD00EE0152B09D068
:108CF0000D48232B07D008E0201C291C042207F074
:108D000003F802E00948FFF7D3FE02F0E3FD20720A
:108D1000002038BD43800000E30A0200170A020069
:108D2000382600200C0B02001A0B0200FE0A02007B
:108D3000A021A222F0B50127C905D2008B589DB011
:108D40001B0B3B400293D44C8B580020A360802324
:108D5000113ADB05FF3A9958D04D03919850D04A0B
:108D600005219A58261C6A60DF67231CCD4A0C3304
:108D70000092152201F0C4FD8D21002809D1CA4CB2
:108D8000391C201CC94A1C3001F01AFE002804D0EE
:108D900091214900C64AFFF727FD201C391C2030CD
:108DA000C44A01F00DFE2A21002800D0BEE0211C9B
:108DB0000420243102F086F8002801D0BE49E9E7FA
:108DC000211C092074315022BC4B01F0BDFA00284F
:108DD00001D0BB49DEE70CAC201C2770FFF786FCF6
:108DE000002801D0B749D5E7B74801F0D5FA0028E7
:108DF00001D0B649CEE7B64801F0D8FA002801D034
:108E0000B449C7E70320391CB34A06F043F80028E9
:108E100001D0B249BEE728204042FFF75BFC03F0D7
:108E2000E7FB002801D0AE49B4E7002307A8037090
:108E300002F0FCFB011E01D0AA49ABE72E2002ABD9
:108E4000C018062206F09EFF1E230122E380237A2B
:108E5000102713431B329343103A13432372072303
:108E60006372A14BA1480C9301235030211CA772BF
:108E7000237102F04BFC002801D09D498AE702F0E3
:108E800029FD9C4A28720A210820443202F000F988
:108E9000002801D098497DE7281CB3680399029AFD
:108EA0002830FDF793FCFDF7F3FB0123051C3B4342
:108EB00006AE20213A1C201C337006F063FFFEF73B
:108EC000F9FA012806D000280CD0022816D1201C5F
:108ED0008A4909E08A49201C072206F015FF281C50
:108EE0000EA908E0201C8749082206F00DFF312159
:108EF000281C02ABC9180A2206F0DAFE0CAD291CA8
:108F0000301C0B22FFF7EAFB682100280ED1072353
:108F100007AC23803533638055336060FF33201CFA
:108F2000E380FFF7D9FB002802D07221FF3131E73F
:108F30006E48754B343005A9059300F05DFB0028A1
:108F400001D0724926E75548714B311C28300693F1
:108F500000F060FC011E01D0B12187E0102714222F
:108F6000201C06F00FFF01263B1C334363733B1CA0
:108F70003343A3733B1C334323746423211C654890
:108F80002671237300F00AF9011E01D0B6216DE0AD
:108F90004022281C06F0F6FE281C5F4900F0EAFA81
:108FA00014A85E4900F0E6FA0F211BAA1378281CCA
:108FB0008B4333430B401F4365231770002202A9E4
:108FC0005B181A7000F0F6F9041E01D0B9214DE0CB
:108FD000FFF7B2FC211C1C22281C06F0D3FEA023A4
:108FE0009B026B60F0231B03AB6003232B734C4B82
:108FF000281C6B614B4BAB6100F07EFFD921002830
:1090000034D1494C1E22231C74331A80FEF77AFE99
:10901000221C7632231C1178002802D00E431670D1
:1090200001E0B1431170191CE122763108787433E4
:1090300002400C200243143082430A700722DA7087
:1090400009321A71A0230025A020384ADB00D55030
:109050008000FFF7DFFB8021134C2A1CE0694902E6
:1090600001F0D4FC021EAA4202D0E621890091E65A
:10907000206A2F4901F0CAFC002801D02D4989E659
:1090800003F05EFDFFF766FB02F0AEF8FFF71AFB98
:109090000028F9D028497DE638270020382600200E
:1090A0001C05000029870100382E00201F870100C1
:1090B000170A0200158701003405000041870100EE
:1090C0006D04000076040000B18B01007A040000FA
:1090D000718801007F040000078701004B04000035
:1090E000E3040000EA0400009D8C0100B826002083
:1090F000FA040000B82E00203C0500003F0B0200DF
:10910000380B0200470B0200318B0100BD0200004A
:10911000F1860100D03400204F0B0200550B0200F5
:10912000E9880100D5880100382F00200020004088
:10913000660600009D0300002C050000A0DF7047BC
:10914000A2DF7047A3DF7047A4DF7047A6DF704738
:1091500013B50B88112B05D0502B07D0102B1CD129
:109160008B8801E001235B42438216E0037D002BE4
:1091700013D0CC88428994420FD1CB8B022B0CD1D7
:109180000368002B09D00131CA7F01A9D20701D59C
:10919000002200E001220A70984713BD0B68F0B569
:1091A0000360012301245B4243820A7993B0037474
:1091B0003D4B0275071C021D0E1C201C04A98C705F
:1091C0000B80FFF7BBFF051E6BD13D7D002D07D047
:1091D000102202AB14431C70727B5A7002229A70E8
:1091E00000211C220BA806F0CDFD012302222B40FA
:1091F0001B0113432C216A46521813706A1E9541B5
:1092000002AB6D422B406A46109301239375274BA6
:1092100006AC9382B37BD51C1373F37B002153738D
:1092200002239373337B1422201C2B7006F0AAFDBB
:1092300005AB069303AB6360012325612381A38102
:10924000B888BB1D0BA9221CFFF77AFF051E28D189
:10925000B168002924D06A4601239375144B938288
:109260006B469881337C01A813730223937300F03B
:109270007BF9061C291C1422201C06F083FD3A1CD5
:1092800005AB236003AB6360B6B201AB2681A68158
:109290002361F8880E32211CFFF754FF051C00E003
:1092A000F881281C13B0F0BD0F180000192A000027
:1092B00008290000F0B589B06B46D971027C0B1CFF
:1092C000051C00219A4228D00E26012703746B4604
:1092D0006E443780C088321C0733FFF735FF011E0C
:1092E0001BD16B8A08200093009A0D4B9A4213D031
:1092F0002B7D002B10D004AC201C102206F042FD68
:109300003780EB88009823806B46211C0733A770B9
:10931000A660E360FFF71AFF011C081C09B0F0BD4E
:10932000FFFF0000A0DF7047A2DF7047F0B591B0EB
:1093300001900F1C151C1C1C002904D1081C1B4A81
:109340006D21FFF751FA002D04D1281C6E21174A18
:10935000FFF74AFA09AE301C00211C2206F012FD6C
:10936000012202A98A710A1C694602238988337086
:109370009180227802A90A70627804AC4A708B70DE
:10938000201C0021142206F0FDFC03AB049302AB69
:109390006360074B311C1888221C169B2581A58110
:1093A0002761FFF7C1FF11B0F0BDC046590B0200A5
:1093B000B42F0020F0B5041C0120604D87B0604B35
:1093C00003A92A1C88700B80FFF7ACFF002800D08F
:1093D000B1E02288002A03D12289002A17D00AE0AE
:1093E000AB1C0093231C574861683C33FFF79EFF7A
:1093F0000028F1D09FE02B1C0A330093231C524815
:10940000E1683C33FFF792FF002800D093E0228A06
:10941000002A0BD02B1C12330093231C4B4861698C
:109420003C33FFF783FF002800D084E0228B002A22
:109430000AD02B1C1A330093231C4548E1693C33A6
:10944000FFF774FF002876D1228C002A0AD02B1C4B
:1094500022330093231C3F48616A3C33FFF766FFC9
:10946000002868D1228D002A0AD02B1C2A330093B1
:10947000231C3948E16A3C33FFF758FF00285AD1D2
:10948000266B002E27D03068FF22031C12021340E7
:1094900004A91B0A77684B70FF23021C1B041A40A7
:1094A0000870120C000E8A70C8700F71B068FF222D
:1094B00003401B0CCB712B1C12020240120A3233E8
:1094C00048718A710093231C244808223C33FFF71B
:1094D0002DFF00282FD1636B002B03D1A06B002838
:1094E0000DD128E0291C3A311A7900911968231C02
:1094F0001B483C33FFF71AFF0028EFD01BE003782E
:1095000004A90B70438842354B701B0A8B7083880B
:109510000722CB701B0A0B71C38812484B711B0AC0
:109520008B71231C00953C33FFF700FF031C0020C8
:10953000834200D0181C07B0F0BDC046B42F0020F5
:109540000A180000292A0000242A0000252A000009
:10955000272A0000262A0000282A0000232A0000CB
:109560002A2A0000502A00000B7803704B784370C1
:109570000220704738B5041C081C0D1C06F048FC7E
:109580006560208038BDA0DF7047A2DF7047A6DF8E
:10959000704763DF704710B500282CD000292AD00F
:1095A0000B88112B05D0502B07D0102B23D18B8883
:1095B00001E001235B4283821DE0CB88048A8A1D7F
:1095C0009C420FD1148B022C0CD18B1CDB7F013100
:1095D000CA7F1B0213430122134001D082750AE0A7
:1095E000837508E084889C4205D18369002B02D0F2
:1095F0002031128B984710BDF0B595B0051C0E1C9C
:1096000004A85049102206F07FFB0E24002D00D143
:1096100095E0002E00D192E001235B42AB823368DB
:1096200004A8AB610023291CAB75FFF7B2FF041E31
:1096300000D084E02B7802A98B700123AA1C181C8F
:109640000B80FFF7A0FF041E79D1012210231343E2
:109650006A4613700122102313436A465370022393
:109660000DAF9370211C1C22381C06F08BFB1022BE
:109670003B7808AE13433B706B466A467B612B78A0
:10968000211C93730323938101220D3313436A46F4
:1096900013710122102313436A4653710323301CB4
:1096A0009371142206F06EFB03AB089301AB736059
:1096B000012333811333B3812B1C6888391C321C7E
:1096C0000C33FFF762FF041E39D1211C1C22381C09
:1096D00006F058FB0C233A780F2113436A463B707F
:1096E0002B78301C937302239381E3B28B430E39A2
:1096F0000B430E310B4001310B4369460B710F23B5
:10970000A2B2120A9A430E3B1A430E331A40013397
:109710001A4303234A718B711422211C06F032FB79
:1097200003AB089301AB7360012333811333B3811F
:1097300068882B1D391C321CFFF727FF041C201CD6
:1097400015B0F0BDA40B0200F0B587B06B46051C48
:1097500000919E1DDA800E20002D1CD0AF8A0F4B89
:1097600006389F4217D0AB7D002B14D093B201383E
:10977000142B10D802AC0021201C102206F002FB92
:10978000AB89381C2380009B211CE3600123A66069
:10979000A370FFF7FCFE07B0F0BDC046FFFF00005E
:1097A000A0DF7047A2DF7047A6DF704763DF704716
:1097B00010B500282CD000292AD00B88112B05D0F9
:1097C000502B07D0102B23D18B8801E001235B4263
:1097D00083821DE0CB88048A8A1D9C420FD1148BA2
:1097E000022C0CD18B1CDB7F0131CA7F1B0213437F
:1097F0000122134001D082750AE0837508E0848855
:109800009C4205D18369002B02D02031128B9847EE
:1098100010BD0000F0B597B0061C0C1C06A85649F8
:10982000102206F071FA0E25002E00D1A1E0002CC6
:1098300000D19EE001235B42B382236806A8B36196
:109840000023311CB375FFF7B1FF051E00D090E077
:10985000337804A98B708E23B21CDB0001200B80AF
:10986000FFF79EFF0190051C031E00D081E001223E
:109870001033134302AA137001221023134302AAC8
:10988000537002230FAF291C9370381C1C2206F062
:1098900079FA10223B78012113433B7002AB7B61C4
:1098A000337802AA937303239381102203AC0A43F3
:1098B000227010220AAD0A436270281C01991422FA
:1098C000A37006F05FFA05AB0A9301232B811333D3
:1098D000AB81331C6C602A1C7088391C0C33FFF779
:1098E00061FF051E45D1291C1C22381C06F04AFACE
:1098F0000C233A78258013433B70337802AA937384
:109900000223A5709381FEF7FDF90F212378627879
:109910008B430E390B430E310B4001310B43237047
:109920000F239A430E3B1A430E331A40113300287B
:1099300000D10B1C1A43627006220127A3780AADDE
:109940009343043A1343E53213403B43281C002160
:10995000D33AA37006F016FA05AB0A9314236C6091
:10996000AB812F812A1C7088331D0FA9FFF71AFFC6
:10997000051C281C17B0F0BDB40B0200F0B587B071
:109980006B46051C00919E1DDA800E20002D1CD018
:10999000AF8A0F4B06389F4217D0AB7D002B14D0F7
:1099A00093B20138142B10D802AC0021201C1022D5
:1099B00006F0E8F9AB89381C2380009B211CE3608A
:1099C0000123A660A370FFF7EFFE07B0F0BDC0460D
:1099D000FFFF000072DF704779DF70477DDF70475F
:1099E00065DF7047F0B50024061C251C87B00C9F6E
:1099F00000933B7803910292019333889D423ADAB7
:109A00007368A9005918042205A806F07DF904AB73
:109A100005A8D91C0022FFF7E3FF002835D104ABCD
:109A2000DB78029A934222D16242624102993B78EA
:109A3000520059188A181F2A1BDC002C07D16946CE
:109A40009A1C3A700133009A097BDBB2D15404AB03
:109A5000DC1C3A78009B05A89A18211CFFF7C0FF70
:109A6000002812D1237801243A78D3183B700135AD
:109A7000C3E70C2009E00020844206D03B78019A1D
:109A8000013B9B1A0199009A535407B0F0BDF7B5FA
:109A9000089E171C00960222051C1C1CFFF7A2FF43
:109AA000002806D10096281C391C1022231CFFF721
:109AB00099FFFEBD0023F0B51370037889B0061C32
:109AC0000D1C141C002B03D1B378002B4BD029E0C4
:109AD00043780C201D2B00DD61E10E2704ABFF183D
:109AE0001D23881C391C3B80FFF778FF002800D01D
:109AF00055E13378022B03D13B8809221D2B08D96D
:109B00007378002B03D09BB208221D2B01D90822A9
:109B10003B88DBB2591C29706A70227802329B188C
:109B20002370D1E723780C201B2B00DD37E10E27B3
:109B300004ABFF18381CFFF74FFF002800D02EE1C0
:109B400023785A1C22700322EA5423785A1C22706C
:109B50001922EA5423783A88EB181A70120A5A70BC
:109B6000237802332370B388002B1FD0B2680720FC
:109B7000002A00D113E122780530911CCB181F2B4D
:109B800000DD0CE1531C2370B3880133AB54237800
:109B90005A1C22700122EA542078B2882818B16831
:109BA00006F0B2F8B2882378D3182370F368002B3C
:109BB00012D01A7823780C201C2B00DDEFE0591C02
:109BC00021700221E9542378591C21700A21E9549B
:109BD0002378591C2170EA54338A002B03D1338B2C
:109BE000002B16D00AE0301C00941030022106220F
:109BF0002B1CFFF74CFF0028F1D0D0E0301C009464
:109C00001830032107222B1CFFF741FF002800D04A
:109C1000C5E0338C002B0AD0301C00942030142176
:109C200015222B1CFFF733FF002800D0B7E0B36AE2
:109C3000002B49D022780C20049206321F2A00D92A
:109C4000ADE019880538052900D8A8E0554A564FD7
:109C50008A1892B2BA4200D8A1E05A880392052A23
:109C600000D89CE04F4FBC469444674602AA9781B7
:109C70009789BC464C4FBC4500D890E04B4FB94249
:109C800005D0039ABA4202D0914200D987E0049AE3
:109C900004990132227005226A542278511C2170E5
:109CA0001221A95422781988AA181170090A517032
:109CB00022780232D2B222705988AB181970090A80
:109CC0005970237802332370F76A002F29D03A792C
:109CD0002178931C881CDBB2C3180C201F2B5EDC80
:109CE0004B1C033223706A5423785A1C2270FF22C3
:109CF000EA5423783A88EB181A70120A5A702378BB
:109D00000233DBB22370BA88002A0AD0B96805385A
:109D1000002944D0E81805F0F7FFBA882378D31853
:109D20002370331C343305931B78002B01D10020A2
:109D300035E0336B002B31D000230493059B049A4C
:109D40001B789342F3D90C27049B22785F43336B33
:109D5000511CDF193B7921700333AB5423785A1C13
:109D600022701622EA5423783A88EB181A70120AE5
:109D70005A7020780230C0B22070BA88002A09D008
:109D8000B96800290AD0281805F0BEFFBA882378E0
:109D9000D3182370049B0133DBB2CEE7072009B050
:109DA000F0BDC0467FF3FFFF7DF30000FFFF000022
:109DB000F0B593B06B466A469E1D0023D71D0D1C5F
:109DC00033703B7098420BD08388002B01D1072061
:109DD00024E08368002BFAD01B785B07F7D50DE0F1
:109DE000041C002D03D0AB88002BF0D10EE02A1C00
:109DF00031783B78201CFFF7EDFD0FE002A9321C03
:109E0000FFF758FE02AC0028EBD007E03A1C281CF4
:109E10000AA9FFF74FFE0AAA0028E9D013B0F0BD47
:109E200075DF704776DF70477ADF70477BDF7047FA
:109E300037B5164C164B2088251C984225D0A378A0
:109E4000227C0133DBB2A3709A4209D3211C20315A
:109E5000FFF7E6FF002818D0E369002B14D114E0C7
:109E60000023A370237D002B08D03B21FFF7DAFFEE
:109E7000002803D0E369002B00D09847AB69002B82
:109E800003D0002201A80270984737BD003000209F
:109E9000FFFF000013B5174C638D228C9A420DD83A
:109EA000628C9A420AD3A369002B03D0012201A835
:109EB0000270984700233434237013BD231C3433BD
:109EC0001B78002B05D0A369002BF3D001A800223A
:109ED000EEE7A378002B01D1A16800E0E168206BD8
:109EE000002200F093FD0028E4D0E369002BE0D1CC
:109EF000E0E7C04600300020021C70B5144C231D62
:109F000062CA62C362CA62C31268251C1A60231C3B
:109F100000220168343320351A70281C914212D077
:109F2000083205F0F1FE281CFFF77EFF00280DD156
:109F3000201C012300215B42064A30302380A1709F
:109F400000F03EFD02E0FFF771FFEFE770BDC04695
:109F500000300020319E010008B5024B186B00F064
:109F60009DFD08BD0030002010B50388112B18D0CE
:109F700002D8102B05D039E0122B2FD0502B17D040
:109F800034E01B4C8388011C201C0E312830082231
:109F9000238005F0B9FE0023A370638A002B25D12E
:109FA00022E00123124C5B4223800023A3700BE0CC
:109FB0000F4CC188628A914218D1C38B022B15D1F4
:109FC0000130C37FDB070FD4206B00F067FD002852
:109FD0000CD0E369002B09D0984707E0811D0448A5
:109FE0000822283005F090FEFFF754FF10BDC04650
:109FF0000030002073B5154C011C251C2035281C91
:10A00000082205F081FE281CFFF70EFF251C061E06
:10A0100019D1638D228C9A4202D8628C9A420BD25B
:10A020002B1C291C01243433288820311C70FFF795
:10A03000F7FEAC70061C06E0A369002B03D00122DA
:10A0400001A802709847301C76BDC0460030002041
:10A0500026DF70472ADF70472BDF70470C4A70B548
:10A06000431E8000865A9B008C1B995A1018D318E7
:10A070008578881B598880B2491BC9B205F0DAFC83
:10A08000011C201C05F0D6FC2818C0B270BDC046CB
:10A090003020002070B5094A451EAD008000865A68
:10A0A0005319101844885B88881BA95A1B1B891BED
:10A0B000584305F02FFC001980B270BD30200020FD
:10A0C000F8B596230526DB005843800A70432C4BD5
:10A0D00086B21A88B24201D25C8811E001200433B2
:10A0E0001A88B24204D2311CFFF7D4FF041C07E0E7
:10A0F0000130C0B204330628F2D100252C1C23E025
:10A10000002CFAD01F4B9C421CD80A27FCF7DEFA21
:10A110003B1C434300259C420EDD64230A3D191A73
:10A120004543C820400205F085FC65196843391C89
:10A13000F84005F0EFFBC5B2201C052105F0EAFB55
:10A14000C4B201E06425C824211C2A1C301C640808
:10A1500002F020FEE1B20C48FFF7ACF80823021C25
:10A16000041C9A4309D0094B984206D0084B9842E8
:10A1700003D0F421074AFEF737FB201CF8BDC04688
:10A1800030200020E7030000D0340020043000001D
:10A1900001340000C40B0200084A08B55168084B9E
:10A1A000002909D000215160A122D2009858012233
:10A1B000C0B25A60FFF784FF08BDC046FC70004083
:10A1C00000700040C12238B50123184C9200A35002
:10A1D0001749184A184DA15000226A60A022D200E7
:10A1E000A3500720FFF736FF002804D02821134A88
:10A1F000FF31FEF7F9FA07200321FFF72DFF0028B2
:10A2000004D095210D4A4900FEF7EEFA0720FFF72A
:10A210001FFF002804D02E21084AFF31FEF7E4FA80
:10A2200000236B600133236038BDC04600700040DE
:10A230000204000004050000FC700040C40B020092
:10A24000C12300210E4A9B0010B50E48D1500E4B81
:10A25000D0500E4BFE3059600131115011605A68D8
:10A26000074C002AFBD00022084B5A60A123DB00D8
:10A27000E05880B2FFF724FF0123636010BDC046A1
:10A28000007000400204000004050000FC70004063
:10A2900026DF704751DF704710DF704711DF7047CE
:10A2A00061DF704708B5081C111CFEF73BFB08BDB9
:10A2B000F0B5234D85B02B78002B3ED06E68AC688E
:10A2C00073425E4163425C41F6B2E4B2002E32D189
:10A2D00003A8FFF7DFFF05280AD0002804D0692172
:10A2E000184AFEF781FA04E003986B68984700E08B
:10A2F0000126002C1CD1AB8903A90B802B690124FA
:10A30000181C0193FFF7CCFF071E052F0BD0002868
:10A3100005D080210B4AFEF767FA002403E001987C
:10A32000AB6898473C1C002ED0D0002CCED004E067
:10A33000002E02D1CAE7002CDDD005B0F0BDC0462A
:10A3400038300020D10B020038B5051C0720002949
:10A3500010D08C070ED1084C281C21610749A2811E
:10A360006361FFF799FF002804D1012316302370A1
:10A37000FFF78EFF38BDC04638300020A5A201008F
:10A3800008B5FFF78BFF031C5A1E9341014ADBB24D
:10A39000137008BD383000200E23002802D0024B75
:10A3A00098600023181C7047383000200E230028C6
:10A3B00002D0024B58600023181C70473830002030
:10A3C00008B5084B5B69002B08D09847002807D0D8
:10A3D0009921054A4900FEF707FA01E0FFF768FFF7
:10A3E00008BDC04638300020D10B020010B54378BC
:10A3F000827801339A1A041C501E82415242134043
:10A4000022780020934205D00B60182360784343E4
:10A410006068C01810BD0000154B02205968C905BE
:10A42000C90D24D01039CBB25AB2002A0BDA0F2250
:10A430001A40083AC24082400E49521803210B408C
:10A4400052688B4007E092080B4BC0329200D25802
:10A4500003230B40DB00DA40D3B29B09DBB20020C0
:10A46000012B04D0033B5A425A410230801A7047F4
:10A4700000ED00E018ED00E000E100E02F23C04611
:10A48000C046C046C046C046C046C046C046C0469C
:10A49000C046C046C046C046C046013B002BEED178
:10A4A00070470000802238B50B4B9202DA67802398
:10A4B000D2220125094C5B029200A350403AA350DE
:10A4C0006560FFF7DBFFA5600025054C2560FFF701
:10A4D000D5FF257138BDC04604E100E00010014001
:10A4E00050300020F8B50025204B214C5D649D6460
:10A4F000DD641D655D609D60A7687B1C35D01D4BCC
:10A500001D4AD6582368F61A3602360A24235F43BA
:10A51000E368DB195A68964215D3B61AAD1822695A
:10A520001F6A002A0AD09869D9699047002808D084
:10A530006421124AFF31FEF757F902E09A69D8699F
:10A5400090477B1CE2D1227D637D934205D101338C
:10A55000DBB2022B00D1002363758022637D52039E
:10A560009B00E418064BA5615A60F8BDFC10014041
:10A570005030002004050000001001401F0C0200B4
:10A58000FCE100E0F0B5AE4B89B01A68597D049249
:10A590001A7D914211D00132D2B2022A00D100229A
:10A5A0001A751A7D049992009A18926900925218AD
:10A5B0001202120A1A60012201E0002200920592A2
:10A5C0009A680133DB7F06920193013BDBB2039370
:10A5D000039B9B4AFF2B61D0039B526ADB00D3187D
:10A5E0001C780293029B5B78A34255D01822029BF1
:10A5F00062435B68013407939A18029BE4B29B782C
:10A600001B1B591E8B415B421C401378022B05D04B
:10A61000032BE7D18A4B9A68D96831E02425526828
:10A62000874B5543DF6894467D192A7D002AD9D08F
:10A630009868011C061C4B1C1FD02423614504D0C4
:10A640004B43FA180E1C116AF5E78E4208D14343BA
:10A65000FB181B6A7A4A9360013301D1FFF722FF8E
:10A6600024235E43296ABE196A683162481C04D0FB
:10A670004B43FF187B689B187B6000232B75B1E769
:10A68000531C06D0242353430022CB181A751A6A90
:10A69000F6E76B4B9A60A5E7039B96E705999368ED
:10A6A000002909D1069A9B1A5A1E9341DBB20293E4
:10A6B00001235B429C462DE0D5680122524294461C
:10A6C00000205A1C22D024225A43AA185168009C08
:10A6D0008C4205D25A48091B83605160012318E05F
:10A6E000009C4018641A002100941469516011758F
:10A6F000166A8C4208D00499D46041180902090AEC
:10A70000916061469C461162331CDAE74C4A9360C3
:10A71000023302934A4B9A6803925A6A0692DA68A5
:10A720001B6800920593039B019A013AD2B20192F1
:10A73000FF2A00D188E0019A0699D2008A18614662
:10A74000013108D0604624214143009864464118F5
:10A75000086A844624E0117850788842E4D01820B2
:10A7600048435468013120189478C9B211708C4262
:10A7700001D100211170017844681D1C01295DD1AF
:10A7800023316143009D69180E7D1D1C002E55D19B
:10A7900085688D60C568CD6005690D614069C861D7
:10A7A0008868059D274F451B2D022D0ACE68BD42A6
:10A7B00002D8AD194D600AE0059D281A0002000A72
:10A7C000864202D9361A4E6001E00020486000201F
:10A7D0008860C86001300875023808622530061CA0
:10A7E00066430099251C8E19591C27D05843009D9B
:10A7F000716828184568A94204D8691A4160251C67
:10A8000033621BE01D1C049324206843009F38180A
:10A810004768B94206D9006AC91B0495471C05D090
:10A82000051CF1E77F1A4760281C049D71602421F4
:10A830004D43009930624D192C621D1C2B1C7EE784
:10A8400050300020FEFF7F00284D039AAB609342FA
:10A8500002D1029A002A46D05A1C42D024225343E5
:10A86000EA68234CD3185B68224A0093A6582B68E9
:10A8700003920193F31A1B021B0A033302932B79F1
:10A88000002B12D18023C13A5B02FF3AA350403A19
:10A89000A350C02180220127174B920249005A5031
:10A8A0001A602760FFF7EAFD2F71029B009A93421E
:10A8B00000D2131C019A9B18A8221B021B0AD2006B
:10A8C000A350039AA258921B1202120A9E1B360230
:10A8D0000332360AB24206D98022084B92025A60ED
:10A8E00001E0FFF7DFFD09B0F0BDC04650300020A9
:10A8F000001001400405000000E100E0FCE100E080
:10A90000F8B51E1C051C0F1C141C0720B3074BD1E7
:10A91000002E49D0FFF7C6FD244A069B242113616F
:10A92000131C28331F704F43F1190F1C331CD660C2
:10A93000994204D00020187018752433F8E70320DA
:10A94000531CD8771823516218310E1C6343002022
:10A95000796038707870BC700837C918B742F6D182
:10A9600001238024C021C526FF275B429360104B42
:10A970006403490010755075B6005C509959B9438D
:10A980003F3F39439951A1211C600A4CC9006550D1
:10A99000C425AD005E5908493140C0263602314316
:10A9A0005951064BE3581360F8BDC04650300020A3
:10A9B00000E100E000100140FF00FFFF040500007F
:10A9C000114BF0B5DC68061C0820002C1AD00138A9
:10A9D000002A17D0002E15D0002528331F78BD423D
:10A9E0000FDA201C2434231C243B1B78002B06D1B7
:10A9F00001244170047082613560181C02E0013549
:10AA0000EDE70420F0BDC04650300020F0B51F4CEB
:10AA1000061CE56885B00820002D34D0231C28339F
:10AA20001B7801389E422ED204292CD9242373434B
:10AA3000EB181D780130012D25D15B780027012B03
:10AA400000D10F1C01920D1CFFF7E6FC646AC000E8
:10AA50002418201C03A9FFF7C9FC031C0420002BA9
:10AA600011D001220A491A700A4A5E608A580020F1
:10AA70009A60019ADD605A6180221F61039B520334
:10AA80006370054B5A6005B0F0BDC04650300020E1
:10AA90000010014004050000FCE100E073B5154E14
:10AAA0000823F268002A22D0331C283319780723A0
:10AAB00088421CD21D3343439A5C0823012A16D1D5
:10AAC000051CFFF7A9FC746AC0002418201C01A90A
:10AAD000FFF78CFC0423002809D08022023B03707E
:10AAE000019B45606370044B52035A600023181C9D
:10AAF00076BDC04650300020FCE100E013B50F4C9D
:10AB00000823E268002A16D0FFF786FC646AC000BA
:10AB10002418201C01A9FFF769FC042300280AD08F
:10AB20008022013B0370043B4360019B520363702E
:10AB3000034B5A600023181C16BDC046503000203D
:10AB4000FCE100E0024A034BD35803600020704749
:10AB50000010014004050000401A0002000A1060C5
:10AB6000002070470C4A38B51468031C002C0BD029
:10AB70000578CAB24068291CA04700280BD02821BC
:10AB8000064AFDF731FE06E0012901D0002902D175
:10AB900018785B68984738BD7C300020650C02004F
:10ABA00037B5164D01A9287900F054FA041E23D1B7
:10ABB0002B7DA34220D90121AA68E300D0180A1CEA
:10ABC00003789A40131CEA681A4206D04268002AA9
:10ABD00003D043788B420AD108E02A691A4208D090
:10ABE0004368002B05D04178012900D00021FFF7F0
:10ABF000B9FF0134E4B2DBE737BDC0467C3000204A
:10AC000070B5084C061CA0690D1CFFF747FF002813
:10AC100007D1321CA0692A43E1692661E560FFF78C
:10AC2000F5FE70BD7C300020F8B50725042A27D931
:10AC3000144CE2610022A060217523600139C9B281
:10AC4000FF290FD0A027CB00C3181D789E78C135EF
:10AC5000FF35AD00B600FF05EE511D780123AB4076
:10AC60001A43EBE7201D111C074B00F05FF9051E8E
:10AC700006D1201C291C1830044AFFF7A1FE051C30
:10AC8000281CF8BD7C30002001AC0100A1AB010004
:10AC900008B5044B08209A68002A02D0187900F001
:10ACA00069F908BD7C30002010B5074C0820A36866
:10ACB000002B07D0207900F0ABF9002802D1A06961
:10ACC000FFF7ECFE10BDC0467C300020F7B5164FF4
:10ACD00007233A7D824224D3BE680133002E20D060
:10ACE0000D1C041C01A9387900F0B4F9031E18D119
:10ACF000E40032195178002908D11378019ADA401A
:10AD0000131CDB070AD500232B700AE0031C012962
:10AD100007D11378019ADA400A42F4D001232B704C
:10AD20000023181CFEBDC0467C300020031C10B55B
:10AD30000E2000290AD00538002A07D0541E2240D0
:10AD400004D1101C9A6019609C80DA6010BD031C4D
:10AD500010B5C0689A889C68041B0420944207D8E8
:10AD6000D8680240186881540020DA680132DA603D
:10AD700010BD10B5C4688268031C0520944209D038
:10AD800098689A8802401868825C00200A709A6865
:10AD900001329A6010BDC3688360002070470000D4
:10ADA0000D4B30B51A6814235843845800220123F0
:10ADB00093401C420BD0A0219300C9055B18E021F1
:10ADC000C9005D580548284058505858585001321D
:10ADD000202AECD130BDC0469C300020FFFFFCFF94
:10ADE000F0B500240123A3401A1C194217D00368B0
:10ADF000134203D113430360802702E0C02793432B
:10AE00000360A022A300D2059B18E022D2009D5827
:10AE1000054EBF022E409E509D583D439D5001342B
:10AE2000202CDFD1F0BDC046FFFFFCFFF7B5A22309
:10AE3000A022DB00D205D6580023BE221F1C1F49CA
:10AE400052008B501E4B1A7ABA4235D90122BA40B1
:10AE500019685B6813422CD014247C430C19E368F6
:10AE6000256873409D43231C0C33181C291C009338
:10AE7000FFF7B6FFA223A022DB00D205D358734010
:10AE80000BD01E43E368226873409A430098111C5C
:10AE90000192FFF7A5FF019B1D43A1686068B143C4
:10AEA0000B1C304003431D4203D028402940236936
:10AEB00098477B1CDFB2C5E7F7BDC0460060004085
:10AEC0009C30002038B50723002924D003240C40EF
:10AED00021D1124B196058721C725C6014234343D9
:10AEE000081C1A1C211C04F04DFF0121C223C120A3
:10AEF0000B4A49429B00D1500A4A893B4131FF3BF2
:10AF0000D15080001558084B2B408025ED032B4372
:10AF10001350231C1160181C38BDC0469C30002003
:10AF20000060004000E100E0FFFF00FFF8B5104EB8
:10AF300008243768002F18D0013C002B15D0747AF4
:10AF4000357AA4460424AC450FD910346C433C191F
:10AF50000F1C1743236127606160A2606B1C0570A2
:10AF6000281C33720024FFF71BFF201CF8BDC046CD
:10AF70009C300020234BF0B51968082200293FD0EF
:10AF80001C7A013A84423BD900241F4D7632FF32AD
:10AF9000AC50A222A024D200E405A4585A68002A8A
:10AFA00004D18027C1263F06B600AF510125854058
:10AFB0002A435A6014235843002308180568C360C5
:10AFC00001229A40154217D0144204D1C1680A43A5
:10AFD000C260802200E0C022A02192029446C905EE
:10AFE0009A005218E021C9005758084E3740575070
:10AFF00067465658374357500133202BE0D1002283
:10B00000101CF0BD9C30002000600040FFFFFCFFE2
:10B0100038B50E4D08232A68002A14D02A7A013B3D
:10B02000824210D9041CFFF7BBFE0120A0406B68D0
:10B0300083436B6006D18020C2220549000692003E
:10B04000885000E00023181C38BDC0469C3000200A
:10B05000006000400B4A30B514680823002C0ED065
:10B06000127A013B82420AD9A223A022DB00D20538
:10B07000D5581422504303592B400B600023181C51
:10B0800030BDC0469C3000202EDF70472FDF704758
:10B0900030B50324072314400BD14B1C064DDB00B5
:10B0A0009BB22A60D218231C2C726A606C72688171
:10B0B000A981181C30BDC046A8300020F0B5444C12
:10B0C00085B0638900900E1C019209208B4200D24A
:10B0D0007BE0002302AAD3713E4B04275B68DB05AB
:10B0E000DB0D1ED0103BD9B24AB2002A0BDA0F2278
:10B0F0000A40083A384B92089200D21803230B40BA
:10B100005268DB0007E092083449C032920052587E
:10B1100003210B408B40DA40D3B29B09DFB2012BF5
:10B120000ED002ABD81DFFF7AFFF022801D172B6D7
:10B1300007E0002805D05921294AFDF755FB00E01A
:10B140001F1C237AA289DBB20021934201D2013372
:10B15000D9B2637A99420BD0257A237A0021DBB2E7
:10B16000934201D20133D9B22172012F03D113E0EE
:10B17000012F29D01B4D62B602ABD879FFF786FFAD
:10B180000223021C9A4303D06121154AFDF72CFBD0
:10B19000144B04209D4218D02368EF00DF19019B57
:10B1A0003B60009B002B0CD0002E0AD06089191C3C
:10B1B00045436068321C401904F0A6FDBE800020A3
:10B1C00003E00020B88000E0042005B0F0BDC046D8
:10B1D000A830002000ED00E018ED00E000E100E004
:10B1E000AC0C0200FFFF000010B50E4A117A537A32
:10B1F000994215D0537A517A9489C9B2DBB20020B2
:10B200008C4201D90131C8B25072508951685843FB
:10B210001268DB00D318081899881B689847E4E780
:10B2200010BDC046A830002070B5094C051C0E1C8E
:10B23000201C111C7F2204F01FFE00237F3423708A
:10B24000044BB6B21E805D601A885B6872B6FEE77A
:10B25000B8300020383100207EDF70477FDF704734
:10B2600081DF7047A9DF7047AADF70470020704771
:10B270000020704700207047002070470020704772
:10B28000002070472C2138B544780F4861430A5894
:10B29000002A0DD00C236343C31834339D786023F8
:10B2A0002B40402B03D14118043192B201E000221F
:10B2B000111C0C235C430019808EFFF7D3FF00287C
:10B2C00000D0024838BDC046403100204180000017
:10B2D0000020704708B5FFF7D5FF08BDF0B593B063
:10B2E00006AB9D1D28230C22059002912B804B78E4
:10B2F000224C5343E318988E08A92A1CFFF7B4FF89
:10B30000271C002836D1029B2D885B7808A9019361
:10B310002C23019A5343E6180493331D181C2A1C4E
:10B32000039304F0C9FC00280DD10C22019B534368
:10B33000E41802233434A17819401BD1301C203288
:10B3400004F020FD16E0049B0D4E1B59002B00D18C
:10B350000C4E2C24019B08A963432A1CFD50039822
:10B3600004F0D2FC029B05985978221C61433423D7
:10B370007918B047002013B0F0BDC046403100201E
:10B380009DC8010019C8010008B5FFF7A7FF08BD57
:10B39000F0B5284E041C301C85B00D1C3830A17847
:10B3A00002AA01F011FA0196002840D10C2362781C
:10B3B0005343F31834339B781F4E9B0605D4022D5C
:10B3C00003D01E4E012D00D01D4E1C27A178019BDD
:10B3D00079434033591802A83A1C0023B04700288B
:10B3E00016D1022D23D00C232021627802A85343CA
:10B3F000019AD31834339A788A439A706178182264
:10B400000B1C53430F494C31C9183B1CB04701E09A
:10B41000022D0CD00C23227802A85343094A211C88
:10B42000D3186C339B78084A9B009B58984705B00B
:10B43000F0BDC046403100209DC8010019C8010080
:10B440006DB20100C0310020F80C020070B52C2450
:10B45000031C4878084D60430E1C2818191C221C38
:10B46000342301F05DFA002805D173785C436359F9
:10B47000013300D1605170BD4031002008B5FFF7A5
:10B48000E5FF08BDF0B5484C8BB0646E002C00D1D0
:10B4900088E0109C642C00D984E01D1CFF2300244C
:10B4A000161C02AA53709370D370109B07AF0091C3
:10B4B000019014703C70049503933C48A1B238305D
:10B4C00005AA01F081F9002809D1019805A90822EF
:10B4D00004F0F2FB002802D102AB9C7002E00134C0
:10B4E000052CEAD102AB9A78FF2A5BD0009B042B93
:10B4F0000AD1109A07AB642A01D1443A00E04022F5
:10B500001A701A7803213FE02848274B011C40316C
:10B510006C1A8B2C10D8002E04D101219140186F89
:10B5200008423FD0012191400A1C196F914320220B
:10B53000196707AB1A7021E04C33EB1A172B0AD8A6
:10B54000202007AB1870002302A843701C335A4315
:10B550008918049112E02D1A2B2D23D830233B702B
:10B56000002302AA53700133D370031C2C33997A41
:10B570000223194002D12C2204F004FC009A07ABEC
:10B58000032A0CD101211A780A431A7003AB0893DD
:10B59000054B02A85B6E07A9321C984702E01A7897
:10B5A0000221F1E70BB0F0BDC03100204031002096
:10B5B000F8B51C240F4F44433E1C4036051C30197F
:10B5C000002136190622113004F0DCFB301C00216A
:10B5D000102204F0D7FB0120FF23A8403374B37678
:10B5E0003C19054A013B5834FF3B2380136F8343CA
:10B5F0001367F8BD40310020C031002037B581B25B
:10B60000051C09486A46383001F0DEF8041E08D1EE
:10B610006846642101F0D8F9041E02D1281CFFF706
:10B62000C7FF201C3EBDC04640310020F0B585B0AC
:10B63000002860D0314C0025231C314E6433071C98
:10B64000301C9D7201232C308372023B291C07227F
:10B650006566B386C37204F095FB301C291C2C224E
:10B6600004F090FB281CFFF7A3FF231CFF22743378
:10B67000EA540135052DF5D16A466423D580351C81
:10B68000938038351F4B6846291C009301F00EF853
:10B69000002831D1231C012279331A703B78002B0A
:10B6A0001FD11D1C301CA9B2383002AA01F08CF841
:10B6B000071E0ED11C22131C301C6B434030C018D7
:10B6C00002A93B1C01F02CF9002806D07934277020
:10B6D00012E00023793423700EE00135052DE1D10D
:10B6E0000AE06B466A46DB889188281C594389B278
:10B6F00001F06AF900E0044805B0F0BDC031002057
:10B700004031002085B401000E800000F8B5124BD6
:10B710001A1C79321278002A18D0002818D0002973
:10B7200016D00A68002A13D05C6E002C12D10D1CB2
:10B730005A6668331F1C061C0631181C062204F0CA
:10B74000E3FA2B79201CBB71347004E0034802E05B
:10B75000034800E00348F8BDC03100200880000025
:10B760000E80000004800000124908B50B1C7933DC
:10B770001B78002B1BD0002815D00378002B16D186
:10B780004B6E002B13D04378002B0ED10A4B1A1CA2
:10B790002C32927A012A08D0920708D5988E683107
:10B7A000FFF75AFD04E0054802E0054800E00548BF
:10B7B00008BDC046C0310020403100200E8000008E
:10B7C0001080000008800000164B1A1C7932127895
:10B7D000002A23D000281FD000291DD00278002A7B
:10B7E0001CD15B6E002B19D04378002B18D10E4A68
:10B7F0002C32907A012813D00422024003D0012277
:10B80000181C0A700DE04023184003D03E3B0B701B
:10B81000101C06E0087004E0044802E0044800E060
:10B8200004487047C0310020403100200E800000E5
:10B830000880000010800000F0B5204D2B1C7933EB
:10B840001B78AC46002B36D0002832D0002930D0EF
:10B850000B68002B2DD08B68002B2AD00378002B8F
:10B8600029D16A6E002A26D01A1C181C144C503498
:10B870000E79B04219D20E7BB24216D2A67AF507E3
:10B8800008D4271C8D689600103F775166467436A1
:10B89000B3540132A67AB50703D40D6886007451FB
:10B8A000013001331C34052BE2D108710A730020EA
:10B8B00002E0044800E00448F0BDC046C03100206A
:10B8C000403100200E8000000880000000487047D2
:10B8D000908000000023181C054A4032D218927E46
:10B8E000FF2A01D00130C0B21C338C2BF4D1704739
:10B8F00040310020014B2C33D87A70474031002072
:10B900001A4B70B51A1C79321278002A2AD00028F6
:10B9100026D0002924D00478002C23D15B6E002B84
:10B9200020D08A78042A1FD81C235343104EF318C2
:10B9300058339B78FF2B17D00D1C201C1C23321C66
:10B9400063434032D3189B7EFF2B05D0AB78A342D4
:10B9500002D0201CFFF752FE0134052CEED104E08A
:10B96000044802E0044800E0044870BDC0310020F3
:10B97000403100200E800000088000001080000090
:10B9800008B5114B1A1C79321278002A17D00028FA
:10B9900013D00278002A12D15B6E002B0FD004293D
:10B9A0000FD81C234B43094AD31858339B78FF2BDD
:10B9B00007D0081CFFF722FE04E0054802E0054816
:10B9C00000E0054808BDC046C031002040310020DD
:10B9D0000E800000088000001080000008B5114BA8
:10B9E0001A1C79321278002A17D0002813D0027856
:10B9F000002A12D15B6E002B0FD0807804280ED85D
:10BA00001C234343084AD31858339B78FF2B06D096
:10BA1000FFF7F4FD04E0054802E0054800E00548B2
:10BA200008BDC046C0310020403100200E8000001B
:10BA30000880000010800000114B10B51A1C7932EC
:10BA40001278002A1AD0002816D00478002C15D1BC
:10BA50005B6E002B12D0201C1C2363431A1C094B65
:10BA600040339B189B7EFF2B02D0201CFFF7C6FDA6
:10BA70000134052CF0D102E0034800E0034810BD7A
:10BA8000C0310020403100200E80000008800000FE
:10BA9000234B73B51A1C79321278002A3BD0002848
:10BAA00037D0002935D00278002A34D15B6E002BC4
:10BAB00031D04378002B30D11A4C231C2C339B7A85
:10BAC000012B2AD08278042A27D81C235343E31859
:10BAD00058339B78FF2B20D00D1C8968061C002949
